:020000040800F2
:10000000A81C002045010008891300088B13000874
:1000100095130008991300089D13000800000000C4
:10002000000000000000000000000000A113000814
:10003000A313000800000000A5130008A713000880
:100040005F0100085F0100085F0100085F01000810
:100050005F0100085F0100085F0100085F01000800
:100060005F0100085F0100085F0100085F010008F0
:100070005F0100085F0100085F0100085F010008E0
:10008000AB1300085F0100085F0100085F01000872
:100090005F0100085F0100085F0100085F010008C0
:1000A0005F0100085F0100085F0100085F010008B0
:1000B0005F0100085F0100085F0100085F010008A0
:1000C0005F0100085F0100085F0100085F01000890
:1000D0005F010008A91300085F0100085F01000824
:1000E0005F0100085F0100085F0100085F01000870
:1000F0005F0100085F0100085F0100085F01000860
:100100005F010008B31300085F0100085F010008E9
:100110005F0100085F0100085F0100085F0100083F
:100120005F0100085F0100085F010008BB130008C1
:10013000DFF80CD006F0F6FC004800474D1300082D
:10014000A81C00200648804706480047FEE7FEE757
:10015000FEE7FEE7FEE7FEE7FEE7FEE7FEE7FEE777
:1001600045020008310100080CB500200190009004
:100170006B48006840F480306949086000BF6848F7
:10018000006800F4003000900198401C0190009835
:1001900018B90198B0F5A06FF1D16148006810F46A
:1001A000003F02D00120009001E000200090009864
:1001B000012842D15B48006840F0100059490860AE
:1001C0000846006820F0030008600846006840F018
:1001D000020008605248406851494860084640683B
:1001E00048600846406840F48060486008464068BF
:1001F00020F47C1048600846406840F4E8104860ED
:100200000846006840F08070086000BF44480068FD
:1002100010F0007FFAD04248406820F003004049C7
:1002200048600846406840F00200486000BF3C4813
:10023000406800F00C000828F9D10CBD10B5FFF79C
:1002400093FF10BD10B53648006840F001003449F6
:10025000086008464068344908403149486008460B
:100260000068324908402E4908600846006820F4BA
:10027000802008600846406820F4FE0048604FF483
:100280001F008860FFF7DAFF4FF000602849086020
:1002900010BD10B5002100200022214B5B6803F047
:1002A0000C0121B1042906D0082928D107E0214BEF
:1002B000214C236027E01F4B1F4C236023E0184B89
:1002C0005B6803F47010164B5B6803F48032022302
:1002D00003EB904022B9194B4343174C23600DE0C8
:1002E0000F4B5B6813F4003F04D0144B4343124C94
:1002F000236003E00F4B43430F4C236003E00D4B9F
:100300000D4C236000BF00BF054B5B68C3F30313B4
:100310000B4CE15C084B1B68CB40074C236010BDC5
:1003200000100240002002400000FFF8FFFFF6FE30
:1003300008ED00E000127A000000002000093D00F6
:100340000400002031490143314A1160704770B503
:10035000002100230F22C4780CB32D4C246804F430
:10036000E064C4F5E064210AC1F10403CA404478A2
:1003700004FA03F18478144021430901254C0678DE
:10038000A155047804F01F050124AC4005786D11D7
:100390004FF0E02606EB8505C5F8004109E004783A
:1003A00004F01F050124AC401B4D0678761145F87A
:1003B000264070BD194A0A400243154B1B1F1A60A4
:1003C000704739B1124A121D12680243104B1B1DAF
:1003D0001A6006E00E4A121D126882430C4B1B1D68
:1003E0001A607047042808D14FF0E021096941F0F4
:1003F00004014FF0E022116107E04FF0E0210969AC
:1004000021F004014FF0E022116170470000FA056D
:100410000CED00E000E400E080E100E080FFFF1F61
:1004200001684FF6FE7211400160002101604160D9
:100430008160C1608C49884208D18B49083949687C
:1004400041F00F01884A083A51608AE08649143128
:10045000884208D184490839496841F0F001824A4C
:10046000083A51607DE080492831884208D17E49B0
:100470000839496841F470617B4A083A516070E07C
:1004800079493C31884208D177490839496841F4B3
:100490007041754A083A516063E0734950318842AF
:1004A00008D171490839496841F470216E4A083A07
:1004B000516056E06C496431884208D16A49083974
:1004C000496841F47001684A083A516049E0664958
:1004D0007831884208D164490839496841F070612F
:1004E000614A083A51603CE06049884206D1011FE8
:1004F000096841F00F01021F116032E05B491431BD
:10050000884208D15949091F096841F0F001574A4A
:10051000121F116025E055492831884208D15349FE
:10052000091F096841F47061504A121F116018E0F8
:100530004E493C31884208D14C49091F096841F4B1
:1005400070414A4A121F11600BE0484950318842FD
:1005500007D14649091F096841F47021434A121F17
:100560001160704710B50022026847F6F0739A4395
:100570000C6A8B6823430C6923434C6923438C69C1
:100580002343CC6923434C6A23438C6A23431A4395
:100590000260CB6843600B6883604B68C36010BD2A
:1005A0000021016041608160C16001614161816140
:1005B000C161016241628162704721B1026842F00B
:1005C0000102026004E002684FF6FE731A40026006
:1005D00070471AB103680B43036002E003688B4362
:1005E00003607047416070470146486880B27047B9
:1005F00001460020002211F0805F03D01B4B083B16
:100600001A6802E0184B083B1A680A4201D0012020
:1006100000E00020704710F0805F03D01349091FED
:10062000086002E010490839486070470146002020
:10063000002211F0805F03D00C4B083B1A6802E0E7
:10064000094B083B1A680A4201D0012000E0002053
:10065000704710F0805F03D00449091F086002E072
:100660000149083948607047080002400804024008
:1006700010B50446CA48844208D10121042000F084
:1006800027FB0021042000F023FB46E0C5488442FC
:1006900008D10121082000F01BFB0021082000F0F8
:1006A00017FB3AE0C048844208D10121102000F035
:1006B0000FFB0021102000F00BFB2EE0BB48844212
:1006C00008D10121202000F003FB0021202000F0B0
:1006D000FFFA22E0B648844208D10121402000F010
:1006E000F7FA0021402000F0F3FA16E0B148844206
:1006F00008D10121802000F0EBFA0021802000F0D9
:10070000E7FA0AE0AC48844207D10121801500F0E5
:10071000DFFA0021A01500F0DBFA10BD10B50121B1
:10072000084600F0D5FA0021012000F0D1FA10BDF2
:100730002DE9F04102460025002600200023002478
:10074000002791F803C00CF00F0591F803C01CF0CE
:10075000100F03D091F802C04CEA050591F800C0D3
:10076000BCF1000F31D0146800202BE04FF0010CD9
:100770000CFA00F3B1F800C00CEA03069E4220D147
:1007800083004FF00F0C0CFA03F7BC4305FA03FC8F
:100790004CEA040491F803C0BCF1280F06D14FF0D5
:1007A000010C0CFA00FCC2F814C00AE091F803C076
:1007B000BCF1480F05D14FF0010C0CFA00FCC2F857
:1007C00010C0401C0828D1D31460B1F800C0BCF19F
:1007D000FF0F34DD546800202EE000F1080C4FF0CC
:1007E000010808FA0CF3B1F800C00CEA03069E42B7
:1007F00021D183004FF00F0C0CFA03F7BC4305FA2C
:1008000003FC4CEA040491F803C0BCF1280F05D1A5
:1008100000F1080C08FA0CF8C2F8148091F803C033
:10082000BCF1480F07D100F1080C4FF0010808FA9D
:100830000CF8C2F81080401C0828CED35460BDE8E4
:10084000F0814FF6FF710180022181700421C17097
:1008500070470246002093680B4201D0012000E05F
:10086000002070470146886880B270470246002029
:10087000D3680B4201D0012000E000207047014600
:10088000C86880B2704701617047416170470AB122
:10089000016100E041617047C16070474FF48032F0
:1008A0000A4382618161826182698269704702467E
:1008B0000020424B18684FF68073184040EA02103F
:1008C00008433E4B186070473D49C8617047F0B51A
:1008D0000A46002300240021002500F00046B6F15E
:1008E000004F02D1354EF16901E0344E7168C0F31A
:1008F000034583B200F44016B6F5401F08D121F03D
:1009000070612E4E766826F070662C4F7E6012E085
:1009100000F48016B6F5801F06D1032606FA05F40A
:10092000A14341F0706106E0460D360103FA06F678
:10093000B14341F0706122B1460D360103FA06F66B
:10094000314300F00046B6F1004F02D11B4EF16179
:1009500001E01A4E7160F0BD30B500228B071C0F0C
:100960000F2303FA04F2154B08338C1053F824308C
:100970009343124C08348D1044F8253023468C10D4
:1009800053F824308C07240F00FA04F423430B4C53
:1009900008348D1044F8253030BD0A49086070478E
:1009A00000080140000C014000100140001401400B
:1009B00000180140001C01400020014000000140DF
:1009C00000002042DC002042DD48006840F00100C9
:1009D000DB49086008464068DA490840D849486061
:1009E00008460068D8490840D549086008460068AC
:1009F00020F4802008600846406820F4FE0048602B
:100A00004FF41F0088607047CD49096821F4803198
:100A1000CB4A11601146096821F480211160B0F5BC
:100A2000803F03D0B0F5802F0ED106E0C44909689D
:100A300041F48031C24A116007E0C149096841F4BC
:100A4000A021BF4A116000E000BF00BF704710B591
:100A500001460022002300204A11012A02D1B84C8D
:100A6000236806E0022A02D1B54C236A01E0B44CA7
:100A7000636A01F01F02012494401C4201D001204E
:100A800000E0002010BD38B50020009000240025B3
:100A900000BF3120FFF7DBFF05460098401C0090A7
:100AA0000098B0F5A06F01D0002DF2D03120FFF7F3
:100AB000CEFF08B1012400E00024204638BD0146E5
:100AC00000209F4A106820F0F80040EAC100106042
:100AD00070479E490860704702460020984B58684E
:100AE00020F47C1042EA01031843954B586070478C
:100AF00096490866704701460020914A506820F0E8
:100B000003000843506070478D48406800F00C00B7
:100B10007047014600208A4A506820F0F0000843E0
:100B20005060704701460020854A506820F4E0601C
:100B300008435060704701460020814A506820F405
:100B4000605040EAC1005060704729B17C4A527A37
:100B500002437B4B5A7204E0794A527A8243784BC3
:100B60005A7270477A490860704701460020744AFB
:100B7000506820F440400843506070470021754A97
:100B800011706F4A82F82010012802D0042808D181
:100B900003E001216F4A117004E005216D4A1170D4
:100BA00000E000BF00BF70476B49086070476449B0
:100BB000096A0143624A1162704767494439086013
:100BC000704730B500210022002400235C4D6D6881
:100BD00005F00C0121B1042905D0082923D105E035
:100BE0005E4D056022E05D4D05601FE0544D6D686F
:100BF00005F47012524D6D6805F48034022505EB42
:100C000092421CB9564D554305600BE04C4D6D6842
:100C100015F4003F03D0524D5543056002E04F4D9F
:100C20005543056002E04D4D056000BF00BF444DD7
:100C30006D6805F0F00109094A4D6B5C0568DD40FF
:100C400045603F4D6D6805F4E061090A454D6B5CF8
:100C50004568DD4085603A4D6D6805F46051C90A0C
:100C6000404D6B5C4568DD40C560354D6D6805F4F1
:100C70004041890B3C4D6B5CC568B5FBF3F50561E4
:100C800030BD29B12E4A526902432D4B5A6104E00E
:100C90002B4A526982432A4B5A61704729B1284A2C
:100CA00092690243264B9A6104E0254A9269824385
:100CB000234B9A61704729B1214AD2690243204BE4
:100CC000DA6104E01E4AD26982431D4BDA61704743
:100CD00029B11B4AD2680243194BDA6004E0184A72
:100CE000D2688243164BDA60704729B1144A126900
:100CF0000243134B1A6104E0114A12698243104BFC
:100D00001A61704714494039086070470F49C86438
:100D100070470B49C87170470948406A40F08070BD
:100D200007494862704701460020054A92680A4216
:100D300001D0012000E0002070470149887270470F
:100D4000001002400000FFF8FFFFF6FE00004242E4
:100D5000D8004242201002408004424200127A0031
:100D600000093D00140000202400002000206C49F0
:100D7000086048608860C86048628862C8626948E4
:100D800088630020C86370470021654A516847F6B0
:100D9000FF629143027D83681A4343681A43C36824
:100DA0001A4303681A4303691A4311435C4A5160AA
:100DB000704700210175016041608160C16001617F
:100DC00070475949086070475549096821F0030187
:100DD000534A116011460968014311607047504839
:100DE000006800F00300704729B14D4AD26B0243FE
:100DF0004B4BDA6304E04A4AD26B8243484BDA63D6
:100E000070474A49086070470021454B02689A6064
:100E10001A46D1686FF30A01D0E901231A43C36867
:100E20001A4303691A4311433D4AD16070470021B8
:100E3000016041608160C1600161704738480069AC
:100E4000C0B2704708B50146002000903448143005
:100E5000084400900098006808BD0021304B0268EB
:100E60005A6242689A621A46D16A21F0F701D0E9C3
:100E700002231A4303691A4343691A431143284A58
:100E8000D16270474FF0FF31016000214160816005
:100E9000C1600161416170472148006B704724487F
:100EA000006870472249086070471D48806C704791
:100EB0001E491431086070471C491831086070479A
:100EC0001A491C3108607047184920310860704782
:100ED000184908607047184908607047012181432C
:100EE000164A116070471649086070470146002095
:100EF0000B4A526B0A4201D0012000E000207047EB
:100F000007498863704701460020054A526B0A4230
:100F100001D0012000E0002070470149886370473C
:100F200000800140FF07C000A00030428C05304225
:100F300080800140AC013042B0013042B401304207
:100F4000B801304210B50446FB48844209D1012162
:100F50008803FFF7BDFE00214FF48040FFF7B8FE85
:100F600032E0F648844209D101214804FFF7BDFE72
:100F700000214FF40030FFF7B8FE25E0F04884422E
:100F800009D101218804FFF7B0FE00214FF4802031
:100F9000FFF7ABFE18E0EB48844209D10121C804F9
:100FA000FFF7A3FE00214FF40020FFF79EFE0BE0A9
:100FB000E548844208D101210805FFF796FE00218B
:100FC0004FF48010FFF791FE10BD2DE9F04786B079
:100FD00005460E460024A24600BFA1460027B08960
:100FE00000B100BF2F462C8A4CF6FF700440F088F9
:100FF00004432C82AC894EF6F3100440B08831894A
:101000000843718908430443AC81AC8A4FF6FF4022
:101010000440B0890443AC8201A8FFF7D2FDC64862
:10102000874202D1DDF810A001E0DDF80CA0A8890C
:1010300010F4004F08D00AEBCA0000EB0A10316828
:101040004900B0FBF1F807E00AEBCA0000EB0A1018
:1010500031688900B0FBF1F86420B8FBF0F00401BE
:101060002009642101FB1089A88910F4004F08D0E1
:10107000322000EBC900B0FBF1F000F007000443A0
:1010800008E0322000EB09106421B0FBF1F000F021
:101090000F0004432C8106B0BDE8F0874FF41651D1
:1010A000016000218180C18001810C2141810021EA
:1010B0008181704710B502460020108A4FF2FF036D
:1010C00018400B884C8823438C882343CC882343C7
:1010D0001843108210BD0021018041808180C180B1
:1010E000704721B1828942F40052828104E08289F2
:1010F0004DF6FF731A4082817047F0B50346002415
:10110000002600250020A1F510676A3F00D100BF2E
:101110001846C1F3421401F01F06012707FA06F52D
:10112000012C01D10C3004E0022C01D1103000E080
:1011300014301AB107682F43076002E00768AF4315
:101140000760F0BD1AB1838A0B43838202E0838A71
:101150008B4383827047028A4FF6F0731A400282F3
:10116000028A0A430282704782894FF2FF731A4053
:10117000828182890A438281704721B1828942F04B
:101180000202828104E082894FF6FD731A40828157
:101190007047028A4FF6DF731A400282028A0A43BE
:1011A0000282704721B1028A42F48042028204E046
:1011B000028A4BF6FF731A4002827047C1F308029D
:1011C0008280704701468888C0F308007047818993
:1011D00041F0010181817047028BD2B20283028B00
:1011E00042EA012202837047028B02F47F420283AB
:1011F000028B0A430283704721B1828A42F02002A7
:10120000828204E0828A4FF6DF731A40828270473E
:1012100021B1828A42F01002828204E0828A4FF673
:10122000EF731A408282704721B1828A42F008022D
:10123000828204E0828A4FF6F7731A4082827047F6
:1012400021B1828942F40042828103E08289C2F3A3
:101250000E028281704721B1828A42F4006282824A
:1012600004E0828A4FF2FF731A4082827047828ABA
:101270004FF6FB731A408282828A0A438282704749
:1012800021B1828A42F00202828204E0828A4FF611
:10129000FD731A408282704702460020B1F5007F3C
:1012A00000D100BF13880B4201D0012000E00020D4
:1012B000704701F40072B2F5007F00D100BFCA434D
:1012C0000280704770B502460024002300250020EC
:1012D000A1F510666A3E00D100BFC1F3421501F0CE
:1012E0001F03012606FA03F3012D02D1968933402C
:1012F00006E0022D02D1168A334001E0968A33407F
:101300000C12012606FA04F41688344013B10CB10D
:10131000012000E0002070BD10B500220023A1F5DF
:1013200010646A3C00D100BF0A1201249440A3B2A9
:10133000DC43048010BD0000003801400044004040
:1013400000480040004C00400050004000F044F8CD
:1013500001F00BFF03A005F021FE01F0E3FF00BF49
:10136000FEE700000D0AD2B0BBF057462D4E454FA8
:101370002D364D20475053C4A3BFE9B2E2CAD4C0B2
:10138000FDB3CC0D0A00000070470EA005F006FE6C
:1013900000BFFEE700BFFEE700BFFEE700BFFEE7BD
:1013A0007047704770477047704710B501F091FE65
:1013B00010BD10B501F0D7FC10BD10B501F03CFD1B
:1013C00010BD00000D0A20686172646661756C745E
:1013D000206572720D0A000000B585B0012144F24B
:1013E0000400FFF75BFC4FF40070ADF8100018200C
:1013F0008DF8130003208DF8120004A92148FFF78F
:1014000097F94FF48060ADF8100004208DF81300B8
:1014100004A91C48FFF78CF94FF4E130009000203C
:10142000ADF80400ADF80600ADF80800ADF80C000A
:101430000C20ADF80A0069461348FFF7C6FD0121EC
:101440001148FFF74EFE05B000BD70B504460D46CD
:10145000E1B20D48FFF7B2FE00BF80210A48FFF756
:101460001BFF0028F9D0204670BD10B5044600BF10
:1014700020210548FFF710FF0028F9D00248FFF7A8
:10148000A1FE10BD000801400038014008B54FF42E
:10149000E060FEF757FF31208DF8000000208DF846
:1014A00001008DF8020001208DF803006846FEF768
:1014B0004EFF3B208DF8000000208DF801006846AB
:1014C000FEF745FF08BD08B50020FFF77AFC0020B5
:1014D000FFF77AFCFFF74AFC00214FF48060FFF72A
:1014E000D0FB4FF4F850ADF8000004208DF8030055
:1014F0006946FC48FFF71CF90420ADF80000694676
:10150000F948FFF715F908BD08B50121B020FFF72C
:10151000C5FB4FF4F850ADF8000003208DF8020031
:1015200018208DF803006946EE48FFF701F9042002
:10153000ADF800006946EC48FFF7FAF84FF4006098
:10154000ADF8000048208DF803006946E748FFF732
:10155000EFF801218802FFF794FB01210220FFF739
:1015600090FB08BD30B58BB005460C46E048FFF750
:1015700052F80021DF48FFF720F8DF48009001957E
:1015800010200290A0080390002004908020059075
:101590008000069080000790002008904FF40050D3
:1015A000099000200A906946D248FEF7DBFF01222D
:1015B0000221D048FFF70DF80121CE48FEF7FDFFCC
:1015C0000BB030BD30B58BB005460C46C848FFF7B0
:1015D00022F80021C748FEF7F0FFC74800900195A8
:1015E00000200290A0080390002004908020059025
:1015F0008000069080000790002008904FF4005073
:10160000099000200A906946BA48FEF7ABFF012214
:101610000221B848FEF7DDFF0121B648FEF7CDFFF5
:101620000BB030BD10B5B548FEF7E2FF10BD10B5E8
:10163000FFF749FF10BD2DE9F04106460027AE48EF
:101640008038456B02E0AC488038456B15F0450F9B
:10165000F9D015F0040F06D003270420FFF750FC43
:101660003846BDE8F08115F0010F05D001270120B3
:10167000FFF746FC3846F4E7FFF7E0FBB04202D044
:1016800010273846EDE740F2FF50FFF739FC002005
:10169000FFF7D8FB04469A48044201D13846E0E7F8
:1016A00014F0004F01D01C20DBE714F0804F01D074
:1016B0000920D6E714F0005F01D00A20D1E714F02A
:1016C000805F01D00B20CCE714F0006F01D00C201C
:1016D000C7E714F0806F01D00D20C2E714F0807FBF
:1016E00001D00E20BDE714F4000F01D00F20B8E7A1
:1016F00014F4800F01D01020B3E714F4001F01D0C0
:101700001120AEE714F4801F01D01220A9E714F4D1
:10171000002F01D01320A4E714F4802F01D014204F
:101720009FE714F4003F01D015209AE714F4803F9E
:1017300001D0162095E714F4004F01D0172090E750
:1017400014F4804F01D018208BE714F4005F01D00F
:10175000192086E714F0080F01D01A2081E73846D7
:101760007FE72DE9FC4107460D46002600240020B6
:1017700000900190082063490860102048604020D4
:1017800088600020C8604FF4806008610846FFF759
:101790003BFB1020FFF74FFF044614B12046BDE885
:1017A000FC81594800880004564908603720486089
:1017B000402088600020C8604FF4806008610846BF
:1017C000FFF722FB3720FFF736FF04460CB1204617
:1017D000E5E74AF6FF704D49086008204860302070
:1017E00088600220C8600020086101204861084626
:1017F000FFF733FB00204349086033204860402056
:1018000088600020C8604FF4806008610846FFF7D8
:10181000FBFA3320FFF70FFF04460CB12046BEE76A
:1018200009E04FF40010FFF761FB20B1FFF737FB31
:101830004DF82600761C30488038406B40F22A6113
:101840000842EED00820FFF751FB28B10820FFF72F
:1018500057FB04242046A2E70220FFF747FB28B1EC
:101860000220FFF74DFB0224204698E72020FFF7D7
:101870003DFB28B12020FFF743FB062420468EE7DE
:101880004FF40070FFF732FB30B14FF40070FFF7F8
:1018900037FB0724204682E740F2FF50FFF730FB7A
:1018A00000980006009901F47F4140EA0120009968
:1018B00001F47F0140EA1120009940EA116068605C
:1018C00001980006019901F47F4140EA0120019945
:1018D00001F47F0140EA1120019940EA116028607B
:1018E00020465CE70010014000140140001C01404C
:1018F00000F00010440402408080014000200010ED
:1019000008E0FFFD280100202C0000203C01002001
:101910007CB505460024002000900190FFF792FA64
:1019200010F0007F02D00E2420467CBDFE490988BD
:1019300088B26946FFF715FF04460CB12046F4E76C
:10194000012D35D1019810F4802F2ED0F648008853
:101950000004F64908603720486040208860002075
:10196000C860A80208610846FFF74EFA3720FFF763
:1019700062FE04460CB12046D7E70220EB4908601E
:1019800006204860402088600020C8604FF48060D6
:1019900008610846FFF738FA0620FFF74CFE0446B8
:1019A0000CB12046C1E72046BFE725242046BCE70E
:1019B000019810F4803F2FD0DB4800880004DB49F9
:1019C000086037204860402088600020C8604FF4DD
:1019D000806008610846FFF717FA3720FFF72BFEF3
:1019E00004460CB12046A0E70020D049086006203C
:1019F0004860402088600020C8604FF48060086123
:101A00000846FFF701FA0620FFF715FE04460CB161
:101A100020468AE7204688E72524204685E770B5DA
:101A200004460025C2480068032802D1272528461D
:101A300070BDBF48006838B1BD480068012803D0B8
:101A4000BB48006802282ED1B4F5805F02D127255B
:101A50002846EDE7B4F5006F14D10120FFF758FFD9
:101A6000054605BB0120B3490875002008604860A1
:101A700088604FF40060C860002008610846FFF7E6
:101A800083F910E00020FFF743FF05465DB9012010
:101A9000A84908750020086048608860C86008612F
:101AA0000846FFF771F92846C2E770B504460025DD
:101AB0009E48046007209D494860402088600020BF
:101AC000C8604FF4806008610846FFF79DF9072061
:101AD000FFF7B1FD0546284670BDF0B50146002070
:101AE0000022934B1B7881F856308F4B1B88A1F84E
:101AF0005430914B1B681A0E93090B70C2F3830389
:101B00004B7002F003038B708B4B1B68C3F30742CF
:101B1000CA70894B1B88C3F307220A71864B1A7857
:101B20004A715B681A0E1301CB80834B5B68C3F369
:101B30000742CB8843EA1213CB8002F00F030B72EB
:101B40007D4B9B88C3F30722D3094B72C2F38013EA
:101B50008B72C2F34013CB72C2F300130B730023DA
:101B60004B73734B1B681BB1714B1B68012B4FD11F
:101B700093071B0D0B61704B1A790B6943EA8203C3
:101B80000B616D4B9B681A0E0B6943EA92130B6154
:101B9000C2F3C2030B7502F007034B75664B9B68DB
:101BA000C3F3074253098B75C2F38203CB759307C6
:101BB0005B0F0B76604B1B89C3F307220B7E43EA56
:101BC000D2130B760B695B1C0024C1E912340B7E27
:101BD000D1E912659B1C012404FA03F3DC17A6FB70
:101BE000037C05FB03C306FB0433C1E912730C7AC3
:101BF0000123A3400B650027D1E912560B6DA5FB0D
:101C0000034C06FB03C305FB0733C1E9124323E082
:101C1000474B1B68022B1FD1474B1A7993069B0A2F
:101C20000B61454B9B681A0E0B6943EA02230B615B
:101C3000414B9B68C3F307420B6913430B613E4B57
:101C40001B89C3F307220B695B1CDB040024C1E979
:101C500012344FF400730B65C2F3801301F8193F7F
:101C600093065B0E4B70344B1A7A4B7843EAD213CF
:101C70004B7002F07F038B702F4BDB681A0ED30979
:101C8000CB70C2F341130B71C2F382034B71930704
:101C90001B0F8B71284BDB68C3F307428B7943EA38
:101CA00092138B71C2F34013CB7100230B7202F0BD
:101CB00001034B72204B9B89C3F30722D3098B721C
:101CC000C2F38013CB72C2F340130B73C2F3001341
:101CD0004B73C2F381038B7302F00303CB73164B78
:101CE0001A7B53080B7401234B74144B1B681A0E98
:101CF000CA74A1F11901114B1B68C3F307424FEAE3
:101D00000224CC850D4B1B88C3F30722CB8D43EAFD
:101D10000203CB85094B1A784FEA02640C635B68B7
:101D20004FEA13620B6B0BE02C000020280100200F
:101D300028000020100100208800002098000020CA
:101D400043EA02440C63FD4B5B68C3F307420B6B31
:101D500043EA02240C63F94B9B88C3F307220B6B05
:101D600043EA02030B63F54B1A794FF034035A54DC
:101D7000F24B9B684FEA13624FF035035A54EF4B16
:101D80009B68C3F307424FEA02648C63EB4B1B89E9
:101D9000C3F307228B6B43EA02448C63E74B1A7A46
:101DA0008B6B43EA02248C63E44BDB684FEA1362DB
:101DB0008B6B43EA02038B63E04BDB68C3F30742A0
:101DC0004FF03C035B5C43EA12144FF03C035C545D
:101DD0004FEA02734FEA1354CC87D84B9B89C3F365
:101DE0000722CB8F43EA0203CB87D44B1A7B4FEAFF
:101DF00052044FF040035C544FF001044FF0410394
:101E00005C54F0BD70B50025CD48446B01E0CC4872
:101E1000446B14F0450FFAD014F0040F05D00325DD
:101E20000420FFF76DF8284670BD14F0010F05D0AF
:101E300001250120FFF764F82846F5E740F2FF503E
:101E4000FFF75EF82846EFE72DE9F04106460F461A
:101E50004FF00008BA48456B01E0B948456B15F0F2
:101E6000450FFAD015F0040F07D04FF003080420F7
:101E7000FFF746F84046BDE8F08115F0010F06D0A7
:101E80004FF001080120FFF73BF84046F3E7FEF76B
:101E9000D5FFB04203D04FF010084046EBE740F2C8
:101EA000FF50FFF72DF80020FEF7CCFF044614F496
:101EB000604F03D1200C38804046DCE714F4005F0B
:101EC00001D01320D7E714F4804F01D01020D2E7BF
:101ED00014F4004F01D00F20CDE74046CBE738B5D2
:101EE000002401200090FEF77AFF10B92524204637
:101EF00038BD94480068042828D000209249086022
:101F000002204860C02088600020C8604FF48060D4
:101F100008610846FEF778FFFFF774FF04460CB12E
:101F20002046E5E70020FEF78DFF84490860042085
:101F3000FEF788FF814948600820FEF783FF7F494C
:101F400088600C20FEF77EFF7C49C8607D480068F1
:101F500058B17C480068012807D07A4800680628F4
:101F600003D078480068022816D10020764908601E
:101F700003204860402088600020C8604FF48060E3
:101F800008610846FEF740FF69460320FFF75CFF43
:101F900004460CB12046ABE76A48006804282ED0FE
:101FA000BDF8000069490860BDF8000000046649FA
:101FB000086009204860C02088600020C8604FF495
:101FC000806008610846FEF71FFFFFF71BFF04460D
:101FD0000CB120468CE70020FEF734FF5C49086016
:101FE0000420FEF72FFF5A4948600820FEF72AFF19
:101FF000574988600C20FEF725FF5549C86000242A
:10200000204675E770B500254D48446B01E04C480B
:10201000446B14F0450FFAD014F0040F05D00325DB
:102020000420FEF76DFF284670BD40F2FF50FEF71A
:1020300067FF2846F8E770B500264FF48035404822
:10204000446B02E06D1E3E48446B14F0450F01D115
:10205000002DF7D115B114F0040F05D0032604208C
:10206000FEF74EFF304670BD14F0400F05D000263D
:102070004020FEF745FF3046F5E73046F3E770B500
:1020800000254FF4803400E0641E24B18020FEF768
:102090002DFF0028F8D014B90325284670BD40F262
:1020A000FF50FEF72DFF2846F8E7F8B50020009016
:1020B0000025002400260027B220264908750020AC
:1020C000086048608860C86008610846FEF75CFEEA
:1020D0000320FEF779FE0120FEF773FE00201A4967
:1020E000086048608860C8604FF4806008610846F6
:1020F000FEF78AFEFFF7C3FF00909DF8000010B1C5
:102100009DF80000F8BD4FF4D5700F490860082015
:102110004860402088600020C8604FF480600861FB
:102120000846FEF771FEFFF786FF00909DF800005D
:1021300090B9012003490860870720E0980000203B
:102140000080014028000020280100202C000020F1
:1021500088000020100100200020FE490860372080
:102160004860402088600020C8604FF480600861AB
:102170000846FEF749FE3720FFF75DFA0090002081
:10218000F449086037204860402088600020C8601B
:102190004FF4806008610846FEF736FE3720FFF7EF
:1021A0004AFA00909DF80000002851D13BE0002041
:1021B000E849086037204860402088600020C860F7
:1021C0004FF4806008610846FEF71EFE3720FFF7D7
:1021D00032FA00909DF8000010B19DF8000091E7E0
:1021E000DD483843DB49086029204860402088608A
:1021F0000020C8604FF4806008610846FEF704FEC6
:10220000FFF700FF00909DF8000010B19DF800005E
:1022100078E70020FEF716FE0546012080EAD5701B
:1022200080F00106641C1EB94FF6FF708442BED3D5
:102230004FF6FF70844204D31B2000909DF80000ED
:1022400060E705F08040050002D00220C349086025
:102250009DF8000056E708B500200090FFF754F9FC
:10226000FEF784FDFFF721FF00909DF8000010B1FC
:102270009DF8000008BDFFF732FE00909DF80000B9
:1022800010B19DF80000F5E70120B5490875002060
:10229000086048608860C86008610846FEF774FD01
:1022A000FFF7F4F8AF48FFF718FC00909DF8000026
:1022B00030B9AC49B1F854100804FFF7F6FB0090B0
:1022C0009DF8000020B94FF40060FFF7A8FB0090D4
:1022D0009DF80000CEE770B50446002514B9262508
:1022E000284670BDA048008800049A4908600D2067
:1022F0004860402088600020C8604FF4806008611A
:102300000846FEF781FD0D20FFF795F905460DB152
:102310002846E6E70020FEF795FD20602846E0E726
:1023200008B5012000909DF8000008BD08B5002008
:102330000090FFF7F5FF012809D16846FFF7CBFFB2
:1023400008B1FF2008BD0098C0F34320FAE7FF2042
:10235000F8E710B50424FFF7E9FF0446042C01D187
:10236000002010BDFF2C01D10220FAE70120F8E780
:1023700010B500240020FEF727FD204610BD70B5E3
:102380000446002600250020FEF75CFD10F0007FCB
:1023900002D00E26304670BD40206E4908601020E5
:1023A0004860402088600020C8604FF48060086169
:1023B0000846FEF729FD1020FFF73DF906460EB14D
:1023C0003046E8E768480088000462490860372022
:1023D0004860402088600020C8604FF48060086139
:1023E0000846FEF711FD3720FFF725F906460EB126
:1023F0003046D0E74AF6FF705C49086040204860EC
:10240000602088600220C8600020086101204861C7
:102410000846FEF722FD00204E4908600D20486066
:10242000402088600020C8604FF480600861084642
:10243000FEF7EAFC0D20FFF7FEF806460EB1304627
:10244000A9E70EE04FF40040FEF750FD48B100252B
:1024500004E0FEF724FD44F825006D1C082DF8D398
:1024600020344348406B40F22A610842EAD00820F9
:10247000FEF73CFD28B10820FEF742FD0426304659
:1024800089E70220FEF732FD28B10220FEF738FD71
:10249000022630467FE72020FEF728FD28B12020C5
:1024A000FEF72EFD0626304675E74FF40070FEF766
:1024B0001DFD30B14FF40070FEF722FD07263046B7
:1024C00069E74AF6FF7504E0FEF7E9FC2060241D89
:1024D0006D1E4FF40010FEF709FD08B1002DF3D179
:1024E00040F2FF50FEF70CFD304654E770B504464D
:1024F000002600251F48FFF742FF06460EB1304672
:1025000070BD1C480078850925701A480078C0F312
:102510004015657017488578280260801548C57891
:102520006088284360801348057928066060114858
:102530004579606840EA054060600E4885796068CA
:1025400040EA052060600B48C579606828436060F8
:10255000084811E028010020000010802800002019
:1025600010010020B80000202C0000203C010020B9
:1025700000800140A8000020057A2572457A657226
:10258000807A0509A572FB48C57A2802A081F9481E
:10259000057BA0892843A081F648407B8508A57368
:1025A000F448407B00F00305E5733046A8E72DE9C9
:1025B000F041804614461D46069E4FF000073846FF
:1025C000ED490870ED490860ED490860ED49C862C1
:1025D000ED480068022808D10602020200232046C6
:1025E000294603F0EDFE04460D46E848066010203B
:1025F000E6494860402088600020C8604FF4806051
:1026000008610846FEF700FC1020FFF714F80746A3
:1026100017B13846BDE8F0814AF6FF70DC49086022
:1026200008464660902088600220C860002008614B
:10263000012048610846FEF710FCD44804601120D0
:10264000D2494860402088600020C8604FF4806014
:1026500008610846FEF7D8FB1120FEF7ECFF07469D
:102660000FB13846D6E7012140F22A30FEF7BCFB15
:102670000120FEF7C6FB31464046FEF7A3FF384671
:10268000C8E72DE9F047814614461D46DDE9086894
:102690004FF000073846B8490870B84908604FF055
:1026A0000100B74908604FF00000B649C862B6485B
:1026B0000068022808D106020202002320462946AB
:1026C00003F07EFE04460D46B04806601020AF4978
:1026D0004860402088600020C8604FF48060086136
:1026E0000846FEF791FB1020FEF7A5FF074617B13D
:1026F0003846BDE8F0874AF6FF70A549086008FB38
:1027000006F04860902088600220C86000200861C0
:10271000012048610846FEF7A0FB9C480460122097
:102720009A494860402088600020C8604FF480606B
:1027300008610846FEF768FB1220FEF77CFF07469B
:102740000FB13846D5E7012140F22A30FEF74CFBA5
:102750000120FEF756FB08FB06F14846FEF732FF64
:102760003846C6E710B500240020884908600C20D0
:102770004860402088600020C8604FF48060086195
:102780000846FEF741FB0C20FEF755FF04462046A5
:1027900010BD70B500254AF6FF7400E0641E7D4848
:1027A000006838B97548006820B97348007808B9DE
:1027B000002CF3D10020774908604AF6FF7400E04E
:1027C000641E7048406B10F4005F01D0002CF7D1FC
:1027D0006B480068012802D1FFF7C4FF05460CB919
:1027E00005B9042540F2FF50FEF78AFB62480078E5
:1027F00010B16148007870BD2846FCE72DE9F04132
:10280000804614461D46069E4FF0000738465A493A
:1028100008705A4908605A4908605A49C8625A48BB
:102820000068022808D10602020200232046294639
:1028300003F0C6FD04460D46544806601020534977
:102840004860402088600020C8604FF480600861C4
:102850000846FEF7D9FA1020FEF7EDFE074617B13D
:102860003846BDE8F081494804601820474948606F
:10287000402088600020C8604FF4806008610846EE
:10288000FEF7C2FA1820FEF7D6FE07460FB138460B
:10289000E7E74AF6FF703E49086008464660902028
:1028A00088600020C8600861012048610846FEF782
:1028B000D4FA012140F22A30FEF796FA314640461A
:1028C000FEF750FE0120FEF79CFA3846C9E72DE9D5
:1028D000F047814615461E46DDE908784FF00004B2
:1028E000204625490870254908604FF00100244919
:1028F00008604FF000002349C8622348006802289E
:1029000008D10702020200232846314603F058FD91
:1029100005460E461D48076010201C4948604020AF
:1029200088600020C8604FF4806008610846FEF7A8
:102930006BFA1020FEF77FFE044614B12046BDE876
:10294000F087154800880004104908603720486067
:10295000402088600020C8604FF48060086108460D
:10296000FEF752FA3720FEF766FE0446B4B1204661
:10297000E5E70000A8000020340000203800002017
:1029800030000020008001402800002028010020A5
:102990003C0100203C0000202C000020FA48C0F838
:1029A00000801720F8494860402088600020C860F7
:1029B0004FF4806008610846FEF726FA1720FEF7FC
:1029C0003AFE04460CB12046B9E7EF4805601920ED
:1029D000ED494860402088600020C8604FF4806066
:1029E00008610846FEF710FA1920FEF724FE044697
:1029F0000CB12046A3E74AF6FF70E449086008FBE3
:102A000007F04860902088600020C86008610120BD
:102A100048610846FEF721FA012140F22A30FEF70C
:102A2000E3F90120FEF7EDF908FB07F14846FEF750
:102A300099FD204683E770B500254AF6FF7400E053
:102A4000641ED348006838B9D248006820B9D2481B
:102A5000007808B9002CF3D10020CD4908604AF66F
:102A6000FF7400E0641ECD48406B10F4805F01D01D
:102A7000002CF7D1CA480068012802D1FFF772FE86
:102A800005460CB905B9042540F2FF50FEF738FAA7
:102A9000C148007810B1C048007870BD2846FCE7F6
:102AA000BE48406B10F4405F01D001207047002009
:102AB000FCE77CB504460025002001900090B94851
:102AC00000880004B04908600D20486040208860FC
:102AD0000020C8604FF4806008610846FEF794F952
:102AE000AE48406B009002E0AC48406B009000980C
:102AF00010F0450FF8D0009810F0040F05D0032512
:102B00000420FEF7FDF928467CBD009810F0010F67
:102B100005D001250120FEF7F3F92846F4E7FEF77A
:102B20008DF9009000980D2802D010252846EBE77B
:102B300040F2FF50FEF7E4F90020FEF783F9019020
:102B40000198C0F34320207097490198084201D1B1
:102B50002846D9E7019810F0004F01D01C20D3E798
:102B6000019810F0804F01D00920CDE7019810F0B6
:102B7000005F01D00A20C7E7019810F0805F01D004
:102B80000B20C1E7019810F0006F01D00C20BBE7CB
:102B9000019810F0806F01D00D20B5E7019810F07A
:102BA000807F01D00E20AFE7019810F4000F01D014
:102BB0000F20A9E7019810F4800F01D01020A3E79F
:102BC000019810F4001F01D011209DE7019810F426
:102BD000801F01D0122097E7019810F4002F01D038
:102BE000132091E7019810F4802F01D014208BE777
:102BF000019810F4003F01D0152085E7019810F4EA
:102C0000803F01D016207FE7019810F4004F01D0DB
:102C1000172079E7019810F4804F01D0182073E74E
:102C2000019810F4005F01D019206DE7019810F0B1
:102C3000080F01D01A2067E7284665E72DE9FC4117
:102C400006460F46002400250020019000905748BA
:102C50004068202111EA105F03D125242046BDE8F9
:102C6000FC814E484068C0B2801C5149B1FBF0F075
:102C700001900020FEF7E6F810F0007F02D00E244D
:102C80002046ECE74B480068022801D1760A7F0A0B
:102C90004848006838B147480068012803D04548D3
:102CA000006802282BD13848066020203649486049
:102CB000402088600020C8604FF4806008610846AA
:102CC000FEF7A2F82020FEF7B6FC04460CB1204621
:102CD000C5E72D48076021202B49486040208860C7
:102CE0000020C8604FF4806008610846FEF78CF849
:102CF0002120FEF7A0FC04460CB12046AFE70020DF
:102D00002149086026204860402088600020C86073
:102D10004FF4806008610846FEF776F82620FEF73B
:102D20008AFC04460CB1204699E7002500E06D1CA2
:102D300001988542FBD36846FFF7BBFE04464AF67E
:102D4000FF7504E06846FFF7B4FE04466D1E45B10A
:102D50003CB99DF800000728F4D09DF80000062833
:102D6000F0D020467BE710B54FF48070FEF7CBF82B
:102D700010B30020084908704FF48070FEF7CDF8BA
:102D80000120044908604FE0280100203C01002098
:102D90003C0000203800002034000020008001406A
:102DA000300000202C00002008E0FFFD88000020FB
:102DB000C0D40100280000200220FEF7A4F830B1A2
:102DC0000220FEF7AAF80220264908702CE008200D
:102DD000FEF799F830B10820FEF79FF8042021494A
:102DE000087021E02020FEF78EF830B12020FEF799
:102DF00094F806201B49087016E01020FEF783F8AF
:102E000030B11020FEF789F80520164908700BE054
:102E10004FF40070FEF777F830B14FF40070FEF712
:102E20007CF807200F49087000214CF23A30FDF77A
:102E3000DBFF0C48007810BD10B50B4800680B494B
:102E4000084205D001200A4908600A48FDF7E3FB63
:102E500010BD0146002002E04910421CD0B20129F9
:102E6000FAD1704734000020000402400020001016
:102E70003C00002000F0001000B585B001210420C6
:102E8000FDF70CFF01214804FDF715FF0420ADF804
:102E9000100018208DF8130003208DF8120004A9EB
:102EA0007D48FDF745FC0820ADF8100004208DF8A2
:102EB000130004A97848FDF73BFC4FF4165000902E
:102EC0000020ADF80400ADF80600ADF80800ADF83C
:102ED0000C000C20ADF80A0069467048FEF775F842
:102EE00001216E48FEF7FDF805B000BDF0B50346C0
:102EF0000D461646002729460A2E03D000200870EA
:102F00002846F0BD33B9302001F8010B00200870CD
:102F10002846F6E7002B03DA2D2001F8010B5B426F
:102F200042F210720DE093FBF2F404B937B104F1F0
:102F3000300001F8010B04FB123301270A2092FB39
:102F4000F0F2002AEFDC002008702846D9E710B51F
:102F500053480078FF2811DA40F225514F48FEF718
:102F6000B1F958B14D48FEF72DF94E494C4A127847
:102F700088544B480078401C4949087010BD0146F0
:102F80004748007808704748704700204449087057
:102F900070470FB470B586B006460CA8019073E078
:102FA0000B9800785C281CD10B98401C0B90007883
:102FB0006E2809D072280FD10D213046FEF7FEF899
:102FC0000B98401C0B900BE00A213046FEF7F6F8F8
:102FD0000B98401C0B9003E00B98401C0B9000BF1B
:102FE0004BE00B980078252840D10B98401C0B90A3
:102FF0000078642818D0732833D1019810C8019044
:103000000BE021783046FEF7D9F800BF802130462A
:10301000FEF742F90028F9D0641C20780028F0D18E
:103020000B98401C0B9020E0019820C801900A22C8
:1030300002A92846FFF75AFF02AC0BE02178304680
:10304000FEF7BCF800BF80213046FEF725F90028C6
:10305000F9D0641C20780028F0D10B98401C0B900C
:1030600003E00B98401C0B9000BF06E00B9810F893
:10307000011B0B903046FEF7A1F800BF80213046BF
:10308000FEF70AF90028F9D00B980078002887D1BC
:1030900006B070BC5DF814FB00080140004400401D
:1030A000400000205401002008B54FF4C060FDF737
:1030B00049F910208DF8000001208DF80100002052
:1030C0008DF8020001208DF803006846FDF73FF9F6
:1030D00008BD10B54FF48000FDF7A8FA30B101200B
:1030E0008B4908708005FDF796FA0AE04FF400104E
:1030F000FDF79CFA28B10120864908704005FDF7CC
:103100008AFA10BD00B58BB001210846FDF7B9FD64
:103110008148009081480190002002904FF4007097
:1031200003900020049080200590002006900790D6
:1031300020200890C001099000200A906946784834
:10314000FDF710FAFFF7B0FF012206217448FDF7E2
:1031500040FA01217248FDF730FA012240216E4801
:10316000001FFDF7EFFF0BB000BD10B5FFF784FEA9
:10317000FFF7C8FF10BD70477047024602F5FA61BD
:1031800011F0030F10D14FF4C87091FBF0F300FB66
:10319000131028B1642091FBF0F300FB131008B169
:1031A000012070470020FCE70020FAE72DE9FF4FDF
:1031B00081B080468946164616B905B0BDE8F08F45
:1031C0000C2E00DDF9E7D8F800A0D8F80440D8F8B4
:1031D0000850D8F80C70D8F810B0D8F81400009047
:1031E0000498002844D0B819182801D2374480E048
:1031F000B819A0F11807012C09D0032C07D0052C11
:1032000005D0072C03D0082C01D00A2C06D11F2D85
:1032100001D26D1C6DE00125641C6AE0042C05D010
:10322000062C03D0092C01D00B2C06D11E2D01D267
:103230006D1C5EE00125641C5BE0022C0DD11D2D90
:1032400006D01C2D07D10AF0FF00FFF796FF10B93A
:103250000125641C4DE06D1C4BE00C2C49D11F2D49
:1032600001D26D1C45E0012501240AF1010A40E06C
:10327000B74201D3BF1B3CE007F11800871B022CAB
:1032800009D0042C07D0062C05D0082C03D0092C1B
:1032900001D00B2C06D1012D01D96D1E29E01F256F
:1032A000641E26E0052C05D0072C03D00A2C01D083
:1032B0000C2C06D1012D01D96D1E1AE01E25641EAD
:1032C00017E0032C0BD1012D07D10AF0FF00FFF707
:1032D00054FF10B91C25641E0BE06D1E09E0012C83
:1032E00007D1012D01D96D1E03E01F250C24AAF181
:1032F000010AC9F800A0C9F80440C9F80850C9F883
:103300000C70C9F810B00098C9F8140000BF54E759
:1033100042000020410000200444004053020020ED
:103320006C00024030B5ADF6AC1D4A49002001F0FA
:1033300087FB012248A14C4801F095FB4B490870DE
:103340000846007828B14A4803F028FE0DF6AC1D67
:1033500030BD02F01FF84749016002F01BF84649F2
:1033600041600DF5046002F06BF80DF62C0002F0E0
:10337000BBFC56E0414B642204A93B4801F033FCFE
:103380000DF504633D4804A902680DF62C0002F017
:1033900027FE012308220DF501610DF64400FFF719
:1033A00005FF0DF61C0106C9DDF82408CDE9001261
:1033B00002900DF6140009C8421CDDF8100800F256
:1033C0006C712FA003F0EAFD0DF6880003C8CDE96B
:1033D0000001DDF88048224630A0DDF8843803F093
:1033E000DDFD0DF50460426F31A0DDF8B01803F08B
:1033F000D5FDDDF89048224636A0DDF8943803F07C
:10340000CDFDDDF89848224637A0DDF89C3803F062
:10341000C5FDDDF8A048224638A0DDF8A43803F049
:10342000BDFD114880681049C968884201D101205A
:1034300000E0002000289DD00B48C16801F025FE67
:103440000DF62C0002F08CFC074801F013FE00BFC3
:103450007CE7000054040020303A6770736C6F679B
:103460002E747874000000008406002044000020C0
:10347000D079000877310008793100084800002031
:103480000D0ACAB1BCE425642C25642C25642C25C6
:10349000642C25642C25640D0A0000000D0ACEB3AF
:1034A000B6C8A3BA25662CBEADB6C825660D0A00FF
:1034B0000D0AD5FDD4DACAB9D3C3B5C4CEC0D0C7BE
:1034C000A3BA25642CBFC9BCFBCEC0D0C7A3BA2504
:1034D000640000000D0ABAA3B0CEB8DFB6C8A3BA24
:1034E000256620C3D72000000D0ACBD9B6C8A3BAE1
:1034F0002566206B6D2F6820000000000D0ABABD04
:10350000CFF2A3BA256620B6C800000070B5054604
:103510000DB1012070BDFEF79EFE04460CB10120E6
:10352000F8E70020F6E70146002070472DE9FC414E
:1035300007460E4614461D46012D11DD4FF400705E
:1035400061020A460023CDE900053046FFF799F8ED
:10355000FFF71FF900BFFEF7FCFE0028FBD10FE0CC
:103560004FF4007061020A46002300903046FFF7D6
:103570001EF8FFF70EF900BFFEF7EBFE0028FBD1A7
:103580000020BDE8FC812DE9FC4107460E461446AB
:103590001D46012D11DD4FF4007061020A46002323
:1035A000CDE900053046FFF792F9FFF744FA00BF76
:1035B000FEF7CFFE0028FBD10FE04FF40070610250
:1035C0000A46002300903046FFF718F9FFF733FA58
:1035D00000BFFEF7BEFE0028FBD10020BDE8FC8145
:1035E00003460020704700207047000070B5034676
:1035F0000C4603E014F8015B03F8015B1500A2F12F
:103600000102F7D170BD30B5034601E003F8011B9C
:103610001400A2F10102F9D130BDF0B503461C46F9
:103620000D46002000BF1600A2F1010207D014F8D9
:10363000017B15F801CBA7EB0C063000F3D0F0BDF1
:10364000024600E0521C107810B110788842F9D17F
:10365000107870472DE9F04104460D46E66AAE4207
:103660002FD0207908B360780123324604F130016D
:10367000FFF789FF10B10120BDE8F0810020207123
:10368000D4E907100844B0420FD9E7780AE0E069AE
:10369000064460780123324604F13001FFF773FFDE
:1036A000781EC7B2012FF2DC00BF55B1607801234C
:1036B0002A4604F13001FFF739FF08B10120DBE7AA
:1036C000E5620020D8E770B5044600212046FFF7E8
:1036D000C1FF0546002D59D1207803284FD16079CC
:1036E00000284CD00020E0624FF40072002104F169
:1036F0003000FFF788FF552184F82E12AA2184F8A4
:103700002F12522084F830005221312001556121BE
:1037100032200155412133200155722184F81412C1
:1037200084F81512412184F81612612184F81712C9
:10373000217C84F81812208A010A84F81912206961
:10374000010C84F81A122069010E84F81B12217BE7
:1037500084F81C12A089010A84F81D12E068010C8B
:1037600084F81E12E068010E84F81F1260780123AD
:1037700004F130016269FFF706FF00206071607894
:1037800000221146FFF72CFF00B10125284670BD2D
:103790000246891E9069801E884201D80020704729
:1037A0009378906A01FB0300F9E72DE9F0410546A3
:1037B0000C46022C02D3A869A04202D80120BDE821
:1037C000F0812878012804D002282CD003285AD16F
:1037D0003DE0274607EB5707286A00EB57212846AC
:1037E000FFF738FF00B14EE0C7F3080105F13000E4
:1037F00010F801807F1C286A00EB57212846FFF74C
:1038000029FF00B13FE0C7F3080105F13000405C3B
:1038100048EA002814F0010F02D04FEA1810CEE752
:10382000C8F30B00CBE7286A00EB14212846FFF70A
:1038300011FF00B127E040F2FF1000EA440105F15A
:1038400030000E183078717840EA0120B7E7286A16
:1038500000EBD4112846FFF7FDFE00B113E040F263
:10386000FF1000EA840105F130000E18F078000620
:10387000B17840EA0140717840EA0120317808438C
:1038800020F070409BE700BF4FF0FF3097E72DE935
:10389000F04705460E461746022E02D3A869B042ED
:1038A00002D84FF002088CE02878012804D00228C2
:1038B00043D003287FD156E0B14609EB5909286A65
:1038C00000EB59212846FFF7C5FE8046B8F1000FEE
:1038D00000D073E0C9F3080105F130000C1816F0B0
:1038E000010F04D0F9B2207861F31F1000E03846D0
:1038F000207009F1010901202871286A00EB592183
:103900002846FFF7A7FE8046B8F1000F00D055E02B
:10391000C9F3080105F130000C1816F0010F02D0B0
:10392000C7F3071007E0207800F0F000C7F3072185
:1039300001F00F010843207040E0286A00EB1621D7
:103940002846FFF787FE8046B8F1000F00D035E02B
:1039500040F2FF1000EA460105F130000C18277014
:10396000380A60702AE0286A00EBD6112846FFF773
:1039700071FE8046B8F1000F00D01FE040F2FF104A
:1039800000EA860105F130000C18E0780006A17805
:1039900040EA0140617840EA01202178084300F0C4
:1039A000704007432770380A6070380CA070380EDA
:1039B000E07003E0FFE74FF0020800BF00BF012006
:1039C00028714046BDE8F0872DE9F04104460E46D7
:1039D000022E02D3A069B04201D8022725E00027B9
:1039E0001FE031462046FFF7E0FE054605B91BE023
:1039F000012D01D1022717E0681C01D1012713E036
:103A0000002231462046FFF742FF074607B10BE090
:103A10002069401C04D02069401C20610120607195
:103A20002E46A069B042DCD800BF3846BDE8F08120
:103A30002DE9F04704468946B9F1000F06D1E76841
:103A400017B1A069B84211D801270FE049462046B6
:103A5000FFF7ABFE0646022E02D20120BDE8F0873A
:103A6000A069B04201D93046F8E74F463D4600BF55
:103A70006D1CA069A84204D80225BD4201D90020CE
:103A8000ECE729462046FFF790FE064606B909E016
:103A9000701C01D0012E01D13046DFE7BD42E7D1D5
:103AA0000020DBE700BF6FF0704229462046FFF799
:103AB000EEFE8046B8F1000F08D1B9F1000F05D035
:103AC0002A4649462046FFF7E2FE8046B8F1000F3D
:103AD00009D1E5602069401C0DD02069401E20619D
:103AE0000120607107E0B8F1010F02D14FF0FF3003
:103AF00000E0012005462846B0E72DE9F0410446E4
:103B00000E46E680A568012D03D020688069A84292
:103B100002D80220BDE8F0812DB920680078032882
:103B200001D12068456A65B9E56020680089B04226
:103B300001DC0220EEE72068406A00EB16102061ED
:103B400020E020688078070112E029462068FFF70E
:103B50002CFE0546681C01D10120DBE7022D03D3B2
:103B600020688069A84201D80220D3E7F01B86B202
:103B7000BE42EADAE56029462068FFF709FE00EB5D
:103B8000161020612068303006F00F0100EB411064
:103B900060610020BEE72DE9F0410446884600BF81
:103BA000E088401C86B20EB1206910B90420BDE83F
:103BB000F08116F00F0F6ED12069401C2061E06883
:103BC00028B920680089B04265DC0420EFE720684E
:103BD0008078401E10EA161F5DD1E1682068FFF76B
:103BE000E4FD0546012D01D80220E0E7681C01D163
:103BF0000120DCE720688069A84246D8B8F1000FB0
:103C000001D10420D3E7E1682068FFF711FF0546E2
:103C10000DB90720CBE7012D01D10220C7E7681CB1
:103C200001D10120C3E700212068FFF713FD08B18F
:103C30000120BCE7216801F130004FF4007200213F
:103C4000FFF7E1FC29462068FFF7A2FD2168C86262
:103C5000002710E001202168087100212068FFF78B
:103C6000F9FC08B10120A2E72068C06A401C216865
:103C7000C862781CC7B220688078B842EADC206845
:103C8000C06AC01B2168C86200BFE5602946206881
:103C9000FFF77EFD2061E6802068303006F00F01DE
:103CA00000EB41106061002081E72DE9F0470546F7
:103CB0000C46207820F04000401E00EB800101EB14
:103CC000C00600274FF0010800BFFA48C05D205C25
:103CD000F849C95D2144497840EA0129B8F1000F4B
:103CE00010D0484601F039FB8046FF2E07D23146FE
:103CF000761C35F8110001F030FB404508D000205B
:103D0000BDE8F087A9F57F40FF3801D00020F7E734
:103D1000781C07460D28D8D3207810F0400F07D024
:103D2000B8F1000F04D035F8160008B10020E7E71D
:103D30000120E5E7F0B50346087800F03F00401E9B
:103D400000EB800707EBC0020025012600BFD94821
:103D5000405D085CD74F7F5D0F447F7840EA0724C1
:103D60004EB1FF2A01D30020F0BD26461046521C5A
:103D700023F8104005E0A4F57F40FF3801D0002073
:103D8000F2E7681C05460D28E1D3087810F0400FD3
:103D900006D0FF2A01D30020E6E7002023F8120016
:103DA0000120E1E7F0B504461D464D730F27CF72A1
:103DB00000270F738F76BC4681F81BC0571E07EB98
:103DC000870C0CEBC706002738463B4600BFA0F522
:103DD0007F47FF3F03D03746761C34F81700DFF8E3
:103DE000D4C21CF803C001F80C000712DFF8C4C2EB
:103DF0001CF803C08C448CF8017008B94FF6FF70B2
:103E00005F1C3B460D2FE2D3A0F57F47FF3F02D05A
:103E100034F816700FB942F040020A70F0BD2DE977
:103E2000FC4780468A4617461C460B2251464046B0
:103E3000FFF7DCFB052C0ADD00BF601000EBC4318E
:103E400037F8022B881884B238880028F5D1072566
:103E500000BF2046E11704EB11710911A4EB011119
:103E6000303101F0FF09B9F1390F03DD09F1070025
:103E700000F0FF0928466D1E0DF800902046E1175E
:103E800004EB1171C1F30F14002CE2D17E200DF868
:103E90000500002600E0761CAE4203D218F80600AA
:103EA0002028F8D100BF082D04D228466D1C1DF82B
:103EB000000000E020203146761C08F80100082EA2
:103EC000F1D3BDE8FC8730B5014600200B2200BFCE
:103ED000431003EBC01411F8015B6319D8B2531EF1
:103EE0001A00F5D130BD2DE9F047044600212046E7
:103EF000FFF703FE074617B13846BDE8F0874FF0DD
:103F0000FF09CA4600BF21692068FFF7A3FB0746E7
:103F100007B154E065692E780EB904274FE0E87ABE
:103F200000F03F08E52E05D018F0080F05D0B8F1D5
:103F30000F0F02D04FF0FF093AE0B8F10F0F1CD17C
:103F4000E069A0B316F0400F06D095F80DA026F05A
:103F50004006B146E08820844E450AD1687B504532
:103F600007D12946E069FFF7A0FE10B1A9F10100D1
:103F700000E0FF2000F0FF091AE0B9F1000F05D1C1
:103F80002846FFF7A0FF504500D118E04FF0FF0989
:103F90004FF6FF702084A069C07A10F0010F07D19E
:103FA0000B222846A169FFF738FB00B907E0FFE7BD
:103FB00000212046FFF7EFFD0746002FA3D000BFEA
:103FC00038469AE72DE9F04704464FF0FF09CA4604
:103FD00004274CE021692068FFF73CFB074607B146
:103FE00048E0666935780DB9042743E0F07A00F0BF
:103FF0003F08E52D07D02E2D05D018F0080F05D06D
:10400000B8F10F0F02D04FF0FF0929E0B8F10F0F00
:104010001AD115F0400F06D096F80DA025F04005F6
:10402000A946E08820844D450AD1707B504507D1D0
:104030003146E069FFF77EFE10B1A9F1010000E012
:10404000FF2000F0FF090BE0B9F1000F04D130466A
:10405000FFF739FF504502D04FF6FF70208409E08A
:1040600000212046FFF797FD074607B102E02069CF
:104070000028AFD100BF0FB1002020613846BDE855
:10408000F0872DE9F04F85B00446D4F81880D4F8B5
:104090001CB00C22414601A8FFF7A8FA00BF9DF80A
:1040A0000F0010F0010F28D0002088F80B00E0610D
:1040B00001270FE0187A00083B465A4601A94046FE
:1040C000FFF7ADFE2046FFF70EFF054605B103E002
:1040D000781C87B2642FEFDB00BF642F03D1072069
:1040E00005B0BDE8F08F042D01D02846F8E79DF813
:1040F0000F0088F80B00C4F81CB09DF80F0010F0FA
:10410000020F0ED0002601E0701C86B23BF81600AC
:104110000028F9D106F119000D2190FBF1F086B2CB
:1041200000E0012600212046FFF7E7FC05460DB11F
:104130002846D5E700200746049000BF2169206883
:10414000FFF788FA054605B119E0606990F800901C
:10415000B9F1E50F02D0B9F1000F08D10FB9E0882D
:104160000490781C80B20746B04201D107E00027D6
:1041700001212046FFF70FFD0546002DDED000BFD0
:104180004DBB012E27DD20460499FFF7B6FC0546FE
:104190000DBBA069FFF797FE0090701E86B200BFAE
:1041A00021692068FFF756FA054605B112E0F2B220
:1041B0006169E069009BFFF7F5FD01202168087146
:1041C00000212046FFF7E7FC05461DB9701E80B2AE
:1041D0000600E5D100BFD5B921692068FFF73AFA9A
:1041E0000546A5B9D4F814A0202200215046FFF7B7
:1041F0000AFA0B225046A169FFF7F8F9A069C07AC4
:1042000000F018008AF80C00012021680871284687
:1042100066E72DE9F34F83B082460498D0F800B0EA
:1042200001E00BF1010B9BF800002F28F9D09BF85F
:1042300000005C28F5D0DAF81C9000252E4600BF5F
:104240003046761C1BF80040202C03DB2F2C01D0BD
:104250005C2C00D11CE0FF2D03D3062005B0BDE887
:10426000F08FE4B20121204601F054F804460CB965
:104270000620F3E7802C06DA2146FEA0FFF7E0F9DE
:1042800008B10620EAE728466D1C29F81040D7E758
:1042900000BF0BEB060104980160202C01DA04201A
:1042A00000E00020074608E0681E39F81040202C86
:1042B00002D02E2C00D002E06D1E002DF4D100BFE4
:1042C0000DB90620CAE7002029F815000B2220218D
:1042D000DAF81800FFF797F9002600E0761C39F8A5
:1042E00016002028FAD039F816002E28F6D00EB184
:1042F00047F0030700E06D1E25B1681E39F8100075
:104300002E28F8D14FF00008CDF808800820019041
:1043100000BF3046761C39F8104004B955E0202C17
:1043200003D02E2C04D1AE4202D047F00307F0E7B1
:10433000DDE90110884201D2AE4216D101980B2866
:1043400002D147F0030740E0AE4201D047F0030737
:10435000AE4200D939E02E46082002900B20019091
:104360004FEA88604FEA1068D3E7802C0BDB00210E
:10437000204600F0CFFF04461CB1A4F18000C049E4
:104380000C5C47F0020700BF24B12146BDA0FFF737
:1043900057F918B15F2447F003070FE0412C04DB05
:1043A0005A2C02DC48F0020808E0612C06DB7A2C6B
:1043B00004DC48F00108A4F1200084B2DAF81830D7
:1043C0000298411C02911C54A3E700BFDAF81800C0
:1043D0000078E52803D10520DAF818100870019854
:1043E000082803D14FEA88604FEA106808F00C00F3
:1043F0000C2803D008F00300032801D147F002077E
:1044000017F0020F0BD108F00300012801D147F08B
:10441000100708F00C00042801D147F00807DAF86B
:104420001800C772002019E72DE9FC5F81460E468F
:1044300006F10908D9F81000002851D0D9F8144025
:10444000207B0190002714E0E55D202D00D112E0D3
:10445000052D00D1E525019810F0080F06D0412D5B
:1044600004DB5A2D02DC05F12000C5B208F8015B1F
:104470007F1C082FE8D300BF207A202819D02E20D7
:1044800008F8010B082711E0E55D202D00D10FE0B1
:10449000019810F0100F06D0412D04DB5A2D02DCDC
:1044A00005F12000C5B208F8015B7F1C0B2FEBD390
:1044B00000BFE07A3072E07F0106A07F41EA004150
:1044C000607F41EA0020217F08433060217E607ECA
:1044D00041EA0020B080A17DE07D41EA0020F0802B
:1044E000002088F80000B06980B3F06970B3B0694B
:1044F00000900027D9F8100020B3B9F82000A0F5EB
:104500007F41FF391ED0D9F81CB015E0002150467C
:1045100000F000FF8246BAF1000F01D1002710E041
:1045200000BFF069401EB84201D8002709E03846B4
:104530007F1C009901F800A03BF8021B5FEA010A0A
:10454000E4D100BF00210098C15500BFBDE8FC9F29
:104550002DE9F3410446019800782F2803D00198F3
:1045600000785C2802D10198401C01900020A060D6
:1045700001980078202807D200212046FFF7BDFAD5
:104580000646002060612FE000BF01A92046FFF72A
:1045900040FE064606B126E02046FFF7A4FC06468C
:1045A000A069C77A46B1042E00D01CE000BF17F006
:1045B000040F00D1052616E017F0040F00D012E01A
:1045C0006569E87A10F0100F01D105260BE0A97E8D
:1045D000E87E41EA00212A7D687D42EA002041EA26
:1045E0000040A060D1E700BF3046BDE8FC8170B557
:1045F00004460D46607801232A4604F13001FEF797
:1046000095FF08B1032070BD94F82E1294F82F0284
:1046100041EA0020A0F52A41553901D00220F2E7F5
:1046200094F86900010694F8680041EA004194F8A2
:10463000670041EA002094F86610084320F07F40AC
:104640001249884201D10020DDE794F88500010677
:1046500094F8840041EA004194F8830041EA002084
:1046600094F88210084320F07F40084988420FD117
:104670000020C8E7222A3A3C3E3F7C7F0000000031
:10468000257A00082B2C3B3D5B5D00004641540021
:104690000120B8E72DE9F74F88B00898006801902D
:1046A0000198007830380790079809280AD80198AF
:1046B00040783A2806D10198801C01900899019809
:1046C000086001E000200790079818B10B200BB09C
:1046D000BDE8F08FFA49079851F820400998046026
:1046E0000CB90C20F3E7207878B16078FEF71BFF57
:1046F000804618F0010F08D10A9820B118F0040F75
:1047000001D00A20E3E70020E1E7002020700798AD
:1047100060706078FEF7FAFE804618F0010F01D055
:104720000320D4E70A9820B118F0040F01D00A2022
:10473000CDE74FF0000B59462046FFF758FF0546DE
:1047400000BF012D21D14FF0000ABAF1000F03D0B4
:10475000AAF1010000F0FF0A4FF4DF7000EB0A112C
:1047600004F130000F18387978B1F87A0106B87A78
:1047700041EA0041787A41EA0020397A40EA010BA7
:1047800059462046FFF733FF0546032D01D101208E
:104790009DE70DB10D209AE73B20015D94F83C00A8
:1047A00041EA0020B0F5007F01D00D208FE74620C0
:1047B000015D94F8470041EA0029B9F1000F0ED1DC
:1047C00094F85700010694F8560041EA004194F825
:1047D000550041EA002094F8541040EA0109C4F859
:1047E0001C904020065DE670012E03D0022E01D001
:1047F0000D206CE709FB06F93D20005D0646A07020
:1048000016B1701E304201D00D2060E74120015DDD
:1048100094F8420041EA00202081207A10F00F0F26
:1048200001D00D2053E74320015D94F8440041EA94
:1048300000200690069870B994F85300010694F889
:10484000520041EA004194F8510041EA002094F8F6
:104850005010084306903E20015D94F83F0041EA65
:1048600000200290029808B90D2030E702984844D1
:10487000218900EB11100590DDE90501814201D28B
:104880000D2024E7DDE90510401AA178B0FBF1F016
:104890000490049808B90D2019E7012540F6F67137
:1048A0000498884200D302254FF6F6710498884296
:1048B00000D303250498801CA06105985844A06289
:1048C000029858442062032D16D1208908B10D208A
:1048D000FDE694F85F00010694F85E0041EA0041AD
:1048E00094F85D0041EA002094F85C10084360628F
:1048F000A0698000039014E0208908B90D20E6E645
:10490000206A48446062022D02D1A069400007E09D
:10491000207E00F00100A16901EB410100EB510094
:104920000390E169039800F2FF10B1EB502F01D220
:104930000D20CCE64FF0FF3020610020E060032D19
:104940005CD1607194F8601094F8610041EA002035
:10495000584460616078012304F130016269FEF718
:10496000E5FDE8BB94F82E1294F82F0241EA0020EE
:10497000A0F52A41553941D13320005D010632208E
:10498000005D41EA00413120005D41EA002094F8D9
:10499000301008434B49884230D194F81702010681
:1049A00094F8160241EA004194F8150241EA002009
:1049B00094F814120843444988421FD194F81F0206
:1049C000010694F81E0241EA004194F81D0241EAF2
:1049D000002094F81C120843E06094F81B0200E0E9
:1049E0000CE0010694F81A0241EA004194F8190219
:1049F00041EA002094F818120843206125703348DA
:104A00000088401C80B231490880E0800020E062CC
:104A1000207100BF5BE670B504460D4624B12078D6
:104A200010B1E088A84201D0092070BD6078FEF77F
:104A30007AFD10F0010F01D00320F6E70020F4E723
:104A40000246012A01DB0B2070471D4850F8223036
:104A50000BB10020187009B100200870184840F808
:104A600022100020F0E72DE9F743ADF50C7D054657
:104A700016460020286006F01F0626F0010283A9D2
:104A80008DA8FFF707FE074680A88990CDF828D2A9
:104A900027B983A88D99FFF75BFD0746889C0FB95E
:104AA00004B9062716F01C0F5FD08FB1042F03D175
:104AB00083A8FFF7E6FA074646F00806889C11E04F
:104AC0005000002052526141727241615400002036
:104AD000E07A10F0110F01D0072703E016F0040F61
:104AE00000D00827002F3FD116F0080F3CD0FEF76A
:104AF0007AFD804684F80E804FEA1821E1734FEA70
:104B0000184121744FEA186161740020E072207727
:104B100000216177A177E177A17EE07E41EA002163
:104B2000227D607D42EA002041EA00490020A07613
:104B30000021E17620756175012083990871B9F132
:104B4000000F11D08398D0F82C8049468398FEF747
:104B50003BFF074647B9A9F101008399C860414668
:104B60008398FEF777FD07460EE06FB9E07A10F004
:104B7000100F01D0042707E016F0020F04D0E07AEE
:104B800010F0010F00D0072747B916F0080F01D029
:104B900046F020068398C06AE8612C62F7B9AE71CE
:104BA000A17EE07E41EA0021227D607D42EA002074
:104BB00041EA00402861E07F0106A07F41EA004110
:104BC000607F41EA0020217F0843E8600020A86060
:104BD000A861839828608398C088A88038460DF51E
:104BE0000F7DBDE8F0832DE9FF4F83B004461546E5
:104BF0009A46DDF810B00020CAF80000A1882068AD
:104C0000FFF709FF0290029818B1029807B0BDE8BB
:104C1000F08FA07910F0800F01D00220F6E7A07984
:104C200010F0010F01D10720F0E7D4E90210401A7B
:104C300000900098854200D9009DB5E02089C0050C
:104C4000C00D7DD120688078401EA16800EA512007
:104C500000F0FF09B9F1000F1DD1A06810B920695B
:104C6000019004E061692068FEF79FFD01900198C2
:104C7000022805D2A07940F08000A0710220C5E78B
:104C80000198401C05D1A07940F08000A07101205E
:104C9000BCE70198606161692068FEF779FD06460E
:104CA0002EB9A07940F08000A0710220AEE74E44FA
:104CB0004FEA5528B8F1000F2DD009EB0800216804
:104CC0008978884203D920688078A0EB090808F029
:104CD000FF032168487832465946FEF727FC28B181
:104CE000A07940F08000A07101208FE7A07910F03A
:104CF000400F0DD0A069801B404509D2A169891BD6
:104D00000BEB41204FF4007204F12401FEF76EFC1E
:104D10004FEA48273EE0A069B04227D0A07910F0C2
:104D2000400F14D021684878012304F12401A269BE
:104D3000FEF729FC38B1A07940F08000A07100E0B6
:104D400015E0012062E7A07920F04000A071216801
:104D500048780123324604F12401FEF7E7FB28B12D
:104D6000A07940F08000A07101204FE7A661208962
:104D7000C0F30800C0F50077AF4200D92F46208964
:104D8000C0F3080204F1240011183A465846FEF711
:104D90002DFC00BFBB44A0683844A060DAF80000D6
:104DA0003844CAF80000ED1B002D7FF447AF002007
:104DB0002CE72DE9FF4F83B0044615469B46049827
:104DC00001900020CBF80000A1882068FFF723FEA7
:104DD0000290029818B1029807B0BDE8F08FA07950
:104DE00010F0800F01D00220F6E7A07910F0020F3A
:104DF00001D10720F0E7E0682844E168884200D24A
:104E00000025CCE02089C005C00D77D120688078CE
:104E1000401EA16800EA512000F0FF0ABAF1000F1D
:104E20002AD1A06858B9D4F81080B8F1000F0BD17E
:104E300000212068FEF7FCFD8046206104E06169E6
:104E40002068FEF7F5FD8046B8F1000F00D1A9E01B
:104E5000B8F1010F05D1A07940F08000A0710220C7
:104E6000BAE718F1010005D1A07940F08000A071E7
:104E70000120B1E7C4F81480A07910F0400F12D0DF
:104E800021684878012304F12401A269FEF77BFB25
:104E900028B1A07940F08000A07101209CE7A079A2
:104EA00020F04000A07161692068FEF771FC0646A1
:104EB0002EB9A07940F08000A07102208CE7564402
:104EC0004FEA5529B9F1000F2FD00AEB09002168EC
:104ED0008978884203D920688078A0EB0A0909F014
:104EE000FF032168487832460199FEF74CFB30B148
:104EF000A07940F08000A07101206DE72CE0A0694E
:104F0000801B48450ED2A069801B019A02EB40210C
:104F10004FF4007204F12400FEF768FBA07920F042
:104F20004000A0714FEA49272DE0A069B04212D09D
:104F3000D4E9020188420ED2216848780123324622
:104F400004F12401FEF7F2FA28B1A07940F08000C4
:104F5000A071012040E7A6612089C0F30800C0F5D8
:104F60000077AF4200D92F462189C1F3080204F12E
:104F7000240150183A460199FEF738FBA07940F019
:104F80004000A07100BF019838440190A0683844E7
:104F9000A060DBF800003844CBF80000ED1B002DCA
:104FA0007FF430AF00BFD4E90201884201D9A06884
:104FB000E060A07940F02000A07100200CE72DE90E
:104FC000F0410446A1882068FFF725FD0746002F21
:104FD0004ED1A07910F0200F4AD0A07910F0400FE8
:104FE0000FD021684878012304F12401A269FEF75B
:104FF000CAFA10B10120BDE8F081A07920F040008C
:10500000A071E1692068FEF725FB0746002F2FD12C
:10501000256AE87A40F02000E872207B2877A08992
:10502000010A6977E068010CA977E068010EE97769
:10503000207CA876208A010AE9762069000C287570
:105040002069010E6975FEF7CEFA0646AE75310A83
:10505000E975310C2976310E6976A07920F02000AF
:10506000A0710120216808712068FEF72CFB07461B
:105070003846C0E770B504462046FFF7A0FF054656
:105080000DB900202060284670BD2DE9F047044688
:105090000E46A1882068FFF7BEFC8246BAF1000FD9
:1050A00002D05046BDE8F087A07910F0800F01D003
:1050B0000220F7E7E068B04204D2A07910F0020FB6
:1050C00000D1E668D4F808904FF00008C4F80880D2
:1050D000002E77D0206880784702B9F1000F11D0F8
:1050E000701EB0FBF7F1A9F10100B0FBF7F08142AF
:1050F00008D3A9F10100791E8843A060A068361A80
:10510000656918E02569ADB900212068FEF790FCBB
:105110000546012D05D1A07940F08000A071022044
:10512000C0E7681C05D1A07940F08000A071012083
:10513000B8E725616561002D44D029E0A07910F021
:10514000020F07D029462068FEF772FC054635B9E4
:105150003E461FE029462068FEF727FB0546681CEF
:1051600005D1A07940F08000A07101209AE7012DBF
:1051700003D920688069A84205D8A07940F0800052
:10518000A07102208EE76561A0683844A060F61B1C
:10519000BE42D3D800BFA0683044A060F005C00D67
:1051A00010D029462068FEF7F3FA8046B8F1000FC8
:1051B00006D1A07940F08000A071022072E701E0E2
:1051C00008EB56282089C005C00D2AD0A0694045AB
:1051D00027D0A07910F0400F12D021684878012321
:1051E00004F12401A269FEF7CEF928B1A07940F0BC
:1051F0008000A071012055E7A07920F04000A07147
:10520000216848780123424604F12401FEF78EF913
:1052100028B1A07940F08000A071012042E7C4F8D5
:105220001880D4E90201884205D9A068E060A0791D
:1052300040F02000A071504634E733B5ADF5037D52
:1052400004460022214684A8FFF724FA05465DBBE8
:1052500080A8A061C4F81CD020468499FFF778F993
:105260000546F5B9606998B16069C07A10F0100F11
:105270000DD06069817EC07E41EA00216069027DB7
:10528000407D42EA002041EA0040A06000E00525A0
:105290003DB92068C088A08000212046FEF72DFC83
:1052A0000546042D00D1052528460DF5057D30BDA8
:1052B00070B5ADF5047D04460E46A1882068FFF761
:1052C000AAFB054615BB2EB900212046FEF715FCAA
:1052D00005461BE081A8A06101A8E0612046FEF719
:1052E00071FE0546042D02D10020206100256DB914
:1052F00031462046FFF798F800212046FEF74BFC88
:105300000546042D02D100202061002528460DF518
:10531000047D70BD10B50246802A01DA10461BE0FC
:1053200051B1FF2A01DD002304E0A2F18003164CF5
:1053300034F8133018460FE0002007E0124B33F822
:105340001030934200D103E0431C98B28028F5DB73
:1053500000BF00F18003D8B210BD0246002100E07A
:10536000491C0A4830F8110020B1084830F81100F3
:105370009042F5D1054830F8110018B1044830F8D2
:10538000110070471046FCE7A67A0008A67B0008CB
:10539000867D0008294870470FB430B5ADF2044D42
:1053A000FFF7F8FF0568ADB10DF21440CDF8000429
:1053B00040F2FF316846DDF80034DDF8102401F0DA
:1053C00011FE04460020CDF80004002C02DD214629
:1053D0006846A8470DF2044D30BC5DF814FB70B56B
:1053E00006460C46FFF7D6FF05681DB114B12146ED
:1053F0003046A84770BD0FB430B5ADF2044DFFF78D
:10540000C9FF4568ADB10DF21440CDF8000440F27B
:10541000FF316846DDF80034DDF8102401F0E2FDCC
:1054200004460020CDF80004002C02DD2146684629
:10543000A8470DF2044D30BC5DF814FB5800002065
:1054400010B504464FF4B471204601F011F8201D48
:1054500000F026FE002020620120606210BD0000E6
:10546000FEB506460D4614460027062D06D0082D2B
:1054700016D0092D15D00A2D28D113E004F11400FF
:10548000011F0B1FFEA2CDE900102946304600F097
:1054900086FE032801D1012000E0002007461AE023
:1054A00000BF00BF04F11800011F0A1F131FCDE940
:1054B00000210290F5A22946304600F070FE042833
:1054C00001D1012000E00020074604E0F3A0FFF72F
:1054D00092FF002700BF00BF0FB10020FEBD4FF0BC
:1054E000FF30FBE770B505460C46052C01DA0020BD
:1054F00070BDF34805220168284600F0D5FF08B9C1
:105500000120F5E7EE4805224168284600F0CCFF6F
:1055100008B90220ECE7EA4805228168284600F035
:10552000C3FF08B90420E3E7E5480522C16828461F
:1055300000F0BAFF08B90820DAE7E148052201695E
:10554000284600F0B1FF08B91020D1E70020CFE7CE
:105550002DE9F04704460F46154604EB07080026E0
:10556000B146701E286029E02078242802D10EB1AF
:10557000002425E020782A281AD1601D404516D83D
:10558000E0780D2813D120790A2810D110220221A9
:10559000601C00F09DFD2860601DA8EB00003E1A15
:1055A0002868484503D04FF0FF302860002407E00A
:1055B00016B1207880EA0909641C761C4445D3D3CF
:1055C00000BF2868002801DA04B100263046BDE893
:1055D000F087F0B5CDB005460E4614468021204632
:1055E00000F046FF31462846FFF7F9FE04F1780047
:1055F00004F1700104F1680204F16003CDE909329D
:10560000CDE90B1020382039203A203BCDE9053276
:10561000CDE907101C38011F183A183BCDE90132BB
:10562000CDE903101C380DABA6A2314600902846E8
:1056300000F0B5FD0E2805D0AFA0FFF7DCFE00207E
:105640004DB0F0BD0DA800F01EFF074622463946BA
:105650000DA8FFF705FF20B1ACA0FFF7CCFE00209E
:10566000EEE70120ECE770B590B005460E46144613
:105670005021204600F0FCFE31462846FFF7AFFEE1
:1056800004F1480104F1400204F13803181FCDE988
:105690000D320F910C90011F0A1F131F1038CDE916
:1056A00009320B910890011F0A1F131F1038CDE912
:1056B000053207910490011F0838021F231DCDE910
:1056C0000032CDE90201234696A23146284600F079
:1056D00066FD112805D0A2A0FFF78DFE002010B0B6
:1056E00070BD0120FBE72DE9F04192B007468846E6
:1056F00014465C21204600F0BBFE41463846FFF7C9
:105700006EFE04F158010A1F131F04F14800CDE991
:105710000F3211910E90011F0A1F131F1438CDE98B
:105720000B320D910A90011F0A1F131F1438CDE987
:10573000073209910690011F0A1F0C381C3BCDE966
:105740000230CDE904210C38211D2346894ACDE9D8
:1057500000104146384600F022FD06466068401EB3
:105760008500281DA168814202DAA068401B00E084
:1057700004200546032000EB8505AE4201DB132E15
:1057800006DD7DA0FFF737FE002012B0BDE8F081F6
:105790000120FAE72DE9F041CEB006460F46144647
:1057A0006021204600F064FE39463046FFF717FEC0
:1057B00004F15900411E04F15002CDE90942CDE93E
:1057C0000B10201D011D083A04F14003CDE90532FC
:1057D000CDE9071034302831203A203BCDE90132A1
:1057E000CDE903101C380EAB68A239460090304654
:1057F00000F0D5FC05460D2D08D00E2D06D070A06A
:10580000FFF7F9FD00204EB0BDE8F0810EA800F0D2
:105810003AFE8046224641460EA8FFF721FE20B1FF
:105820006CA0FFF7E8FD0020EDE720685A2802DAB7
:105830002068643020606068401E60600120E2E7FC
:1058400070B588B005460E4614464021204600F04B
:105850000FFE31462846FFF7C2FD04F1380004F17F
:10586000300104F1280204F12003CDE90332CDE92F
:10587000051020382039203A2346CDE90021B5E033
:105880002532642532642532640000002532642507
:1058900032642532642E256400000000506172736A
:1058A00065206F662074696D65206572726F722065
:1058B00028666F726D6174206572726F72292100A3
:1058C000640000202447504747412C25732C25664F
:1058D0002C25432C25662C25432C25642C25642C53
:1058E00025662C25662C25432C25662C25432C2546
:1058F000662C25642A00000047504747412070610C
:10590000727365206572726F7221000047504747BD
:10591000412074696D6520706172736520657272D3
:105920006F7221002447504753412C25432C256496
:105930002C25642C25642C25642C25642C25642CB2
:1059400025642C25642C25642C25642C25642C25A9
:10595000642C25642C25662C25662C25662A0000DF
:105960004750475341207061727365206572726FB2
:1059700072210000687F000847504753562070612D
:10598000727365206572726F722100002447505255
:105990004D432C25732C25432C25662C25432C2583
:1059A000662C25432C25662C25662C253264253251
:1059B000642532642C25662C25432C25432A0000BF
:1059C0004750524D43207061727365206572726F4B
:1059D000722100004750524D432074696D6520705C
:1059E00061727365206572726F7221000290A6A2C7
:1059F0003146284600F0D3FB082805D0AAA0FFF7BF
:105A0000FAFC002008B070BD207A54280AD1207E0C
:105A10004D2807D194F828004E2803D194F8380077
:105A20004B2804D0A5A0FFF7E6FC0020EAE7012000
:105A3000E8E7C3680B6103694B6143698B61836964
:105A4000CB61C26B0A62D0E91223C1E90C23D0E911
:105A50001423C1E9142390F828204E2A02D1D0E95A
:105A6000082303E0D0E9082383F00043C1E91023B1
:105A700090F83820452A02D1D0E90C2303E0D0E980
:105A80000C2383F00043C1E912230A6842F00102AB
:105A90000A607047F0B5002445684D62D0E90E56A3
:105AA000C1E90A56D0E91056C1E90C56D0E91256A0
:105AB000C1E90E56002220E000231AE000F108059B
:105AC00055F82250A5B100F1080555F8226003EB06
:105AD000830701F1780555F82750AE4208D1012619
