:1004D80041540D0A004F4B0D0A0041542B4350491B
:1004E8004E3F0D0A0052454144590041542B434D9B
:1004F80047463D310D0A0041542B43534D503D3181
:10050800372C3136372C302C380D0A0041542B4308
:100518005343533D2247534D220D0A0041542B4368
:100528004D47533D2200220D0A003E00415444002D
:100538003B0D0A0000000000000000000000000061
:1005480000000000000000000000000000000000A3
:0C05580000000000000000000000000097
:100782000408000000000C0C31373731393232785E
:10079200787878001418494C6F76654D43552E745D
:0A07A200616F62616F2E636F6D00DE
:10035B0012081D7535FF7536047537DDE4753BB82E
:10036B00753A0B120441EF64014E60031207D5126C
:10037B0007F97535FF7536047537EDE4753BE87590
:10038B003A03F539F538753C0A7BFF7A0479E212AA
:10039B00044EEF64014E60031207D51207F9753551
:1003AB00FF7536047537DDE4753BE8753A03F539AF
:1003BB00F538753C0A7BFF7A0479F312044EEF642F
:1003CB00014E60031207D51207F97535FF75360418
:1003DB007537DDE4753BB8753A0BF539F538753C77
:1003EB000A7BFF7A0479FF12044EEF64014E60031F
:1003FB001207D51207F97535FF7536047537DDE42D
:10040B00753BE8753A03F539F538753C0A7BFF7A8D
:10041B0005791412044EEF64014E60031207D512D6
:10042B0007F9752F007530007531187B007A00794C
:06043B000C12026D80FEB0
:06026D008B2C8A2D892E66
:1002730078647C007D017BFF7A05793C7E007F14E6
:100283001200F67E007F147D007B017A00796412F0
:10029300022F78647C007D017BFF7A0579241202AA
:1002A30012852C35852D36852E377B017A007964AE
:1002B3001206F67535FF75360575372E7B017A0004
:1002C30079641206F67535FF753605753732E475B0
:1002D3003BB8753A0BF539F538753C0A7B017A0062
:1002E300796412044EEF64014E60031207D5852F23
:1002F30035853036853137E4753BB8753A0BF539BA
:10030300F538753C0AAB2FAA30A93112044EEF64BD
:10031300014E60031207D57E007F287D007B017AA2
:1003230000796412022F900064741AF0E4A3F0754C
:1003330035FF7536047537DD753B10753A27F5398A
:10034300F538753C057B017A00796412044EEF643D
:07035300014E60031207D503
:01035A002280
:0605F0008B4A8A4B894C86
:1005F600784D7C007D007BFF7A0579507E007F1464
:100606001200F67E007F147D007B007A00794D1281
:10061600022F784D7C007D007BFF7A05793412022B
:1006260012854A35854B36854C377B007A00794DE5
:100636001206F67535FF7536057537387B007A0074
:10064600794D1206F67535FF7536047537DDE47596
:100656003B10753A27F539F538753C0AFB7A00796F
:0D0666004D12044EEF64014E60031207D5E3
:010673002264
:1007D5007535FF7536047537DDE4753B64F53A12FA
:1007E5000441EF64014E70031208507FC87E001269
:0407F50007FD80DCA0
:03085000020000A3
:0D044100F539F538753C0A7BFF7A0479D84F
:06044E008B328A33893471
:10045400120835E4F53DE53DC3953C5070AB32AA36
:1004640033A9341207B0E4F50BF50AF509F508AF22
:100474003BAE3AAD39AC38AB0BAA0AA909A808C3FC
:10048400120135503B7F647E001207FDE50B2464A6
:10049400F50BE4350AF50AE43509F509E43508F500
:1004A400088535418536428537437B017A007900DA
:1004B400120674E94A4B60B71208357E007F0122A8
:1004C400E4F50BF50AF509F508053D8089120835B0
:0304D400E4FEFF44
:0104D7002202
:0407F9007F0A7E00F5
:1007FD00E4FDFCC3ED9FEC9E5015E4FBFA0BBB0032
:0F080D00010AEB647B4A70F50DBD00010C80E41D
:01081C0022B9
:0307AC00016400E5
:10081D00759850D29CE4F587758920758DFD758B83
:08082D00FDD28ED2AFD2AC2245
:080848008F993099FDC299223D
:1007B0008B3E8A3F8940AB3EAA3FA94012011C6094
:1007C000130540E5407002053F14F912011CFF12A9
:0507D000084880E22250
:100003008B618A6289638B418A4289437B017A00CF
:0E0013007900120674E94A4B6002D322C32220
:100835007E007F647D007B017A00790012022FE43F
:03084500F5642235
:0300230002074E83
:10074E00C0E0C083C082C0D0C2AC30981CC29874C6
:10075E00002564F582E43400F583E599F00564E53F
:10076E0064C394644003756400D2ACD0D0D082D000
:04077E0083D0E03212
:0300000002056492
:0C056400787FE4F6D8FD7581640205ABD9
:10002600E709F608DFFA8046E709F208DFFA803EBC
:1000360088828C83E709F0A3DFFA8032E309F608A9
:10004600DFFA8078E309F208DFFA807088828C8311
:10005600E309F0A3DFFA806489828A83E0A3F608C5
:10006600DFFA805889828A83E0A3F208DFFA804C9F
:1000760080D280FA80C680D4806980F28033801076
:1000860080A680EA809A80A880DA80E280CA8033DF
:1000960089828A83ECFAE493A3C8C582C8CCC58357
:1000A600CCF0A3C8C582C8CCC583CCDFE9DEE78027
:1000B6000D89828A83E493A3F608DFF9ECFAA9F0A6
:1000C600EDFB2289828A83ECFAE0A3C8C582C8CCFC
:1000D600C583CCF0A3C8C582C8CCC583CCDFEADE15
:1000E600E880DB89828A83E493A3F208DFF980CC77
:1000F60088F0EF60010E4E60C388F0ED2402B40470
:100106000050B9F582EB2402B4040050AF23234516
:06011600822390007673C5
:10011C00BB010689828A83E0225002E722BBFE02E1
:09012C00E32289828A83E4932214
:10013500EB9FF5F0EA9E42F0E99D42F0E89C45F020
:010145002297
:1006F6008B328A3389348B388A39893AAB3205345E
:10070600E534AA337002053314F912011C70ED7436
:10071600FF2534F53474FF3533F533AB350537E54E
:1007260037AA367002053614F912011CFFAB3205E2
:1007360034E534AA337002053314F9EF12025B7004
:08074600DAAB38AA39A93A2206
:10014600E709F60870FA8046E709F20870FA803E79
:1001560088828C83E709F0A370FA807EE309F608AB
:1001660070FA8076E309F20870FA806E88828C83D2
:10017600E309F0A370FA806289828A83E0A3F60815
:1001860070FA805689828A83E0A3F20870FA804A60
:1001960080D280FA80C680D4806580F2803180105B
:1001A60080A680EA809A80A880DA80E280CA8031C0
:1001B60089828A83ECFAE493A3C8C582C8CCC58336
:1001C600CCF0A3C8C582C8CCC583CC70E9800D89A4
:1001D600828A83E493A3F60870F9ECFAA9F0EDFBA2
:1001E6002289828A83ECFAE0A3C8C582C8CCC5837B
:1001F600CCF0A3C8C582C8CCC583CC70EA80DD89A3
:10020600828A83E493A3F20870F980CE88F0ED2405
:1002160002B4040050C4F582EB2402B4040050BAC0
:0902260023234582239001967305
:100674008B3E8A3F8940AB41AA42A94312011C60C8
:1006840063AB3EAA3FA94012011C605F85414485CB
:1006940042458543468B478A488949AB44AA45A9C4
:1006A4004612011CFF6023AB47AA48A94912011C4A
:1006B4006F7017042546F546E43545F54574012564
:1006C40049F549E43548F54880D1AB44AA45A946E3
:1006D40012011C7002800D74012540F540E4353F81
:1006E400F53F809DAB3EAA3FA940227B007A00796A
:0206F4000022E2
:10022F00EF4E6012EF60010EEDBB010B89828A83E6
:10023F00F0A3DFFCDEFA2289F05007F709DFFCA9F3
:0C024F00F022BBFEFCF309DFFCA9F0224A
:1005700002035BE493A3F8E493A34003F68001F243
:1005800008DFF48029E493A3F85407240CC8C3338C
:10059000C4540F4420C8834004F456800146F6DF5B
:1005A000E4800B0102040810204080900782E47E62
:1005B000019360BCA3FF543F30E509541FFEE49350
:1005C000A360010ECF54C025E060A840B8E493A317
:1005D000FAE493A3F8E493A3C8C582C8CAC583CA42
:1005E000F0A3C8C582C8CAC583CADFE9DEE780BEFA
:0107AF000049
:10025B00BB010689828A83F0225002F722BBFE0182
:02026B00F3227C
:00000001FF
