:1003C10041540D0A004F4B0D0A0041542B434D4738
:1003D100463D310D0A0041542B435343533D2247BF
:1003E100534D220D0A0041542B434E4D493D322CB1
:1003F100320D0A0073687574646F776E003531379A
:100401003336373341007265626F6F74003931439F
:10041100443534324600434D54000A0041542B43C5
:100421004D47533D2200220D0A003E004154440035
:100431003B0D0A00534F554E444552004F4B0000AF
:1004410000000000000000000000000000000000AB
:10045100000000000000000000000000000000009B
:070461000000000000000094
:100862000421000000000C2531373731393232784B
:10087200787878001431494C6F76654D43552E7463
:0C088200616F62616F2E636F6D00C10238
:10026D00120903750BFF750C03750DC6E47511B8F6
:10027D0075100B12050AEF64014E60031208BB12D4
:10028D0008DF750BFF750C03750DC6E47511E87568
:10029D001003F50FF50E75120A7BFF7A0379CB1259
:1002AD000517EF64014E60031208BB1208DF750BD2
:1002BD00FF750C03750DC6E47511E8751003F50F88
:1002CD00F50E75120A7BFF7A0379D7120517EF64C5
:1002DD00014E60031208BB1208DF750BFF750C038E
:1002ED00750DC6E47511B875100BF50FF50E751279
:1002FD000A7BFF7A0379E7120517EF64014E60035D
:10030D001208BB1208DF300140C201E4F524F523C9
:10031D00F522F521E47FE87E03FDFCAB24AA23A999
:10032D0022A821C3120135501E7F647E001208E3FE
:10033D00E5242464F524E43523F523E43522F52260
:10034D00E43521F52180CDD2003000BA1204687554
:10035D0017FF7518037519F57B017A0079001207DF
:10036D0043E94A4B70177517FF7518037519FE7B16
:10037D00017A007900120743E94A4B6002D2A07559
:10038D0017FF7518047519077B017A00790012079C
:10039D0043E94A4B70177517FF75180475190E7BD5
:1003AD00017A007900120743E94A4B6002C2A0C2EC
:0403BD000002031324
:10046800750800750900750A00750B00750C007594
:100478000D00750E00750F007510007E007F637DFE
:10048800007B017A00790012022F7517FF75180496
:100498007519177B017A0079641207438B088A095A
:1004A800890AE94A4B60587517FF75180475191BB6
:1004B8001207438B0B8A0C890DE94A4B6041740182
:1004C800250DF50DE4350CF50C7517FF7518047539
:1004D800191BFAA90D1207438B0E8A0F8910E94AD6
:1004E8004B601CAC02AD01C3ED950DFFEC950CFE05
:1004F80078007C007D01AB0BAA0CA90D1200F60256
:02050800091BCD
:0605A1008B658A66896784
:1005A70078C87C007D017BFF7A0479407E007F1448
:1005B7001200F67E007F147D007B017A0079C81255
:1005C700022F78C87C007D017BFF7A04791D120217
:1005D7001285655F8566608567617B017A0079C8EA
:1005E7001207C5755FFF7560047561277B017A0087
:1005F70079C81207C5750BFF750C04750D2BE475CB
:1006070011B875100BF50FF50E75120A7B017A00FC
:1006170079C8120517EF64014E60031208BBAB6877
:0C062700AA69A96A1208967F1A02092E1F
:0606BF008B458A468947C5
:1006C50078487C007D007BFF7A0479547E007F1496
:1006D5001200F67E007F147D007B007A00794812B7
:1006E500022F78487C007D007BFF7A04792D120269
:1006F5001285455F8546608547617B007A007948AC
:100705001207C5755FFF7560047561317B007A005E
:1007150079481207C5750BFF750C04750D35E47521
:100725001110751027F50FF50E75120AFB7A007971
:0D07350048120517EF64014E60031208BB67
:010742002294
:1008BB00750BFF750C04750D3DE4751164F5101285
:1008CB00050AEF64014E70031209367FC87E0012D1
:0408DB0008E380DCD2
:03093600020000BC
:0D050A00F50FF50E75120A7BFF7A0379C11B
:060517008B088A09890A25
:10051D0012091BE4F513E513C395125070AB08AA2D
:10052D0009A90A120896E4F524F523F522F521AF61
:10053D0011AE10AD0FAC0EAB24AA23A922A821C376
:10054D00120135503B7F647E001208E3E5242464DC
:10055D00F524E43523F523E43522F522E43521F5A0
:10056D0021850B17850C18850D197B017A0079648F
:10057D00120743E94A4B60B712091B7E007F012227
:10058D00E4F524F523F522F5210513808912091BC5
:03059D00E4FEFF7A
:0105A0002238
:0408DF007F0A7E000E
:1008E300E4FDFCC3ED9FEC9E5015E4FBFA0BBB004B
:0F08F300010AEB647B4A70F50DBD00010C80E437
:0109020022D2
:07088E00016E00C100C10171
:10090300759850D29CE4F587758920758DFD758B9C
:08091300FDD28ED2AFD2AC225E
:08092E008F993099FDC2992256
:100896008B148A158916AB14AA15A91612011C60A9
:1008A600130516E5167002051514F912011CFF1240
:0508B600092E80E22282
:100003008B6B8A6C896D8B178A1889197B017A002F
:0E0013007964120743E94A4B6002D322C322EC
:10091B007E007F647D007B017A00796412022FE4F4
:03092B00F56E2244
:0300230002081DB3
:10081D00C0E0C083C082C0D0C2AC30982DC29874E5
:10082D0064256EF582E43400F583E599F074642552
:10083D006EF582E43400F583E0B42B02D201056E2F
:10084D00E56EC394644003756E00D2ACD0D0D082F7
:05085D00D083D0E03261
:03000000020633C2
:0C063300787FE4F6D8FD75816E02067A2F
:10002600E709F608DFFA8046E709F208DFFA803EBC
:1000360088828C83E709F0A3DFFA8032E309F608A9
:10004600DFFA8078E309F208DFFA807088828C8311
:10005600E309F0A3DFFA806489828A83E0A3F608C5
:10006600DFFA805889828A83E0A3F208DFFA804C9F
:1000760080D280FA80C680D4806980F28033801076
:1000860080A680EA809A80A880DA80E280CA8033DF
:1000960089828A83ECFAE493A3C8C582C8CCC58357
:1000A600CCF0A3C8C582C8CCC583CCDFE9DEE78027
:1000B6000D89828A83E493A3F608DFF9ECFAA9F0A6
:1000C600EDFB2289828A83ECFAE0A3C8C582C8CCFC
:1000D600C583CCF0A3C8C582C8CCC583CCDFEADE15
:1000E600E880DB89828A83E493A3F208DFF980CC77
:1000F60088F0EF60010E4E60C388F0ED2402B40470
:100106000050B9F582EB2402B4040050AF23234516
:06011600822390007673C5
:10011C00BB010689828A83E0225002E722BBFE02E1
:09012C00E32289828A83E4932214
:10013500EB9FF5F0EA9E42F0E99D42F0E89C45F020
:010145002297
:1007C5008B5C8A5D895E8B628A638964AB5C055E3E
:1007D500E55EAA5D7002055D14F912011C70ED74E9
:1007E500FF255EF55E74FF355DF55DAB5F0561E583
:1007F50061AA607002056014F912011CFFAB5C056B
:100805005EE55EAA5D7002055D14F9EF12025B708C
:08081500DAAB62AA63A96422B8
:10014600E709F60870FA8046E709F20870FA803E79
:1001560088828C83E709F0A370FA807EE309F608AB
:1001660070FA8076E309F20870FA806E88828C83D2
:10017600E309F0A370FA806289828A83E0A3F60815
:1001860070FA805689828A83E0A3F20870FA804A60
:1001960080D280FA80C680D4806580F2803180105B
:1001A60080A680EA809A80A880DA80E280CA8031C0
:1001B60089828A83ECFAE493A3C8C582C8CCC58336
:1001C600CCF0A3C8C582C8CCC583CC70E9800D89A4
:1001D600828A83E493A3F60870F9ECFAA9F0EDFBA2
:1001E6002289828A83ECFAE0A3C8C582C8CCC5837B
:1001F600CCF0A3C8C582C8CCC583CC70EA80DD89A3
:10020600828A83E493A3F20870F980CE88F0ED2405
:1002160002B4040050C4F582EB2402B4040050BAC0
:0902260023234582239001967305
:100743008B148A158916AB17AA18A91912011C60F4
:1007530063AB14AA15A91612011C605F85171A85CD
:10076300181B85191C8B1D8A1E891FAB1AAA1BA96E
:100773001C12011CFF6023AB1DAA1EA91F12011C22
:100783006F701704251CF51CE4351BF51B7401253C
:100793001FF51FE4351EF51E80D1AB1AAA1BA91C39
:1007A30012011C7002800D74012516F516E435152F
:1007B300F515809DAB14AA15A916227B007A007942
:0207C300002212
:10022F00EF4E6012EF60010EEDBB010B89828A83E6
:10023F00F0A3DFFCDEFA2289F05007F709DFFCA9F3
:0C024F00F022BBFEFCF309DFFCA9F0224A
:10063F0002026DE493A3F8E493A34003F68001F262
:10064F0008DFF48029E493A3F85407240CC8C333BC
:10065F00C4540F4420C8834004F456800146F6DF8B
:10066F00E4800B0102040810204080900862E47EB1
:10067F00019360BCA3FF543F30E509541FFEE49380
:10068F00A360010ECF54C025E060A840B8E493A347
:10069F00FAE493A3F8E493A3C8C582C8CAC583CA72
:1006AF00F0A3C8C582C8CAC583CADFE9DEE780BE2A
:010895000062
:10025B00BB010689828A83F0225002F722BBFE0182
:02026B00F3227C
:00000001FF
