:1009F900494C6F76654D43552E74616F62616F2E58
:100A0900636F6D0041540D0A004F4B0D0A004154AC
:100A19002B4347434C4153533D2242220D0A004187
:100A2900542B434744434F4E543D312C22495022C5
:100A39002C22434D4E4554220D0A004F4B00415480
:100A49002B43474154543D310D0A000D0A2D2D2DDC
:100A59002D2D2D2D2D2D73656E6420415420436F4E
:100A69006D6D616E643A2D2D2D2D2D2D2D2D2D0D94
:100A79000A000D0A3D3D3D3D3D3D3D3D3D3D726513
:100A8900636569766520415420436F6D6D616E64BD
:100A99003A3D3D3D3D3D3D3D3D3D3D0D0A00256C09
:100AA900642E256C640025642E003000256C6400DA
:100AB90025730041542B43495053544152543D220C
:100AC900544350222C2200222C38300D0A00434F67
:100AD9004E4E4543540041542B43495053454E44CF
:100AE9000D0A003E007B2264617461737472656152
:100AF9006D73223A5B7B226964223A222573222C88
:100B09002264617461706F696E7473223A5B7B222F
:100B190076616C7565223A7B226C6F6E223A257379
:100B29002C226C6174223A25737D7D5D7D5D7D008B
:100B3900504F5354202F646576696365732F002FD6
:100B490064617461706F696E747320485454502FD6
:100B5900312E310D0A006170692D6B65793A000DEE
:100B69000A00486F73743A00436F6E74656E742D92
:100B79004C656E6774683A25640D0A0D0A00227384
:100B8900756363227D0041542B434950434C4F53B5
:100B9900450D0A00434C4F5345204F4B0041542B00
:100BA900434950534855540D0A0053485554204F52
:100BB9004B004552524F52000D0A5245534554219C
:100BC90021212121210D0A002A2A2A2A2A2A2A2A10
:100BD9002A2A2A2A2A2A0D0A002C00536176655FDF
:100BE900446174612E55544354696D65203D20005C
:100BF900536176655F446174612E6C6174697475C3
:100C09006465203D2000536176655F446174612EFF
:100C19004E5F53203D2000536176655F44617461E6
:100C29002E6C6F6E676974756465203D2000536191
:100C390076655F446174612E455F57203D2000470A
:100C490050532044415441206973206E6F742075BC
:100C5900736566756C6C210D0A006170692E686593
:100C6900636C6F7564732E636F6D00333232353187
:100C79003837005239784F354E5A6D366F564934E8
:100C89005942487643504B4571747759744D410028
:100C99006C6F636174696F6E0000000000000000F2
:100CA900000000000000000000000000000000003B
:100CB900000000000000000000000000000000002B
:100CC900000000000000000000000000000000001B
:100CD900000000000000000000000000000000000B
:0A0F290000000000000000001A00A4
:0C002600041000000000C18D0214000056
:0627DC00E4F5CAF5C92274
:10270B001227DC1225B97BFF7A0979F912269C7FF7
:10271B00C81227AA122462122299121DF812202025
:02272B0080F834
:102299007537FF75380A753912E4753DB8753C0B09
:1022A9001220FDEF64014E60077F017E0012257048
:1022B9007F641227AA7537FF75380A753912E475D4
:1022C9003DB8753C0BF53BF53A753E027BFF7A0A42
:1022D900791712210AEF64014E60077F037E00120D
:1022E90025707F641227AA7537FF75380A75394436
:1022F900E4753DB8753C0BF53BF53A753E027BFF3D
:102309007A0A792812210AEF64014E60077F047E58
:10231900001225707F641227AA7537FF75380A7570
:102329003912E4753DB8753C0BF53BF53A753E023B
:102339007BFF7A0A794712210AEF64014E60077F11
:0B234900057E001225707F640227AAA9
:0D20FD00F53BF53A753E0A7BFF7A0A790D36
:06210A008B348A35893692
:10211000122773E4F53FE53FC3953E40030221B328
:102120007BFF7A0A795412269CAB34AA35A9361261
:10213000269CAB34AA35A9361226E6E4F513F5122F
:10214000F511F510AF3DAE3CAD3BAC3AAB13AA1266
:10215000A911A810C3120815504B7F641227AAE5D5
:10216000132464F513E43512F512E43511F511E486
:102170003510F5108537438538448539457B017A1C
:102180000079001223E0E94A4B60B97BFF7A0A79B3
:102190007B12269C7B017A00790012269C12277301
:1021A0007E007F0122E4F513F512F511F510053FCD
:1021B0000221167BFF7A0A797B12269C7B017A002A
:0B21C000790012269C122773E4FEFF3A
:0121CB0022F1
:0B251D00E0FCA3E0FDA3E0FEA3E0FF54
:082528008F448E438D428C416B
:10253000E4F545F546E4FFFEFDFCAB44AA43A942A1
:10254000A841D31207FF40230546E5467002054522
:10255000AF44AE43AD42AC41E47B0AFAF9F8120055
:0F256000468F448E438D428C4180CAAE45AF46B4
:01256F002249
:061A30008B328A33893479
:101A360090056212084C00000000E4900566F0A3D1
:101A4600F0A312084C0000000090056C12084C0030
:101A5600000000E4F535F536F53AF539F538F53791
:101A6600F53EF53DF53CF53BF53FF5407544FF7514
:101A7600450A7546A7F547754800754937F54A750D
:101A86004B00754C3B121420E47B64FAF9F8AF3A2C
:101A9600AE39AD38AC3712075FAC00AD01AE02AF60
:101AA60003900562120840AB32AA33A93412274BC1
:101AB600EF24FEFFEE34FFFEC006C007AF3AAE3994
:101AC600AD38AC37122528AC06C3D0E09FF540D020
:101AD600E09CF53FE4F535F536C3E5369540E53F40
:101AE6006480F8E5356480985027900562E0FCA391
:101AF600E0FDA3E0FEA3E0FFE47B0AFAF9F8120694
:101B0600D49005621208400536E536700205358028
:101B1600C8E47B64FAF9F8AF3AAE39AD38AC37129F
:101B2600075F900566EEF0A3EFF0900562E0FCA378
:101B3600E0FDA3E0FEA3E0253EFFEE353DFEED35DC
:101B46003CFDEC353BFC900568120840E47F0AFE3C
:101B5600FDFC900568E0F8A3E0F9A3E0FAA3E0FB3A
:101B66001206D4E47B06FAF9F812075F90056812AC
:101B760008407544FF75450A7546AF900566E0F561
:101B860047A3E0F5487B017A057970120F8FE4F5DB
:101B960035F53690056812251DE5402402CDE4355D
:101BA6003FCDC39FFFED9EFEC3E5369FEE6480F8F2
:101BB600E535648098501C7544FF75450A7546B333
:101BC6007B017A0579701224C50536E53670020563
:101BD6003580C07544FF75450A7546B5900568E0C1
:101BE600FCA3E0FDA3E0FEA3E0F54A8E498D488CF8
:101BF600477B017A057984120F8F75440175450577
:101C06007546847B017A0579701224C57B017A05B5
:021C16007970E3
:011C180022A9
:061C19008B328A3389348E
:101C1F0090056212084C00000000E4900566F0A3E6
:101C2F00F0A312084C00000000E4F535F536F53A44
:101C3F00F539F538F537F53EF53DF53CF53BF53F14
:101C4F00F5407544FF75450A7546A7F54775480079
:101C5F00754937F54A754B00754C3B121420E47BE0
:101C6F0064FAF9F8AF3AAE39AD38AC3712075FAC5A
:101C7F0000AD01AE02AF03900562120840AB32AA6D
:101C8F0033A93412274BEF24FEFFEE34FFFEC006BC
:101C9F00C007AF3AAE39AD38AC37122528AC06C302
:101CAF00D0E09FF540D0E09CF53FE4F535F536C325
:101CBF00E5369540E53F6480F8E535648098502718
:101CCF00900562E0FCA3E0FDA3E0FEA3E0FFE47B50
:101CDF000AFAF9F81206D49005621208400536E5A3
:101CEF00367002053580C8E47B64FAF9F8AF3AAE76
:101CFF0039AD38AC3712075F900566EEF0A3EFF001
:101D0F00900562E0FCA3E0FDA3E0FEA3E0253EFF0B
:101D1F00EE353DFEED353CFDEC353BFC9005681294
:101D2F000840E47F0AFEFDFC900568E0F8A3E0F9A7
:101D3F00A3E0FAA3E0FB1206D4E47B06FAF9F8124B
:101D4F00075F9005681208407544FF75450A754690
:101D5F00AF900566E0F547A3E0F5487B017A05797A
:101D6F006C120F8FE4F535F53690056812251DE5D9
:101D7F00402402CDE4353FCDC39FFFED9EFEC3E56A
:101D8F00369FEE6480F8E535648098501C7544FFEB
:101D9F0075450A7546B37B017A05796C1224C50522
:101DAF0036E5367002053580C07544FF75450A75F6
:101DBF0046B5900568E0FCA3E0FDA3E0FEA3E0F5C7
:101DCF004A8E498D488C477B017A057980120F8F97
:101DDF007544017545057546807B017A05796C124E
:081DEF0024C57B017A05796C23
:011DF70022C9
:0616F1008B238A248925E9
:1016F70078D17C027D017BFF7A0C79A27E017F90F5
:1017070012063778617C047D017BFF7A0E79327E81
:10171700007FC812063778297C057D017BFF7A0E8A
:1017270079FA7E007F1912063778427C057D017BA6
:10173700FF7A0F79137E007F0F12063778517C05E9
:101747007D017BFF7A0F79227E007F0F12063778A3
:10175700607C057D017BFF7A0F79317E007F021265
:101767000637AB2CAA2DA92E121A308B478A488927
:10177700497544FF75450A7546B97B017A05794273
:10178700120F8FAB2FAA30A931121C198B478A4829
:1017970089497544FF75450A7546B97B017A05790C
:1017A70051120F8F7E017F907D007B017A0279D1E4
:1017B7001209B578D17C027D017BFF7A0A79BC12C8
:1017C70009987544FF75450C7546637B017A027964
:1017D700D11224C57544FF75450A7546D07B017A39
:1017E7000279D11224C57537FF75380A7539D7E4E0
:1017F700753D10753C27F53BF53A753E037B017A3D
:101807000279D112210AEF64014E60077F077E003B
:101817001225707537FF75380A7539ECE4753DB8D0
:10182700753C0BF53BF53A753E017BFF7A0A79DF8C
:1018370012210AEF64014E60077F087E00122570AF
:101847007E017F907D007B017A0279D11209B575FF
:1018570044FF75450A7546EE852947852A48852B35
:1018670049754A01754B05754C42754D01754E0515
:10187700754F517B017A047961120F8FE49002D181
:10188700F07544FF75450B7546397B017A0279D1AE
:101897001224C58526448527458528467B017A027B
:1018A70079D11224C57544FF75450B7546487B01F0
:1018B7007A0279D11224C57544FF75450B75465FC9
:1018C7007B017A0279D11224C58523448524458575
:1018D70025467B017A0279D11224C57544FF7545E7
:1018E7000B7546687B017A0279D11224C57544FFCE
:1018F70075450B75466B7B017A0279D11224C57544
:1019070044FF75450C7546637B017A0279D1122431
:10191700C57544FF75450B7546687B017A0279D119
:101927001224C57B017A04796112274B8E478F48B1
:101937007544FF75450B7546717B017A0579291248
:101947000F8F7544017545057546297B017A027924
:10195700D11224C57544017545047546617B017A2A
:101967000279D11224C57537017538027539D1E46A
:10197700753DB8753C0BF53BF53A753E017B017A31
:101987000279D112210AEF64014E60077F097E00B8
:101997001225707537FF75380B753987E4753DB8B3
:1019A700753C0BF53BF53A753E017B017A0579608D
:1019B70012210AEF64014E60077F0A7E001225702C
:1019C7007F641227AA7537FF75380B75399DE47543
:1019D7003DB8753C0BF53BF53A753E017BFF7A0B3D
:1019E700798F12210AEF64014E60077F0B7E001288
:1019F70025707F641227AA7537FF75380B7539B3C1
:101A0700E4753DB8753C0BF53BF53A753E017BFF38
:101A17007A0B79A612210AEF64014E60077F0B7ECD
:091A2700001225707F640227AA59
:0327E700020000ED
:102570008E328F337BFF7A0B79BB12269CE5332496
:1025800030FF1227C47BFF7A0B796812269C7537BF
:10259000FF75380A753944E4753D64F53C1220FD39
:1025A000EF64014E700C7BFF7A0B79C112269C12EE
:0925B00027E77FC81227AA80D595
:101DF800E4F5299002A8E07003021F39E4F07BFFA4
:101E08007A0B79D112269C7B017A02795812269C8A
:101E1800E4F529E52970267543FF75440B7545E2FD
:101E28007B017A0279581223E08B238A248925E9D9
:101E38004A4B6003021F2B7F01FE021F28740125F5
:101E480025F525E43524F5247543FF75440B7545C0
:101E5800E2AB23FAA9251223E08B268A278928E9F1
:071E68004A4B7003021F2426
:101E6F00E52924FE6021146031146041146051147F
:101E7F00606124057077C3E5289525FFE527952434
:101E8F00FE78AA7C028022C3E5289525FFE52795D9
:101E9F0024FE782A7C007D00804AC3E5289525FF23
:101EAF00E5279524FE78B57C027D018037C3E528B0
:101EBF009525FFE5279524FE78C07C027D018024BF
:101ECF00C3E5289525FFE5279524FE78C27C027D82
:101EDF00018011C3E5289525FFE5279524FE78CECF
:101EEF007C027D01AB23AA24A92512063785262360
:101EFF008527248528259002A97401F0E52AB4418D
:101F0F00089002D07401F08013E52AB4560EE490C5
:031F1F0002D0F0FD
:101F220080077F027E001225700529D3E52964808F
:071F320094865003021E1B00
:011F39002285
:102020009002A9E070030220FCE4F07BFF7A0B79B8
:10203000E412269C7B017A0279AA12269C7BFF7A05
:102040000B796812269C9002D0E070030220F3E422
:10205000F07BFF7A0B79F912269C7B017A0279B525
:1020600012269C7BFF7A0B796812269C7BFF7A0CE8
:10207000790F12269C7B017A0279C012269C7BFF85
:102080007A0B796812269C7BFF7A0C792012269CA9
:102090007B017A0279C212269C7BFF7A0B79681247
:1020A000269C7BFF7A0C793712269C7B017A027979
:1020B000CE12269C7BFF7A0B796812269CC2CD7FBC
:1020C000641227AAD2CD7526FF75270C7528747562
:1020D00029FF752A0C752B99752C01752D02752E0B
:1020E000C2752F017530027531B57BFF7A0C797C92
:0D20F0000216F17BFF7A0C794812269C2223
:10246200E49002A8F0A3F09002D0F0FE7F50FD7B32
:10247200017A0279581209B57E007F0B7D007B013B
:102482007A0279AA1209B57E007F0B7D007B017A60
:102492000279B51209B57E007F027D007B017A02C6
:1024A20079C01209B57E007F0C7D007B017A02792A
:1024B200C21209B57E007F027D007B017A0279CECD
:0324C2000209B557
:0F27AA007D527C03ED1D70011C144C70F7DFF1A4
:0127B90022FD
:10003200011700011800C10B011600011900C10CC3
:1025B90053877F759850438E40538EFE53890F433E
:1025C9008920758BDC758DDCC2ABD28E759A504330
:1025D9008E0475D7E875D6FF438E1075AC1043ACE1
:1025E9004043D10275D5E075D4FE43D10843AF010C
:0825F90043AF08D2ACD2AF22BF
:0827C4008F993099FDC29922A2
:10269C008B408A418942AB40AA41A94212065D6037
:1026AC00130542E5427002054114F912065DFF1252
:0526BC0027C480E222AA
:100003008B1A8A1B891C8B438A4489457B007A009F
:0E00130079651223E0E94A4B6002D322C32232
:102760007E007F147D007B007A0079651209B5E454
:03277000F5172238
:030023000226486A
:10264800C0E0C0D075D008C2AC309815C298746587
:102658002517F8A6990517E517C3941440037517AD
:0D26680000309902C299D2ACD0D0D0E0323F
:0827CC00200BFD8F9BD20B22B4
:1026C1008B1D8A1E891FAB1DAA1EA91F12065D60E4
:1026D10013051FE51F7002051E14F912065DFF1296
:0526E10027CC80E2227D
:030043000221CCCB
:0D21CC00C0E0C0F0C083C082C0D075D00854
:1021D900E4FFF52253AFFEE59A20E003022281AF26
:1021E9009B539AFEBF2403751600E516D394055038
:1021F9000CAE16051674792EF8A60F807B787DE64D
:10220900B44D047E0180027E007879E6B424047D11
:102219000180027D00ED5E605F787EE66443705860
:10222900AE16051674792EF8A60FEF640A7038FEFB
:102239007F50FD7B017A0279581209B5AF167E00ED
:1022490078587C027D017B007A00797912063790F3
:1022590002A87401F07516007E007F4C7D007B009A
:102269007A0079791209B5E516C3944B400A7516B7
:102279004B74792516F87600E59A30E105539AFDF5
:05228900C20B43AF0190
:0B228E00D0D0D082D083D0F0D0E0325E
:0827D400200CFD8FADD20C2298
:1026E6008B408A418942AB40AA41A94212065D60ED
:1026F600130542E5427002054114F912065DFF1208
:0527060027D480E2224F
:10272D008B618A6289638B438A4489457B017A0078
:0E273D0079001223E0E94A4B6002D322C32246
:102773007E027F587D007B017A0079001209B5E45F
:03278300F5192223
:03008B0002260149
:10260100C0E0C083C082C0D053AFF7E5AC30E02159
:1026110053ACFE74002519F582E43400F583E5AD71
:10262100F00519C3E5199458748094824003751913
:1026310000E5AC30E10553ACFDC20C43AF08D0D08E
:07264100D082D083D0E0320B
:100F3300E5582444F8E605582278413007027844FE
:100F4300E475F00112088602065D2000EB7F2ED2C5
:100F5300008018EF540F2490D43440D4FF30040B96
:100F6300EF24BFB41A0050032461FFE55960021552
:100F730059055CE55C7002055B30070D7841E4754B
:100F8300F001120886EF0206A30226757403D20746
:100F93008003E4C207F5588B418A428943E4F5593B
:100FA300F55BF55CE55960077F20120F6E80F575E0
:100FB3005AFFC201C200C202C203C205C206C2086E
:100FC300120F3CFF700D3007057F00120F7FAF5CDF
:100FD300AE5B22B4255FC2D5C204120F3CFF24D0FE
:100FE300B40A00501A75F00A785930D50508B6FFCF
:100FF3000106C6A426F620D5047002D20380D924A4
:10100300CFB41A00EF5004C2E5D20402126CD2012D
:1010130080C6D20080C0D20280BCD2D580BAD205AD
:1010230080B47F20120F6E2002077401B55900406F
:10103300F1120F33FF120F6E020FA7D208D20680F0
:1010430095120F33FB120F33FA120F33F94A4B7019
:101053000679637A137BFF20022EE559602A7E000E
:101063008E8275830012067660060EEE655A70F066
:10107300C2D5EBC0E0EAC0E0E9C0E0EE1212CCD08A
:10108300E0F9D0E0FAD0E0FB12065DFF60AAEBC006
:10109300E0EAC0E0E9C0E0120F6ED0E02401F9D02D
:1010A300E03400FAD0E0FBE55A0460DCD55AD9807D
:1010B30087D20280A21212AF60F7E55A70010412C0
:1010C300008EA95A600DE55A600914F55A12135699
:1010D300EF60F3EA30E702F404C3995077EAF425AA
:1010E3005A0430E701E404F55A800D1212AF60C1CF
:1010F300EA055A255A12008EEA7857F630E701E4DA
:10110300255A04D55A04200501141212CCE4C0E078
:101113001213567857E6601320E70714F6120F569A
:10112300802204F6D0E014C0E07F00120F56E55A87
:101133006007120F4D155A800B300503120F4DD067
:10114300E0020FA7D0E00480C51212AF60A0E55AF9
:101153000412008E7857EAF6E55A2005026001046E
:0511630024041212CC6F
:1011680074FF04C0E0121356120F56E55A20050208
:101178006003120F4DD0E0B55AE87F45120F607832
:1011880057E67F2B30E7047F2DF404C0E0120F6E82
:10119800D0E075F00A84C0F0120F57D0E0120F5754
:1011A800020FA7791080027908C206C2088008D207
:1011B800D5790A8004790AC2D5E55A047002F55A2D
:1011C800E4FAFDFEFF120F33FC7B08200113120F17
:1011D80033FD7B1030000A120F33FE120F33FF7BF2
:1011E80020EC3382D592D55013C3E43000069FFF1C
:1011F800E49EFEE42001039DFDE49CFCE4CBF8C2E0
:1012080001EC700CCFCECDCCE824F8F870F3801741
:10121800C3EF33FFEE33FEED33FDEC33FCEB33FB72
:10122800994002FB0FD8E9EB300105F8D0E0C4483B
:10123800B201C0E00AEC4D4E4F78207B0070C2EA44
:10124800B55A0040BCC0E01212CED0F0D0E0200168
:1012580004C4C0E0C4B201C0F0120F57D0F0D5F0FA
:10126800EB020FA71208A610445311AB5810154CE7
:1012780010114211AF4F11B74411B749102A431149
:10128800BD5510EE46114C4510B847138350101940
:101298002D101D2E10402B102123103E20136C2AD8
:1012A8000FD94800001038E55AB4FF03755A0612E2
:1012B8000F33FC120F33FD120F33FE120F33FF787A
:1012C800500200BD790AA2D5200314300509B910CF
:1012D800020404B9080104A2D52006025001042022
:1012E80002689202B559005034C0E07F20300319DB
:1012F8007F30A20272067205500F121325C202C275
:1013080006C205C2087F30800F300503E9C0E0122D
:101318000F6E300503D0E0F9D0E0B559CC30051791
:101328007F30B9100C120F6E7F583004077F788019
:1013380003B90803120F6E3002057F2D020F6E7F6E
:10134800202008F87F2B2006F322920280CF7F000E
:10135800B4070050052450F8E6FF22286E756C6C1F
:101368002900D201120F333001F8C201785930D563
:101378000108F6020FD92D50434958120F332403A0
:10138800B405004001E490137E93120F5F743A1283
:0A1398000F5FD2037559040211AB78
:1013A200E55630030104F823282444F8227841301A
:1013B20003027844E475F00112088602065D60ECCF
:1013C200C55A7002155914C55A200304FF0227E2B8
:1013D200784174FFF5F0020896FF022786E5576010
:1013E20006D557037F002220030F122799EF6008CA
:1013F200055AE55A7002055922784112087D1206F3
:101402005DFF60E97841E475F00112088680DE1222
:1014120013E9EFC0E01213DBD0E040F380A0D20367
:101422008002C2038B418A428943E4F558F556F59E
:1014320059F55A755700C202C200C201C204121302
:10144200AFFF7005AF587E0022B425301213AFFFF4
:1014520024D0B40A00500C75F00AC557A42557F5DC
:101462005780E924CFB41A00EF5002C2E50216BD3C
:10147200D20180D8D20080D4D20480D0EF1213DB04
:101482005008121411EF600E80A9EFC0E01213E9A8
:10149200D0E06F609EEF60741213C080A71213E950
:1014A200EF6069E5577007055780031213E9EF6093
:1014B2001420040E1213A2E475F001120886EF1232
:1014C20006A3D557E62004040556055880BA121320
:1014D200DFEFC0E01213DBD0E050041213C0E4FFD0
:1014E20020040E1213A2E475F001120886EF120610
:1014F200A3EF70DA20040405560558808BE5576087
:101502000205571214111213DFEF70C6300304E400
:101512001213C0E55860030214467EFF7FFF22E5E6
:101522005760020557121411D206D2051213DFEFCB
:1015320030060260D7C0E01213C0D0E0AC5BAD5CF5
:10154200AE5DAF5E121F4D8C5B8D5C8E5D8F5E500B
:10155200071213E9C20580D42004102005020558A1
:081562001213A212087D0556C8
:10156A00120826021435D0E0809A7900800A791090
:10157A00800679088002790AD205E5576002055784
:10158A00E9C0E0121411EF60DD1213E9BF2D04D295
:10159A00028003BF2B09121411EF60CA1213DFD0A5
:1015AA00E0B40A028033B40802802EBF30277002EA
:1015BA007408C205C0E01213DFD0E0BF78028003CE
:1015CA00BF58160557D557028007D55704D205804C
:1015DA000B741080197002740ABF000AEFF8E4FC59
:1015EA00FDFEFF021670C0E0EF1213C0D0E0F9E46E
:1015FA00FCFDFEFFE9C0E0ECC0E0EDC0E0EEC0E0BB
:10160A00EFC0E01213DFEFF8D0E0FFD0E0FED0E049
:10161A00FDD0E0FCD0F0E8604DB461004007B47B37
:10162A00005002C2E524D0503DFA24F6500724F9AE
:10163A005034240AFAEAB5F000502BCFA9F0A42FAF
:10164A00FF92D5E9C5F0CEA4A2D53EFE92D5E9C552
:10165A00F0CDA4A2D53DFD92D5E9C5F0CCA4A2D582
:10166A003CFCC205808EE8C0E020042A200508055B
:10167A00583002031207F11213A212087D055620F0
:10168A00000B20010DEE8FF01206B5800912082614
:10169A008004EF1206A3D0E01213C002143520040E
:1016AA00101213A212087D0556E559855AF0120642
:1016BA00B580E81208A614FF5315785814764C140E
:1016CA007242144E48157C4F158044149F4315747A
:1016DA0049158055152146152145152147147A2AA1
:0716EA0016A84E0000147E5B
:10008E00F920E72824F950037907E4F42402FB1839
:10009E00DBFDE624FB5014E9600DE4F618E604F6E9
:0F00AE00B40A08E4F6D9F57401F60A22C2D52285
:1000BD00ED33EC3392D5FA602AB4FF33EDC2E77B12
:1000CD00FF60067A0079E2E4227A0079EB20D5040C
:1000DD007A0079E6224E614E002B494E46002D499D
:1000ED004E4600E47A08F608DAFC7B00740722E835
:1000FD00C0E0ECC0E0EDC0E0EEC0E0EFC0E0EA75BE
:10010D00F010A4CAABF075F04DA42BFBE435F0FC58
:10011D00EA2410FAEB34C5FBEC34D9FCEDC2E7FF51
:10012D0075F056A4F42411C5F0F434C58FF0A42A4B
:10013D00E5F03BE43CF620E714120527D0E0FFD0B4
:10014D00E0FED0E0FDD0E0FC12040B8014F40412AC
:10015D000527D0E0FFD0E0FED0E0FDD0E0FC12039B
:10016D0002D0E0F8E6FAEDD2E7CD33EC332482FB92
:10017D00E4C3CF33CFCE33CECD33CD33DBF37B07DB
:10018D0075F00A846004F6081B0AE5F0F6088FF096
:10019D00740AA4FFACF08EF0740AA42CFEACF050DF
:1001AD00010C8DF0740AA42CFDE435F0F608DBDEAD
:0301BD00740722A2
:101F3A00C207C208C209C20AF9E4F55FF560FCFDEE
:101F4A00FEFFE91006EA20090CB42D04D209D322B7
:101F5A00B42B02D32224D0504794095041240A308A
:101F6A000A15F88560F0740AA42872E74051C5F092
:101F7A00704D85F060D322D208C0E0E4FBFA7920E4
:101F8A007841120302ECF8EDF9EEFAEFFBD0E0FC2F
:101F9A00E41204C31202113007B4155FD322240AD3
:101FAA00200A20B4FE0720071AD207D32224EB60A6
:101FBA000424E0700EA2099207D20AC209D322C3EE
:101FCA000201F5E4300A0BE560300902F404A207C5
:101FDA0092093008EA255F20D2E5A2E7920A500268
:101FEA00F404B4260050D8CCC0E0EDC0E0EEC0E066
:101FFA00EFC0E0EC120527D0E0FFD0E0FED0E0FD14
:10200A00D0E0FC200A05120302800312040B3009F7
:06201A00031204A8C3221A
:1001C000E9D2E7C933E833F892D5EDD2E7CD33EC85
:0701D00033FC5002B2D522FE
:1001D700EC30E7100FBF000C0EBE00080DBD000489
:1001E7000BEB6014A2D5EB13FCED92E7FD2274FF35
:1001F700FCFDFEFF22E480F8A2D574FF13FC7D808E
:03020700E480EFA1
:10020A000201F5E86480F8E933E83360110460F02C
:10021A00ED33EC337009E8FCE9FDEAFEEBFF22045A
:10022A0060DED3EB9FEA9EE99DE8C2E78CF0C2F755
:10023A0095F0400CE8CCF8E9CDF9EACEFAEBCFFB21
:10024A001201C085D0F05804700320D5B3E80470B9
:10025A00075002B2D50201FF92D5EC0460F7E4CC54
:10026A00C0E0C398F8603B94186008400DD0E0FBEA
:10027A000201D7E4FBFAC9FC8028E830E406E4C9A5
:10028A00FBE4CAFCE830E305E4C9CACBFCE854073E
:10029A006010F8C3E913F9EA13FAEB13FBEC13FC49
:1002AA00D8F130F52FC3E49CFCEF9BFFEE9AFEEDEC
:1002BA0099FDD0E0FBEF4E4D4C701222DB03020198
:1002CA00FCEC2CFCEF33FFEE33FEED33FDED30E7B3
:1002DA00EB0201D7EF2BFFEE3AFEED39FDD0E0FB42
:1002EA0050130BBB00030201FFED13FDEE13FEEFEB
:0802FA0013FFEC13FC0201D715
:10030200EC4D6011E8497017ED33EC3304600DE4F5
:10031200FCFFFEFD22E933E8330470F80201F51216
:1003220001C058046009E4CC248150062850090217
:1003320001FF2840030201FCC0E0EB4A7044B9808F
:1003420006D0E0FB0201EBEF4E701CBD8008EBFF14
:10035200EAFEE9FD80EBE98DF0A4FEE5F00203EB95
:10036200E9CDF9EAFEEBFFEF89F0A4FCE5F0CE89D6
:10037200F0A42EFFE435F0CD89F0A42DFEE435F093
:100382008067EF4E7005BD80D780C3EF8BF0A4ACC1
:10039200F0EE8BF0A42CFCE435F0F8EF8AF0A42CFC
:1003A200E5F038FCE433CB8DF0A42CFCE5F03BF80F
:1003B200EE8AF0A42CFCE5F038F8E433CF89F0A4FF
:1003C2002CFCE5F038CF3400CE89F0A42FFFE5F005
:1003D2003EFEE433C98DF0A42EFEE5F039CD8AF05D
:1003E200A42FFFE5F03EFEE43DFD33D0E0FB5007D5
:1003F2000BBB000F0201FFEC2CFCEF33FFEE33FED0
:06040200ED33FD0201D7FD
:100408000201FFEC5D046005E8590470030201F580
:100418001201C0580460F6EC4860F2EC7004FDFE6E
:10042800FF22C860DB2481C85009C39860025006C7
:100438000201FC9850CAF582E9294B4A7005AB8243
:100448000201EB75F0007C1A7880C3EF9BEE9AED01
:1004580099400DC3EF9BFFEE9AFEED99FDE842F03F
:10046800DC23ACF0D0E0FFD0E0FED0E0FDAB822092
:10047800E7101BEB60BAEC2CFCEF33FFEE33FEED1C
:1004880033FD0201D7E803F830E705C0F075F00046
:10049800EF2FFFEE33FEED33FD40B830E7C280AA00
:1004A800ED33EC33600A047003BD8004ECB2E7FC62
:0104B8002221
:1004B90075F020800E75F010800575F0087D007EBE
:1004C900007F003392D530D5031207F1EC33401089
:1004D900EF33FFEE33FEED33FDEC33FCD5F0ED22C7
:0E04E900E5F0247EA2D513CC92E7CDCEFF2203
:1004F7003F8000004120000042C80000447A00000D
:10050700461C400047C35000497424004B1896808E
:100517004CBEBC205A0E1BCA6753C21C749DC5AE85
:10052700FB60065407601C2323120555EB54386003
:1005370009120541120550120302ECF8EDF9EEFA23
:10054700EFCB22EB12055080F1543803241C9004A2
:10055700F7FE93FC0EEE93FD0EEE930ECE93FF2265
:0300000002235484
:0C235400787FE4F6D8FD7581C402239B5D
:10056700E709F608DFFA8046E709F208DFFA803E76
:1005770088828C83E709F0A3DFFA8032E309F60863
:10058700DFFA8078E309F208DFFA807088828C83CB
:10059700E309F0A3DFFA806489828A83E0A3F6087F
:1005A700DFFA805889828A83E0A3F208DFFA804C59
:1005B70080D280FA80C680D4806980F28033801030
:1005C70080A680EA809A80A880DA80E280CA803399
:1005D70089828A83ECFAE493A3C8C582C8CCC58311
:1005E700CCF0A3C8C582C8CCC583CCDFE9DEE780E1
:1005F7000D89828A83E493A3F608DFF9ECFAA9F060
:10060700EDFB2289828A83ECFAE0A3C8C582C8CCB5
:10061700C583CCF0A3C8C582C8CCC583CCDFEADECE
:10062700E880DB89828A83E493A3F208DFF980CC30
:1006370088F0EF60010E4E60C388F0ED2402B40429
:100647000050B9F582EB2402B4040050AF232345D0
:0606570082239005B77339
:10065D00BB010689828A83E0225002E722BBFE029B
:09066D00E32289828A83E49322CE
:10067600BB010CE58229F582E5833AF583E0225039
:1006860006E92582F8E622BBFE06E92582F8E22283
:0D069600E58229F582E5833AF583E493229D
:1006A300BB010689828A83F0225002F722BBFE0136
:0206B300F32230
:1006B500BB010A89828A83F0E5F0A3F0225006F790
:0F06C50009A7F01922BBFE06F3E5F009F319228D
:1006D400E88FF0A4CC8BF0A42CFCE98EF0A42CFCC5
:1006E4008AF0EDA42CFCEA8EF0A4CDA8F08BF0A443
:1006F4002DCC3825F0FDE98FF0A42CCD35F0FCEBA2
:100704008EF0A4FEA9F0EB8FF0A4CFC5F02ECD3966
:0F071400FEE43CFCEAA42DCE35F0FDE43CFC22D3
:1007230075F008758200EF2FFFEE33FECD33CDCC8D
:1007330033CCC58233C5829BED9AEC99E582984010
:100743000CF582EE9BFEED9AFDEC99FC0FD5F0D6ED
:10075300E4CEFBE4CDFAE4CCF9A88222B800C1B917
:100763000059BA002DEC8BF084CFCECDFCE5F0CB55
:10077300F97818EF2FFFEE33FEED33FDEC33FCEB8E
:1007830033FB10D703994004EB99FB0FD8E5E4F949
:10079300FA227818EF2FFFEE33FEED33FDEC33FC36
:1007A300C933C910D7059BE99A4007EC9BFCE99A2A
:1007B300F90FD8E0E4C9FAE4CCFB2275F010EF2F6F
:1007C300FFEE33FEED33FDCC33CCC833C810D7076F
:1007D3009BEC9AE899400AED9BFDEC9AFCE899F8AA
:0E07E3000FD5F0DAE4CDFBE4CCFAE4C8F9223D
:10004600C2D5E830E70FB2D5E4C39BFBE49AFAE4E5
:1000560099F9E498F8EC30E717B2D512007C12074C
:100066005FE4C39BFBE49AFAE499F9E498F8800309
:1000760012075F30D50DE4C39FFFE49EFEE49DFDAD
:04008600E49CFC22D8
:0E07F100C3E49FFFE49EFEE49DFDE49CFC2219
:1007FF00EB9FF5F0EA9E42F0E99D42F0EC6480C871
:06080F0064809845F02210
:10081500EB9FF5F0EA9E42F0E99D42F0E89C45F039
:0108250022B0
:10082600BB010789828A830208405005E9F802095C
:0A083600E1BBFE05E9F80209ED221E
:0C084000ECF0A3EDF0A3EEF0A3EFF0222B
:10084C00A8828583F0D083D08212086312086312C9
:10085C000863120863E473E493A3C583C5F0C583EE
:10086C00C8C582C8F0A3C583C5F0C583C8C582C8F6
:01087C002259
:09087D00E6FB08E6FA08E6F922A0
:10088600FAE6FB0808E6F925F0F618E6CA3AF62273
:10089600FAE6FB0808E625F0F9F618E63AFAF62233
:1008A600D083D082F8E4937012740193700DA3A3E1
:1008B60093F8740193F5828883E4737402936860F5
:0608C600EFA3A3A380DFF5
:10267500EFB40A07740D122680740A309811A899D0
:10268500B8130CC2983098FDA899C298B811F630C5
:0726950099FDC299F599229D
:10279900100E0B1227BABF0D027F0A022675AF640D
:0127A900220D
:0527E2008F64D20E22FD
:10278600EFC394094005EF940E4003BF2003D380A6
:0327960001C3225A
:1024C5008B418A4289438B478A488949AB410543F9
:1024D500E543AA427002054214F912065D70ED74D7
:1024E500FF2543F54374FF3542F542AB440546E508
:1024F50046AA457002054514F912065DFFAB410574
:1025050043E543AA427002054214F9EF1206A3708F
:08251500DAAB47AA48A94922EC
:1008CC00E709F60870FA8046E709F20870FA803EEC
:1008DC0088828C83E709F0A370FA807EE309F6081E
:1008EC0070FA8076E309F20870FA806E88828C8345
:1008FC00E309F0A370FA806289828A83E0A3F60888
:10090C0070FA805689828A83E0A3F20870FA804AD2
:10091C0080D280FA80C680D4806580F280318010CD
:10092C0080A680EA809A80A880DA80E280CA803132
:10093C0089828A83ECFAE493A3C8C582C8CCC583A8
:10094C00CCF0A3C8C582C8CCC583CC70E9800D8916
:10095C00828A83E493A3F60870F9ECFAA9F0EDFB14
:10096C002289828A83ECFAE0A3C8C582C8CCC583ED
:10097C00CCF0A3C8C582C8CCC583CC70EA80DD8915
:10098C00828A83E493A3F20870F980CE88F0ED2478
:10099C0002B4040050C4F582EB2402B4040050BA33
:0909AC00232345822390091C73EA
:10274B00E4FFFE12065D600C0FEF70010E09E970DD
:05275B00F20A80EF22EC
:1023E0008B408A418942AB43AA44A94512065D60ED
:1023F00063AB40AA41A94212065D605F85434685F2
:1024000044478545488B498A4A894BAB46AA47A928
:102410004812065DFF6023AB49AA4AA94B12065D2C
:102420006F7017042548F548E43547F547740125D2
:102430004BF54BE4354AF54A80D1AB46AA47A9484B
:1024400012065D7002800D74012542F542E43541AB
:10245000F541809DAB40AA41A942227B007A0079D8
:02246000002258
:1009B500EF4E6012EF60010EEDBB010B89828A8359
:1009C500F0A3DFFCDEFA2289F05007F709DFFCA966
:0C09D500F022BBFEFCF309DFFCA9F022BD
:1023600002270BE493A3F8E493A34003F68001F261
:1023700008DFF48029E493A3F85407240CC8C3337E
:10238000C4540F4420C8834004F456800146F6DF4D
:10239000E4800B0102040810204080900026E47EB7
:1023A000019360BCA3FF543F30E509541FFEE49342
:1023B000A360010ECF54C025E060A840B8E493A309
:1023C000FAE493A3F8E493A3C8C582C8CAC583CA34
:1023D000F0A3C8C582C8CAC583CADFE9DEE780BEEC
:0100420000BD
:0C09E100ECF608EDF608EEF608EFF62242
:0C09ED00ECF208EDF208EEF208EFF22246
:0A27BA003098FDAF99C2987E00220E
:00000001FF
