:1003080022313730383635353838393622004154BD
:100318002B435245473F0041544531004F4B004164
:10032800542B434D47463D310041542B43534353CF
:100338003D2247534D220041542B43534D503D31EC
:10034800372C3136372C302C3234310041542B4382
:100358005343413F003E0047505320646174613A63
:100368000041542B43474E53494E460D0A002C007A
:100378006C617469747564653A4E006C6F6E676978
:10038800747564653A4500656C65766174696F6E6D
:100398003A0041542B43474E535057523D310D0AB2
:1003A80000554E562D53494D3830382D5445535429
:1003B8000041542B434D47533D000000000000000E
:1003C8000000000000000000000000000000000025
:1003D8000000000000000000000000000000000015
:0303E80000000012
:10057900030BFF030860640000554E562D53494D87
:100589003830382D4750532D54455354000000003E
:100599000000000000000000000000000000000052
:1005A9000000000000000000000000000000000042
:1005B9000000000000000000000000000000000032
:1005C9000000000000000000000000000000000022
:1005D9000000000000000000000000000001090008
:0C05E900010A00011200011100010800CD
:03002300020923AC
:10092300C0E0C083C082C0D030981CC298746425D4
:100933000AF582E43400F583E599F0050AE50AD364
:1009430094C84003750A00309902C299D0D0D0826E
:05095300D083D0E0326A
:1009BC00538E7F5389F0438901E4F58A758CB8C254
:0609CC008DD28CD2A9229D
:03000B00020838B0
:0D083800C0E0C0F0C0D075D000C000C00707
:10084500C28C758A00758CB80508E508C3943240DA
:1008550005750800B290E516600215163000020510
:1008650009E51275F032A4FFD3E5099FE5F0648030
:0D087500F87480984005C200750900D28C0F
:0B088200D007D000D0D0D0F0D0E03282
:0F000E00E4FF7EC8900064E4F0A3DEFCE4F50A92
:01001D0022C0
:10072600E4F52112000EE521705212000E7BFF7ACD
:100736000379161209587F0D1209D27F0A1209D2BF
:100746007FFA120003E4F522E522C394C850D77459
:10075600642522F582E43400F583E0B43A1A74681D
:100766002522F582E43400F583E0FF64316004EF6E
:0C077600B4350575210180AE052280CC51
:010782002254
:10097D008B618A6289638B678A6889697B017A00DA
:10098D007964120477E94A4B60037F01227F0022CC
:06065F008B568A578958F2
:100665008B5E8A5F896012000EE4F55DE55D704F73
:10067500AB59AA5AA95B12097DEF703C2000ED85A4
:100685005E56855F57856058AB56AA57A958120222
:10069500B0FF60101209D274012558F558E435579A
:1006A500F55780E47F0D1209D27F0A1209D2E4F5CD
:0F06B50009855C12D20080B4755D01C20080AD72
:0106C4002213
:1005F6007559FF755A03755B24755C037BFF7A0397
:10060600791F12065F7559FF755A03755B24755C71
:10061600037BFF7A03792712065F7559FF755A0324
:10062600755B24755C037BFF7A03793112065F756F
:1006360059FF755A03755B24755C037BFF7A037952
:100646003F12065F7559FF755A03755B24755C0387
:090656007BFF7A03795402065F70
:06088D008B218A22892361
:1008930078247C007D007BFF7A0379B97E007F3268
:1008A30012028A850B59850C5A850D5B7B007A00F1
:1008B30079241207E07559FF755A03755B5D755C02
:1008C300037B007A00792412065FAB21AA22A923B5
:0808D3001209587F1A0209D234
:10002600E4900000F07559FF755A03755B5F7B011C
:100036007A0079001207E07559FF755A03755B243B
:10004600755C037BFF7A03796912065F7567FF7536
:1000560068037569247B017A0079641204778B0E34
:100066008A0F8910E94A4B60047F0180027F00EF06
:1000760070030201B7AB0EAA0FA910E41202C975EC
:1000860024FF7525037526767B017A0079641204B0
:10009600F98B0E8A0F8910E94A4B70037F0122758E
:1000A60024FF7525037526767B007A0079001204F5
:1000B600F98B0E8A0F8910E94A4B70037F0222756D
:1000C60024FF7525037526767B007A0079001204D5
:1000D600F98B0E8A0F8910E94A4B70037F0322754C
:1000E60024FF7525037526767B007A0079001204B5
:1000F600F98B0E8A0F8910E94A4B70037F0422752B
:1001060059FF755A03755B787B017A0079001207EF
:10011600E0850E59850F5A85105B7B017A007900C0
:100126001207E07524FF7525037526767B007A0095
:1001360079001204F98B0E8A0F8910E94A4B700375
:100146007F05227559FF755A03755B837B017A001B
:1001560079001207E0850E59850F5A85105B7B01E1
:100166007A0079001207E07524FF75250375267657
:100176007B007A0079001204F98B0E8A0F8910E948
:100186004A4B70037F06227559FF755A03755B8FBC
:100196007B017A0079001207E0850E59850F5A8592
:1001A600105B7B017A0079001207E012000E7F00D7
:0401B600227F07227B
:1008DB001209BCD2AF12099D1207261205F67559E3
:1008EB00FF755A03755B24755C027BFF7A03799A5B
:1008FB0012065F7BFF7A0379A912088D20B5057F5D
:10090B000A12000320B5F5120026EF70EF7B017A77
:08091B0000790012088D80E450
:070003008F16E51670FC22C8
:10099D0053877F759850538EBF538EFE53890F43E7
:0F09AD008920758BFD758DFDC2ABD28ED2AC2229
:0C09D200C2AC8F993099FDC299D2AC22C2
:100958008B568A578958AB56AA57A9581202B060C5
:10096800130558E5587002055714F91202B0FF1222
:0509780009D280E2221B
:030000000203EB0D
:0C03EB00787FE4F6D8FD75816F020432C3
:1001BA00E709F608DFFA8046E709F208DFFA803E27
:1001CA0088828C83E709F0A3DFFA8032E309F60814
:1001DA00DFFA8078E309F208DFFA807088828C837C
:1001EA00E309F0A3DFFA806489828A83E0A3F60830
:1001FA00DFFA805889828A83E0A3F208DFFA804C0A
:10020A0080D280FA80C680D4806980F280338010E0
:10021A0080A680EA809A80A880DA80E280CA803349
:10022A0089828A83ECFAE493A3C8C582C8CCC583C1
:10023A00CCF0A3C8C582C8CCC583CCDFE9DEE78091
:10024A000D89828A83E493A3F608DFF9ECFAA9F010
:10025A00EDFB2289828A83ECFAE0A3C8C582C8CC66
:10026A00C583CCF0A3C8C582C8CCC583CCDFEADE7F
:10027A00E880DB89828A83E493A3F208DFF980CCE1
:10028A0088F0EF60010E4E60C388F0ED2402B404DA
:10029A000050B9F582EB2402B4040050AF23234581
:0602AA00822390020A739A
:1002B000BB010689828A83E0225002E722BBFE024C
:0902C000E32289828A83E493227F
:1002C900BB010689828A83F0225002F722BBFE0114
:0202D900F3220E
:1007E0008B568A5789588B5C8A5D895EAB56055853
:1007F000E558AA577002055714F91202B070ED744B
:10080000FF2558F55874FF3557F557AB59055BE58B
:100810005BAA5A7002055A14F91202B0FFAB5605D2
:1008200058E558AA577002055714F9EF1202C9701B
:08083000DAAB5CAA5DA95E22AF
:100477008B648A658966AB67AA68A9691202B0604E
:1004870063AB64AA65A9661202B0605F85676A8577
:10049700686B85696C8B6D8A6E896FAB6AAA6BA96D
:1004A7006C1202B0FF6023AB6DAA6EA96F1202B087
:1004B7006F701704256CF56CE4356BF56B740125CB
:1004C7006FF56FE4356EF56E80D1AB6AAA6BA96CD8
:1004D7001202B07002800D74012566F566E4356579
:1004E700F565809DAB64AA65A966227B007A0079D1
:0204F7000022E1
:1004F9008B218A228923E94A4B70098513218514A6
:1005090022851523E523452245217002802C852467
:100519002A85252B85262CAB21AA22A9231206C5BB
:10052900EF2523F523EE3522F522AB21FAA9231273
:1005390002B0700AF513F514F515FBFAF9228524B2
:100549002A85252B85262CAB21AA22A923120783CC
:100559008B138A148915EA494B600EE41202C90407
:100569002515F515E43514F514AB21AA22A9232282
:1003F7000208DBE493A3F8E493A34003F68001F239
:1004070008DFF48029E493A3F85407240CC8C33306
:10041700C4540F4420C8834004F456800146F6DFD5
:10042700E4800B0102040810204080900579E47EE7
:10043700019360BCA3FF543F30E509541FFEE493CA
:10044700A360010ECF54C025E060A840B8E493A391
:10045700FAE493A3F8E493A3C8C582C8CAC583CABC
:10046700F0A3C8C582C8CAC583CADFE9DEE780BE74
:0105F5000005
:1006C5008B278A288929E4F52DF52EE4FEFFAB2A30
:1006D500AA2BA92C8F828E831202DBFD6013AB2718
:1006E500AA28A9291202B06D60070FBF00010E806C
:1006F500DDAB2AAA2BA92C8F828E831202DB700216
:10070500801A052EE52E7002052DAB270529E52952
:1007150070020528F9AA281202B070AFAE2DAF2ECF
:0107250022B1
:100783008B278A288929852A2D852B2E852C2FAB0B
:100793002DAA2EA92F1202B0FF6019AB27AA28A9F0
:1007A300291202B06F600D7401252FF52FE4352E49
:1007B300F52E80DBAB2DAA2EA92F1202B06007AB5A
:1007C30027AA28A92922AB270529E529AA287002E7
:0D07D300052814F91202B070ADFBFAF922EE
:1002DB00BB010CE58229F582E5833AF583E02250D8
:1002EB0006E92582F8E622BBFE06E92582F8E22222
:0D02FB00E58229F582E5833AF583E493223C
:00000001FF
