:10054F0041540D0A004F4B0D0A0041542B435049A3
:10055F004E3F0D0A00524541445900415444003B5F
:10056F000D0A000000000000000000000000000065
:07057F000000000000000075
:100621000437000000000C3B313737313932327862
:04063100787878005D
:100496001206397522FF752305752454E47528B8AC
:1004A60075270B12026DEF64014E60031205DF7FA4
:1004B6000A7E001200037522FF752305752464E485
:1004C6007528E8752703F526F52575290A7BFF7A31
:1004D60005795912027AEF64014E60031205DF7F37
:1004E6000A7E001200037B007A00793B120390809B
:0104F600FE07
:060390008B088A09890AAE
:10039600780B7C007D007BFF7A0579727E007F14E6
:1003A6001200F67E007F147D007B007A00790B1226
:1003B600022F780B7C007D007BFF7A05796A12029A
:1003C60012850822850923850A247B007A00790B89
:1003D6001204F77522FF75230575246E7B007A00DB
:1003E600790B1204F77522FF752305752454E475FD
:1003F6002810752727F526F52575290AFB7A007931
:0D0406000B12027AEF64014E60031205DF55
:0104130022C6
:1005DF007522FF752305752454E4752864F52712D9
:1005EF00026DEF64014E700312066C7FC87E00121D
:0405FF00000380DC99
:03066C0002000089
:0D026D00F526F52575290A7BFF7A05794FE6
:06027A008B1F8A20892180
:10028000120651E4F52AE52AC395295070AB1FAA3E
:1002900020A9211205BAE4F53AF539F538F537AF5A
:1002A00028AE27AD26AC25AB3AAA39A938A837C362
:1002B000120135503B7F647E00120003E53A24644E
:1002C000F53AE43539F539E43538F538E43537F5BC
:1002D0003785222E85232F8524307B017A007900F3
:1002E000120414E94A4B60B71206517E007F0122C6
:1002F000E4F53AF539F538F537052A8089120651C3
:03030000E4FEFF19
:0103030022D7
:10000300E4FDFCC3ED9FEC9E5015E4FBFA0BBB0033
:0F001300010AEB647B4A70F50DBD00010C80E41F
:0100220022BB
:03063500014A0077
:10063900759850D29CE4F587758920758DFD758B69
:08064900FDD28ED2AFD2AC222B
:080664008F993099FDC2992223
:1005BA008B2B8A2C892DAB2BAA2CA92D12011C60FE
:1005CA0013052DE52D7002052C14F912011CFF12DA
:0505DA00066480E2222E
:100603008B478A4889498B2E8A2F89307B017A0050
:0E0613007900120414E94A4B6002D322C3227C
:100651007E007F647D007B017A00790012022FE425
:03066100F54A2235
:030023000205864D
:10058600C0E0C083C082C0D0C2AC30981CC2987490
:1005960000254AF582E43400F583E599F0054AE53D
:1005A6004AC394644003754A00D2ACD0D0D082D0FE
:0405B60083D0E032DC
:03000000020304F4
:0C030400787FE4F6D8FD75814A02034BB7
:10002600E709F608DFFA8046E709F208DFFA803EBC
:1000360088828C83E709F0A3DFFA8032E309F608A9
:10004600DFFA8078E309F208DFFA807088828C8311
:10005600E309F0A3DFFA806489828A83E0A3F608C5
:10006600DFFA805889828A83E0A3F208DFFA804C9F
:1000760080D280FA80C680D4806980F28033801076
:1000860080A680EA809A80A880DA80E280CA8033DF
:1000960089828A83ECFAE493A3C8C582C8CCC58357
:1000A600CCF0A3C8C582C8CCC583CCDFE9DEE78027
:1000B6000D89828A83E493A3F608DFF9ECFAA9F0A6
:1000C600EDFB2289828A83ECFAE0A3C8C582C8CCFC
:1000D600C583CCF0A3C8C582C8CCC583CCDFEADE15
:1000E600E880DB89828A83E493A3F208DFF980CC77
:1000F60088F0EF60010E4E60C388F0ED2402B40470
:100106000050B9F582EB2402B4040050AF23234516
:06011600822390007673C5
:10011C00BB010689828A83E0225002E722BBFE02E1
:09012C00E32289828A83E4932214
:10013500EB9FF5F0EA9E42F0E99D42F0E89C45F020
:010145002297
:1004F7008B1F8A2089218B258A268927AB1F0521F7
:10050700E521AA207002052014F912011C70ED7470
:10051700FF2521F52174FF3520F520AB220524E5C1
:1005270024AA237002052314F912011CFFAB1F052F
:1005370021E521AA207002052014F9EF12025B7051
:08054700DAAB25AA26A9272240
:10014600E709F60870FA8046E709F20870FA803E79
:1001560088828C83E709F0A370FA807EE309F608AB
:1001660070FA8076E309F20870FA806E88828C83D2
:10017600E309F0A370FA806289828A83E0A3F60815
:1001860070FA805689828A83E0A3F20870FA804A60
:1001960080D280FA80C680D4806580F2803180105B
:1001A60080A680EA809A80A880DA80E280CA8031C0
:1001B60089828A83ECFAE493A3C8C582C8CCC58336
:1001C600CCF0A3C8C582C8CCC583CC70E9800D89A4
:1001D600828A83E493A3F60870F9ECFAA9F0EDFBA2
:1001E6002289828A83ECFAE0A3C8C582C8CCC5837B
:1001F600CCF0A3C8C582C8CCC583CC70EA80DD89A3
:10020600828A83E493A3F20870F980CE88F0ED2405
:1002160002B4040050C4F582EB2402B4040050BAC0
:0902260023234582239001967305
:100414008B2B8A2C892DAB2EAA2FA93012011C609C
:1004240063AB2BAA2CA92D12011C605F852E31858C
:100434002F328530338B348A358936AB31AA32A9D1
:100444003312011CFF6023AB34AA35A93612011CF8
:100454006F7017042533F533E43532F53274012512
:1004640036F536E43535F53580D1AB31AA32A933CA
:1004740012011C7002800D7401252DF52DE4352C1C
:10048400F52C809DAB2BAA2CA92D227B007A007918
:02049400002244
:10022F00EF4E6012EF60010EEDBB010B89828A83E6
:10023F00F0A3DFFCDEFA2289F05007F709DFFCA9F3
:0C024F00F022BBFEFCF309DFFCA9F0224A
:10031000020496E493A3F8E493A34003F68001F269
:1003200008DFF48029E493A3F85407240CC8C333EE
:10033000C4540F4420C8834004F456800146F6DFBD
:10034000E4800B0102040810204080900621E47E26
:10035000019360BCA3FF543F30E509541FFEE493B2
:10036000A360010ECF54C025E060A840B8E493A379
:10037000FAE493A3F8E493A3C8C582C8CAC583CAA4
:10038000F0A3C8C582C8CAC583CADFE9DEE780BE5C
:0106380000C1
:10025B00BB010689828A83F0225002F722BBFE0182
:02026B00F3227C
:00000001FF
