:070003008F16E51670FC22C8
:10036000223135313234353332363732220041547E
:100370002B43474E535057523D310D0A004F4B000F
:1003800041542B43474E535345513D22524D432236
:100390000D0A0041542B43474E53494E460D0A0067
:1003A0002B43474E53494E463A20312C312C0041C5
:1003B000542B43474E535552433D300D0A0047508E
:1003C0005320646174613A002C006C617469747527
:1003D00064653A006C6F6E6769747564653A0065B0
:1003E0006C65766174696F6E3A0041544531004125
:1003F000542B434D47463D310041542B43534D5000
:100400003D31372C3136372C302C323431004154C9
:100410002B43504D533D22534D222C22534D222C21
:1004200022534D220041542B435343413F003E0091
:1004300041542B435245473F0041542B434D4753B2
:100440003D0000000000000000000000000000006F
:10045000000000000000000000000000000000009C
:0B046000000000000000000000000091
:1005F900011100030BFF03606064000047505320A2
:10060900706F736974696F6E696E67207375636360
:100619006573730000000000000000000000000086
:1006290000000000000000000000000000000000C1
:1006390000000000000000000000000000000000B1
:1006490000000000000000000000000000000000A1
:100659000000000000000000000000000000000091
:0C066900010900010A0001120001080054
:10002600120A0E12001ED2AF1209EF12080E1206A5
:10003600E47556FF75570375587D7559027BFF7A2F
:1000460003796E12067C7F641200037556FF75579E
:100056000375587D7559027BFF7A03798012067CF9
:100066007556FF7557037558A075590312067675B0
:1000760056FF75570375587D7559017BFF7A0379CD
:10008600AF12067C12000E1207AE30B503751101D1
:1000960020B5F7E51160F3E4F511900000F0755610
:1000A600FF7557037558BE7B017A0079001208C8A0
:1000B6007556FF75570375587D7559011206767585
:1000C60064FF75650375667D7B017A0079641204A9
:1000D600F78B0E8A0F8910E94A4B60047F01800274
:1000E6007F00EF60A5AB0EAA0FA910E412032175DD
:1000F60024FF7525037526C87B017A0079641205ED
:10010600798B0E8A0F89107524FF7525037526C80D
:100116007B007A0079001205798B0E8A0F8910759B
:1001260024FF7525037526C87B007A007900120521
:10013600798B0E8A0F89107524FF7525037526C8DD
:100146007B007A0079001205798B0E8A0F8910756B
:1001560056FF7557037558CA7B017A007900120855
:10016600C8850E56850F578510587B017A00790091
:100176001208C87524FF7525037526C87B007A000A
:1001860079001205798B0E8A0F89107556FF7557FF
:10019600037558D47B017A0079001208C8850E567B
:1001A600850F578510587B017A0079001208C875AB
:1001B60024FF7525037526C87B007A007900120591
:1001C600798B0E8A0F89107556FF7557037558DFA0
:1001D6007B017A0079001208C8850E56850F57856F
:1001E60010587B017A0079001208C87B017A0079E1
:1001F600001209AA7F0D120A247F0A120A24120786
:0C020600AE7FE812000312000E02009010
:030023000209755A
:10097500C0E0C083C082C0D030981CC29874642582
:100985000AF582E43400F583E599F0050AE50AD312
:1009950094C84003750A00309902C299D0D0D0821C
:0509A500D083D0E03218
:03000B00020920C7
:0D092000C0E0C0F0C0D075D000C000C0071E
:10092D00758A00758CB8C28C0508E508C3943240F1
:10093D0005750800B2B2E516600215163000020505
:10094D0009E51275F032A4FFD3E5099FE5F0648047
:0D095D00F87480984005C200750900D28C26
:0B096A00D007D000D0D0D0F0D0E03299
:03001E00C2B22249
:100A0E00538E7F5389F0438901E4F58A758CB8C201
:060A1E008DD28CD2A9224A
:0F000E00E4FF7EC8900064E4F0A3DEFCE4F50A92
:01001D0022C0
:1009CF008B5E8A5F89608B648A6589667B017A009A
:1009DF0079641204F7E94A4B60037F01227F0022FA
:060676007BFF7A0379937B
:06067C008B538A548955DE
:100682008B5B8A5C895D12000EE4F55AE55A704F65
:10069200AB56AA57A9581209CFEF703C2000ED853E
:1006A2005B53855C54855D55AB53AA54A95512031F
:1006B20008FF6010120A2474012555F555E43554DB
:1006C200F55480E47F0D120A247F0A120A24E4F50D
:1006D20009855912D20080B4755A01C20080AD0258
:0206E200000E08
:1006E4007556FF75570375587D7559037BFF7A035B
:1006F40079EA12067C7556FF75570375587D75594E
:10070400037BFF7A0379EF12067C7556FF75570356
:1007140075587D7559037BFF7A0379F912067C7548
:1007240056FF75570375587D7559037BFF7A047915
:100734000E12067C7556FF75570375587D7559035F
:090744007BFF7A04792502067C92
:1007AE0078217C007D007BFF7A0479397E007F32D0
:1007BE001202E2850B56850C57850D587B007A0088
:1007CE0079211208C87556FF75570475582E75593C
:1007DE00037B007A00792112067C7B017A00790076
:1007EE001209AA7F1A120A247564FF7565037566CD
:0F07FE007D7B017A0079641204F7E94A4B60E9C8
:01080D0022C8
:10080E00E4F52112000EE521705212000E7BFF7AE4
:10081E000479301209AA7F0D120A247F0A120A24C3
:10082E007FFA120003E4F522E522C394C850D77470
:10083E00642522F582E43400F583E0B43A1A746834
:10084E002522F582E43400F583E0FF64316004EF85
:0C085E00B4350575210180AE052280CC68
:01086A00226B
:1009EF0053877F759850538EBF538EFE53890F4395
:0F09FF008920758BFD758DFDC2ABD28ED2AC22D7
:0C0A2400C2AC8F993099FDC299D2AC226F
:1009AA008B538A548955AB53AA54A955120308602C
:1009BA00130555E5557002055414F9120308FF1280
:0509CA000A2480E22276
:0300000002046B8C
:0C046B00787FE4F6D8FD75816C0204B2C5
:10021200E709F608DFFA8046E709F208DFFA803ECE
:1002220088828C83E709F0A3DFFA8032E309F608BB
:10023200DFFA8078E309F208DFFA807088828C8323
:10024200E309F0A3DFFA806489828A83E0A3F608D7
:10025200DFFA805889828A83E0A3F208DFFA804CB1
:1002620080D280FA80C680D4806980F28033801088
:1002720080A680EA809A80A880DA80E280CA8033F1
:1002820089828A83ECFAE493A3C8C582C8CCC58369
:10029200CCF0A3C8C582C8CCC583CCDFE9DEE78039
:1002A2000D89828A83E493A3F608DFF9ECFAA9F0B8
:1002B200EDFB2289828A83ECFAE0A3C8C582C8CC0E
:1002C200C583CCF0A3C8C582C8CCC583CCDFEADE27
:1002D200E880DB89828A83E493A3F208DFF980CC89
:1002E20088F0EF60010E4E60C388F0ED2402B40482
:1002F2000050B9F582EB2402B4040050AF23234529
:06030200822390026273E9
:10030800BB010689828A83E0225002E722BBFE02F3
:09031800E32289828A83E4932226
:10032100BB010689828A83F0225002F722BBFE01BB
:02033100F322B5
:1008C8008B538A5489558B598A5A895BAB53055582
:1008D800E555AA547002055414F912030870ED7412
:1008E800FF2555F55574FF3554F554AB560558E5B5
:1008F80058AA577002055714F9120308FFAB53059D
:1009080055E555AA547002055414F9EF12032170E5
:08091800DAAB59AA5AA95B22CF
:1004F7008B618A628963AB64AA65A9661203086087
:1005070063AB61AA62A963120308605F85646785AC
:1005170065688566698B6A8A6B896CAB67AA68A907
:1005270069120308FF6023AB6AAA6BA96C12030860
:100537006F7017042569F569E43568F56874012556
:100547006CF56CE4356BF56B80D1AB67AA68A9696C
:100557001203087002800D74012563F563E43562A8
:10056700F562809DAB61AA62A963227B007A00795C
:02057700002260
:100579008B218A228923E94A4B7009851321851425
:1005890022851523E523452245217002802C8524E7
:100599002A85252B85262CAB21AA22A92312074DB2
:1005A900EF2523F523EE3522F522AB21FAA92312F3
:1005B9000308700AF513F514F515FBFAF9228524D9
:1005C9002A85252B85262CAB21AA22A92312086B63
:1005D9008B138A148915EA494B600EE4120321042E
:1005E9002515F515E43514F514AB21AA22A9232202
:10047700020026E493A3F8E493A34003F68001F275
:1004870008DFF48029E493A3F85407240CC8C33386
:10049700C4540F4420C8834004F456800146F6DF55
:1004A700E4800B01020408102040809005F9E47EE7
:1004B700019360BCA3FF543F30E509541FFEE4934A
:1004C700A360010ECF54C025E060A840B8E493A311
:1004D700FAE493A3F8E493A3C8C582C8CAC583CA3C
:1004E700F0A3C8C582C8CAC583CADFE9DEE780BEF4
:010675000084
:10074D008B278A288929E4F52DF52EE4FEFFAB2AA7
:10075D00AA2BA92C8F828E83120333FD6013AB2736
:10076D00AA28A9291203086D60070FBF00010E808A
:10077D00DDAB2AAA2BA92C8F828E83120333700234
:10078D00801A052EE52E7002052DAB270529E529CA
:10079D0070020528F9AA2812030870AFAE2DAF2EEE
:0107AD002229
:10086B008B278A288929852A2D852B2E852C2FAB22
:10087B002DAA2EA92F120308FF6019AB27AA28A9AE
:10088B00291203086F600D7401252FF52FE4352E07
:10089B00F52E80DBAB2DAA2EA92F1203086007AB18
:1008AB0027AA28A92922AB270529E529AA287002FE
:0D08BB00052814F912030870ADFBFAF922AC
:10033300BB010CE58229F582E5833AF583E022507F
:1003430006E92582F8E622BBFE06E92582F8E222C9
:0D035300E58229F582E5833AF583E49322E3
:00000001FF
