:030000000205CD29
:0C05CD00787FE4F6D8FD75815302061417
:100ACC007DA57C06ED1D70011C144C70F7EF1F709A
:060ADC00011E144E70EA39
:010AE20022F1
:10030C00222B3836313338303035313735303022D6
:10031C0000223133333338393135373631220053FB
:10032C00494D383038C4A3BFE9B6CCD0C5B2E2CA07
:10033C00D4B3CCD0F20D0A0053494D383038C4A395
:10034C00BFE9475053B2E2CAD4B3CCD0F20D0A0085
:10035C0041542B43474E535057523D310D0A004FD9
:10036C004B0041542B43474E535345513D22524D64
:10037C0043220D0A0041542B43474E53494E460D20
:10038C000A002B43474E53494E463A20312C312C10
:10039C000053494D383038C4A3BFE9B6A8CEBBB31F
:1003AC00C9B9A60D0A0041542B43474E535552432D
:1003BC003D300D0A0047505320646174613A002CA3
:1003CC0000CAB1BCE43A00CEB3B6C83A006C617452
:1003DC0069747564653A00BEADB6C83A006C6F6E50
:1003EC006769747564653A00BAA3B0CE3A00656C5F
:1003FC0065766174696F6E3A004154453100415421
:10040C002B434D47463D310041542B43504D533DFA
:10041C0022534D222C22534D222C22534D2200418B
:10042C00542B435245473F0041542B435343413DCA
:10043C0000000000000000000000000000000000B0
:10044C000041542B434D47533D0000000000000079
:10045C000000000000000000000000000000000090
:10046C000000000000000000000000000000000080
:03047C000000007D
:10065900030BFF030C030FFF031D606400004750E9
:100669005320706F736974696F6E696E6720737553
:100679006363657373000000000000000000000060
:100689000000000000000000000000000000000061
:100699000000000000000000000000000000000051
:1006A9000000000000000000000000000000000041
:1006B9000000000000000000000000000000000031
:1006C900000002090000010E0001190001180001D3
:0206D900080017
:10008E00120B66120AF8120B33120B0DD2AF7BFF56
:10009E007A03792B12000E1209291207DE7BFF7AE2
:1000AE0003794412000E753DFF753E03753F6B7567
:1000BE0040027BFF7A03795C12085D7F647E00123A
:1000CE000ACC753DFF753E03753F6B7540027BFF95
:1000DE007A03796E12085D753DFF753E03753F8E8E
:1000EE007540031208577BFF7A03799D12000E7537
:1000FE003DFF753E03753F6B7540017BFF7A0379BB
:10010E00B212085D120033120B2030B503751801C0
:10011E0020B5F7E51860F3E4F518900000F0753D92
:10012E00FF753E03753FC17B017A0079001209E528
:10013E00753DFF753E03753F6B754001120857758F
:10014E004BFF754C03754D6B7B017A00796412067B
:10015E00DC8B158A168917E94A4B60047F018002F1
:10016E007F00EF60A5AB15AA16A917E412058E75D0
:10017E0024FF7525037526CB7B017A00796412075F
:10018E005E8B158A1689177524FF7525037526CB88
:10019E007B007A00790012075E8B158A1689177517
:1001AE0024FF7525037526CB7B007A007900120794
:1001BE005E8B158A1689177BFF7A0379CD12000E96
:1001CE00AB15AA16A91712000E7F0D120B577F0A38
:1001DE00120B577524FF7525037526CB7B007A000D
:1001EE00790012075E8B158A1689177BFF7A0379C1
:1001FE00D312000EAB15AA16A91712000E7F0D1200
:10020E000B577F0A120B57753DFF753E03753FD98D
:10021E007B017A0079001209E585153D85163E852C
:10022E00173F7B017A0079001209E57524FF7525C9
:10023E00037526CB7B007A00790012075E8B158A38
:10024E001689177BFF7A0379E312000EAB15AA16F7
:10025E00A91712000E7F0D120B577F0A120B57753E
:10026E003DFF753E03753FE97B017A007900120967
:10027E00E585153D85163E85173F7B017A00790091
:10028E001209E57524FF7525037526CB7B007A00D0
:10029E00790012075E8B158A1689177BFF7A037910
:1002AE00F412000EAB15AA16A91712000E7F0D122E
:1002BE000B577F0A120B57753DFF753E03753FFABC
:1002CE007B017A0079001209E585153D85163E857C
:1002DE00173F7B017A0079001209E57B017A0079DC
:1002EE000012000E7F0D120B577F0A120B57120BC6
:0E02FE00207FE87E03120ACC120033020118A2
:03008B00020AE383
:100AE300C0E0E5AC30E00353ACFEE5AC30E10353CA
:050AF300ACFDD0E03273
:0300430002004672
:10004600C0E0C083C082C0D053AFFEE59A30E01D49
:10005600539AFE7464250EF582E43400F583E59B1D
:10006600F0050EE50ED394C84003750E00E59A30F0
:10007600E103539AFD43AF01D0D0D082D083D0E0C4
:010086003247
:03000B00020A3DA9
:0B0A3D00C0E0C0F0C0D075D000C007C2
:100A4800C28C0508E508C394324005750800B284D5
:100A5800300008050AE50A70020509E51975F03243
:100A6800A4FFD3E50A9FE50995F04008C20075097F
:060A780000750A00D28C9B
:090A7E00D007D0D0D0F0D0E03256
:0B0B660053B1C343B23CC285C28422DD
:100B0D00538E7F5389F0E4F58A758C70C28DD28C2B
:030B1D00D2A92238
:0F003300E4FF7EC8900064E4F0A3DEFCE4F50E69
:01004200229B
:100AAC008B458A4689478B4B8A4C894D7B017A0052
:100ABC0079641206DCE94A4B60037F01227F002235
:060857007BFF7A037981AA
:06085D008B3A8A3B893C46
:100863008B428A438944120033E4F541E5417054D5
:10087300AB3DAA3EA93F120AACEF70412000ED1236
:10088300003385423A85433B85443CAB3AAA3BA9B6
:100893003C120575FF6010120B467401253CF53CB4
:1008A300E4353BF53B80E47F0D120B467F0A120BC8
:1008B30046E4F509F50A854019D20080AF75410178
:0408C300C20080A847
:0108C700220E
:1007DE0078217C007D007BFF7A0479347E007F19BE
:1007EE0012054F753DFF753E03753F6B7540037BDC
:1007FE00FF7A04790512085D753DFF753E03753F5E
:10080E006B7540037BFF7A04790A12085D753DFF14
:10081E00753E03753F6B7540037BFF7A04791412A6
:10082E00085D850B3D850C3E850D3F7B007A00797A
:10083E00211209E5753DFF753E03753F6B7540034B
:09084E007B007A00792102085DAB
:100B200078217C007D007BFF7A04794D7E007F3246
:030B300002054F6C
:10092900E4F521120033E52170541200337BFF7A7C
:1009390004792B120A877F0D120B467F0A120B4688
:100949007F887E13120ACCE4F522E522C394C850AD
:10095900D574642522F582E43400F583E0B43A1AAB
:1009690074682522F582E43400F583E0FF64316080
:0E09790004EFB4350575210180AC052280CC59
:01098700224D
:100AF80075AC5075D5D075D4FF43D10243D1087574
:050B0800AF08D2AF228E
:100B3300759A50438E0475D7D075D6FF438E1043F4
:030B4300AF0122DD
:0F0B5700C2AF8FADE5AC30E1FB53ACFDD2AF22A6
:10000E008B218A228923AB21AA22A923120575608E
:10001E00130523E5237002052214F9120575FF124C
:05002E000B5780E222E7
:100B460053AFFE8F9BE59A30E1FB539AFD75AF01DB
:010B5600227C
:100A87008B238A248925AB23AA24A92512057560FF
:100A9700130525E5257002052414F9120575FF12C3
:050AA7000B4680E22275
:1005D90002008EE493A3F8E493A34003F68001F2AA
:1005E90008DFF48029E493A3F85407240CC8C33323
:1005F900C4540F4420C8834004F456800146F6DFF2
:10060900E4800B0102040810204080900659E47E22
:10061900019360BCA3FF543F30E509541FFEE493E6
:10062900A360010ECF54C025E060A840B8E493A3AD
:10063900FAE493A3F8E493A3C8C582C8CAC583CAD8
:10064900F0A3C8C582C8CAC583CADFE9DEE780BE90
:0106DB00001E
:10047F00E709F608DFFA8046E709F208DFFA803E5F
:10048F0088828C83E709F0A3DFFA8032E309F6084C
:10049F00DFFA8078E309F208DFFA807088828C83B4
:1004AF00E309F0A3DFFA806489828A83E0A3F60868
:1004BF00DFFA805889828A83E0A3F208DFFA804C42
:1004CF0080D280FA80C680D4806980F28033801019
:1004DF0080A680EA809A80A880DA80E280CA803382
:1004EF0089828A83ECFAE493A3C8C582C8CCC583FA
:1004FF00CCF0A3C8C582C8CCC583CCDFE9DEE780CA
:10050F000D89828A83E493A3F608DFF9ECFAA9F048
:10051F00EDFB2289828A83ECFAE0A3C8C582C8CC9E
:10052F00C583CCF0A3C8C582C8CCC583CCDFEADEB7
:10053F00E880DB89828A83E493A3F208DFF980CC19
:10054F0088F0EF60010E4E60C388F0ED2402B40412
:10055F000050B9F582EB2402B4040050AF232345B9
:06056F0082239004CF730B
:10057500BB010689828A83E0225002E722BBFE0284
:09058500E32289828A83E49322B7
:10058E00BB010689828A83F0225002F722BBFE014C
:02059E00F32246
:1009E5008B3A8A3B893C8B408A418942AB3A053C2C
:1009F500E53CAA3B7002053B14F912057570ED74D0
:100A0500FF253CF53C74FF353BF53BAB3D053FE52C
:100A15003FAA3E7002053E14F9120575FFAB3A0573
:100A25003CE53CAA3B7002053B14F9EF12058E70BC
:080A3500DAAB40AA41A94222FC
:1006DC008B488A49894AAB4BAA4CA94D12057560C7
:1006EC0063AB48AA49A94A120575605F854B4E85D4
:1006FC004C4F854D508B518A528953AB4EAA4FA902
:10070C0050120575FF6023AB51AA52A953120575FF
:10071C006F7017042550F550E4354FF54F740125D3
:10072C0053F553E43552F55280D1AB4EAA4FA95034
:10073C001205757002800D7401254AF54AE435499D
:10074C00F549809DAB48AA49A94A227B007A0079D9
:02075C00002279
:10075E008B218A228923E94A4B7009851A21851B30
:10076E0022851C23E523452245217002802C8524F9
:10077E002A85252B85262CAB21AA22A9231208C84F
:10078E00EF2523F523EE3522F522AB21FAA923120C
:10079E000575700AF51AF51BF51CFBFAF92285246E
:1007AE002A85252B85262CAB21AA22A9231209885E
:1007BE008B1A8A1B891CEA494B600EE412058E04C3
:1007CE00251CF51CE4351BF51BAB21AA22A92322FF
:1008C8008B278A288929E4F52DF52EE4FEFFAB2A2B
:1008D800AA2BA92C8F828E831205A0FD6013AB274B
:1008E800AA28A9291205756D60070FBF00010E809F
:1008F800DDAB2AAA2BA92C8F828E831205A0700249
:10090800801A052EE52E7002052DAB270529E5294D
:1009180070020528F9AA2812057570AFAE2DAF2E02
:0109280022AC
:100988008B278A288929852A2D852B2E852C2FAB04
:100998002DAA2EA92F120575FF6019AB27AA28A921
:1009A800291205756F600D7401252FF52FE4352E7A
:1009B800F52E80DBAB2DAA2EA92F1205756007AB8B
:1009C80027AA28A92922AB270529E529AA287002E0
:0D09D800052814F912057570ADFBFAF9221F
:1005A000BB010CE58229F582E5833AF583E0225010
:1005B00006E92582F8E622BBFE06E92582F8E2225A
:0D05C000E58229F582E5833AF583E4932274
:00000001FF
