:030000000205CF27
:0C05CF00787FE4F6D8FD75816C020616FA
:100B2E007DA57C06ED1D70011C144C70F7EF1F7037
:060B3E00011E144E70EAD6
:010B4400228E
:10030C00222B3836313338303035313735303022D6
:10031C0000223133333338393135373631220053FB
:10032C00494D383038C4A3BFE9B6CCD0C5B2E2CA07
:10033C00D4B3CCD0F20D0A0053494D383038C4A395
:10034C00BFE9475053B2E2CAD4B3CCD0F20D0A0085
:10035C0041542B43474E535057523D310D0A004FD9
:10036C004B0041542B43474E535345513D22524D64
:10037C0043220D0A0041542B43474E53494E460D20
:10038C000A002B43474E53494E463A20312C312C10
:10039C000053494D383038C4A3BFE9B6A8CEBBB31F
:1003AC00C9B9A60D0A0041542B43474E535552432D
:1003BC003D300D0A0047505320646174613A002CA3
:1003CC0000CAB1BCE43A00CEB3B6C83A006C617452
:1003DC0069747564653A00BEADB6C83A006C6F6E50
:1003EC006769747564653A00BAA3B0CE3A00656C5F
:1003FC0065766174696F6E3A004154453100415421
:10040C002B434D47463D310041542B43504D533DFA
:10041C0022534D222C22534D222C22534D22003E8E
:10042C000041542B435245473F0041542B43534307
:10043C00413D000000000000000000000000000032
:10044C0000000041542B434D47533D000000000079
:10045C000000000000000000000000000000000090
:10046C000000000000000000000000000000000080
:05047C0000000000007B
:10065B00030BFF030C030FFF031D606400004750E7
:10066B005320706F736974696F6E696E6720737551
:10067B00636365737300000000000000000000005E
:10068B00000000000000000000000000000000005F
:10069B00000000000000000000000000000000004F
:1006AB00000000000000000000000000000000003F
:1006BB00000000000000000000000000000000002F
:1006CB00000002090000010E0001190001180001D1
:0206DB00080015
:10008E00120BB5120B5A120B82120B6FD2AF7BFFF3
:10009E007A03792B12000E12098B1207E07BFF7A7E
:1000AE0003794412000E7556FF75570375586B751C
:1000BE0059027BFF7A03795C12085F7F647E00121F
:1000CE000B2E7556FF75570375586B7559027BFFCE
:1000DE007A03796E12085F7556FF75570375588E41
:1000EE007559031208597BFF7A03799D12000E751C
:1000FE0056FF75570375586B7559017BFF7A037957
:10010E00B212085F12003312092B30B703751801B3
:10011E0020B7F7E51860F3E4F518900000F0755677
:10012E00FF7557037558C17B017A007900120A4793
:10013E007556FF75570375586B7559011208597529
:10014E0064FF75650375666B7B017A007964120630
:10015E00DE8B158A168917E94A4B60047F018002EF
:10016E007F00EF60A5AB15AA16A917E412059075CE
:10017E0024FF7525037526CB7B017A00796412075F
:10018E00608B158A1689177524FF7525037526CB86
:10019E007B007A0079001207608B158A1689177515
:1001AE0024FF7525037526CB7B007A007900120794
:1001BE00608B158A1689177BFF7A0379CD12000E94
:1001CE00AB15AA16A91712000E7F0D120BA67F0AE9
:1001DE00120BA67524FF7525037526CB7B007A00BE
:1001EE0079001207608B158A1689177BFF7A0379BF
:1001FE00D312000EAB15AA16A91712000E7F0D1200
:10020E000BA67F0A120BA67556FF7557037558D9A4
:10021E007B017A007900120A478515568516578597
:10022E0017587B017A007900120A477524FF75254D
:10023E00037526CB7B007A0079001207608B158A36
:10024E001689177BFF7A0379E312000EAB15AA16F7
:10025E00A91712000E7F0D120BA67F0A120BA675A0
:10026E0056FF7557037558E97B017A007900120A1B
:10027E00478515568516578517587B017A007900E4
:10028E00120A477524FF7525037526CB7B007A006D
:10029E0079001207608B158A1689177BFF7A03790E
:1002AE00F412000EAB15AA16A91712000E7F0D122E
:1002BE000BA67F0A120BA67556FF7557037558FAD3
:1002CE007B017A007900120A4785155685165785E7
:1002DE0017587B017A007900120A477B017A007960
:1002EE000012000E7F0D120BA67F0A120BA612092A
:0E02FE002B7FE87E03120B2E12003302011834
:03008B00020B4520
:100B4500C0E0E5AC30E00353ACFEE5AC30E1035367
:050B5500ACFDD0E03210
:0300430002004672
:10004600C0E0C083C082C0D053AFFEE59A30E01D49
:10005600539AFE7464250EF582E43400F583E59B1D
:10006600F0050EE50ED394C84003750E00E59A30F0
:10007600E103539AFD43AF01D0D0D082D083D0E0C4
:010086003247
:03000B00020A9F47
:0B0A9F00C0E0C0F0C0D075D000C00760
:100AAA00C28C0508E508C394324005750800B2A156
:100ABA00300008050AE50A70020509E51975F032E1
:100ACA00A4FFD3E50A9FE50995F04008C20075091D
:060ADA0000750A00D28C39
:090AE000D007D0D0D0F0D0E032F4
:0B0BB50053B1C343B23CC2B3C2A12243
:100B6F00538E7F5389F0E4F58A758C70C28DD28CC9
:030B7F00D2A922D6
:0F003300E4FF7EC8900064E4F0A3DEFCE4F50E69
:01004200229B
:100B0E008B5E8A5F89608B648A6589667B017A0059
:100B1E0079641206DEE94A4B60037F01227F0022D0
:060859007BFF7A037981A8
:06085F008B538A548955F9
:100865008B5B8A5C895D120033E4F55AE55A705456
:10087500AB56AA57A958120B0EEF70412000ED1286
:100885000033855B53855C54855D55AB53AA54A9EC
:1008950055120577FF6010120B9574012555F55516
:1008A500E43554F55480E47F0D120B957F0A120B45
:1008B50095E4F509F50A855919D20080AF755A01F5
:0408C500C20080A845
:0108C900220C
:1007E00078217C007D007BFF7A0479367E007F19BA
:1007F0001205517556FF75570375586B7559037B74
:10080000FF7A04790512085F7556FF75570375580E
:100810006B7559037BFF7A04790A12085F7556FFDE
:1008200075570375586B7559037BFF7A0479141259
:10083000085F850B56850C57850D587B007A00792B
:1008400021120A477556FF75570375586B75590382
:090850007B007A00792102085FA7
:10092B0078217C007D007BFF7A04794F7E007F323B
:10093B00120551850F568510578511587B007A008B
:10094B007921120A477556FF75570475582B75593F
:10095B00037B007A00792112085F7B017A00790012
:10096B00120AE97F1A120B957564FF75650375669C
:0F097B006B7B017A0079641206DEE94A4B60E972
:01098A00224A
:10098B00E4F521120033E52170541200337BFF7A1A
:10099B0004792D120AE97F0D120B957F0A120B9524
:1009AB007F887E13120B2EE4F522E522C394C850E8
:1009BB00D574642522F582E43400F583E0B43A1A49
:1009CB0074682522F582E43400F583E0FF6431601E
:0E09DB0004EFB4350575210180AC052280CCF7
:0109E90022EB
:100B5A0075AC5075D5D075D4FF43D10243D1087511
:050B6A00AF08D2AF222C
:100B8200759A50438E0475D7D075D6FF438E1043A5
:030B9200AF01228E
:0F0BA600C2AF8FADE5AC30E1FB53ACFDD2AF2257
:10000E008B218A228923AB21AA22A923120577608C
:10001E00130523E5237002052214F9120577FF124A
:05002E000BA680E22298
:100B950053AFFE8F9BE59A30E1FB539AFD75AF018C
:010BA500222D
:100AE9008B538A548955AB53AA54A955120577607B
:100AF900130555E5557002055414F9120577FF12CF
:050B09000B9580E222C3
:1005DB0002008EE493A3F8E493A34003F68001F2A8
:1005EB0008DFF48029E493A3F85407240CC8C33321
:1005FB00C4540F4420C8834004F456800146F6DFF0
:10060B00E4800B010204081020408090065BE47E1E
:10061B00019360BCA3FF543F30E509541FFEE493E4
:10062B00A360010ECF54C025E060A840B8E493A3AB
:10063B00FAE493A3F8E493A3C8C582C8CAC583CAD6
:10064B00F0A3C8C582C8CAC583CADFE9DEE780BE8E
:0106DD00001C
:10048100E709F608DFFA8046E709F208DFFA803E5D
:1004910088828C83E709F0A3DFFA8032E309F6084A
:1004A100DFFA8078E309F208DFFA807088828C83B2
:1004B100E309F0A3DFFA806489828A83E0A3F60866
:1004C100DFFA805889828A83E0A3F208DFFA804C40
:1004D10080D280FA80C680D4806980F28033801017
:1004E10080A680EA809A80A880DA80E280CA803380
:1004F10089828A83ECFAE493A3C8C582C8CCC583F8
:10050100CCF0A3C8C582C8CCC583CCDFE9DEE780C7
:100511000D89828A83E493A3F608DFF9ECFAA9F046
:10052100EDFB2289828A83ECFAE0A3C8C582C8CC9C
:10053100C583CCF0A3C8C582C8CCC583CCDFEADEB5
:10054100E880DB89828A83E493A3F208DFF980CC17
:1005510088F0EF60010E4E60C388F0ED2402B40410
:100561000050B9F582EB2402B4040050AF232345B7
:0605710082239004D17307
:10057700BB010689828A83E0225002E722BBFE0282
:09058700E32289828A83E49322B5
:10059000BB010689828A83F0225002F722BBFE014A
:0205A000F32244
:100A47008B538A5489558B598A5A895BAB53055501
:100A5700E555AA547002055414F912057770ED7420
:100A6700FF2555F55574FF3554F554AB560558E534
:100A770058AA577002055714F9120577FFAB5305AB
:100A870055E555AA547002055414F9EF12059070F4
:080A9700DAAB59AA5AA95B224F
:1006DE008B618A628963AB64AA65A966120577602D
:1006EE0063AB61AA62A963120577605F8564678553
:1006FE0065688566698B6A8A6B896CAB67AA68A91F
:10070E0069120577FF6023AB6AAA6BA96C12057795
:10071E006F7017042569F569E43568F5687401256D
:10072E006CF56CE4356BF56B80D1AB67AA68A96983
:10073E001205777002800D74012563F563E435624E
:10074E00F562809DAB61AA62A963227B007A007973
:02075E00002277
:100760008B218A228923E94A4B7009851A21851B2E
:1007700022851C23E523452245217002802C8524F7
:100780002A85252B85262CAB21AA22A9231208CA4B
:10079000EF2523F523EE3522F522AB21FAA923120A
:1007A0000577700AF51AF51BF51CFBFAF92285246A
:1007B0002A85252B85262CAB21AA22A9231209EAFA
:1007C0008B1A8A1B891CEA494B600EE412059004BF
:1007D000251CF51CE4351BF51BAB21AA22A92322FD
:1008CA008B278A288929E4F52DF52EE4FEFFAB2A29
:1008DA00AA2BA92C8F828E831205A2FD6013AB2747
:1008EA00AA28A9291205776D60070FBF00010E809B
:1008FA00DDAB2AAA2BA92C8F828E831205A2700245
:10090A00801A052EE52E7002052DAB270529E5294B
:10091A0070020528F9AA2812057770AFAE2DAF2EFE
:01092A0022AA
:1009EA008B278A288929852A2D852B2E852C2FABA2
:1009FA002DAA2EA92F120577FF6019AB27AA28A9BD
:100A0A00291205776F600D7401252FF52FE4352E15
:100A1A00F52E80DBAB2DAA2EA92F1205776007AB26
:100A2A0027AA28A92922AB270529E529AA2870027D
:0D0A3A00052814F912057770ADFBFAF922BA
:1005A200BB010CE58229F582E5833AF583E022500E
:1005B20006E92582F8E622BBFE06E92582F8E22258
:0D05C200E58229F582E5833AF583E4932272
:00000001FF
