:10069400494C6F76654D43552E74616F62616F2EC0
:1006A400636F6D0041542B43495053544152543DA0
:1006B40022544350222C2200222C000D0A00434FC6
:1006C4004E4E4543540041542B43495053454E44E8
:1006D4000D0A003E00494C6F76654D43552E7461FA
:1006E4006F62616F2E636F6D2025640D0A004154A3
:1006F4002B434950434C4F53450D0A004F4B0D0AB1
:100704000041542B434D47533D2200220D0A004122
:100714005444003B0D0A00534F554E44455200418A
:10072400540D0A004F4B0041542B4350494E3F0D8A
:100734000A0052454144590041542B434741545403
:100744003D310D0A0041542B434744434F4E543D21
:10075400312C224950222C22434D4E4554220D0A5D
:100764000041542B43474143543D312C310D0A0081
:100774000D0A2D2D2D2D2D2D2D2D2D73656E6420FF
:10078400415420436F6D6D616E643A2D2D2D2D2DD6
:100794002D2D2D2D0D0A000D0A3D3D3D3D3D3D3DC8
:1007A4003D3D3D7265636569766520415420436F24
:1007B4006D6D616E643A3D3D3D3D3D3D3D3D3D3D8C
:1007C4000D0A004552524F52000D0A5245534554EA
:1007D4002121212121210D0A002A2A2A2A2A2A2A12
:1007E4002A2A2A2A2A2A2A0D0A002C00536176650D
:1007F4005F446174612E55544354696D65203D20F6
:1008040000536176655F446174612E6C6174697430
:10081400756465203D2000536176655F44617461B1
:100824002E4E5F53203D2000536176655F44617412
:10083400612E6C6F6E676974756465203D2000538A
:100844006176655F446174612E455F57203D2000E9
:100854004750532044415441206973206E6F7420E3
:1008640075736566756C6C210D0A003132322E3257
:1008740032382E31392E35370033303832390000D2
:100884000000000000000000000000000000000064
:100894000000000000000000000000000000000054
:1008A4000000000000000000000000000000000044
:1008B4000000000000000000000000000000000034
:1008C4000000000000000000000000000000000024
:1008D4000000000000000000000000000000000014
:1008E4000000000000000000000000000000000004
:1008F40000000000000000000000000000000000F4
:1009040000000000000000000000000000000000E3
:050914000000000000DE
:10004600042200000000C18B023200000C2631376A
:10005600373139323278787878001436494C6F76F1
:10006600654D43552E74616F62616F2E636F6D002F
:040076000234000050
:06146000E4F5CAF5C92203
:100919001214601212BD7BFF7A0679941213A07F1C
:0A092900C81214401211AC120CD9D0
:1009330078D17C027D017BFF7A0879837E007F6416
:100943001204BA7E007F647D007B017A0279D112A2
:1009530005F378D17C027D017BFF7A0679A8120525
:10096300D6754EFF754F0875506F7B017A0279D1AA
:1009730012120F754EFF754F067550BC7B017A023C
:1009830079D112120F754EFF754F0875507D7B019B
:100993007A0279D112120F754EFF754F067550BF4B
:1009A3007B017A0279D112120F7550FF75510675CA
:1009B30052C2E4755610755527120DCEEF64014EE1
:1009C30060077F067E001212677550FF755106752A
:1009D30052D7E47556B875550BF554F5537557054D
:1009E3007BFF7A0679CA120DDBEF64014E60077F45
:1009F300077E001212677E007F647D007B017A020E
:100A030079D11205F3754EFF754F067550D98534AC
:100A1300518535527B017A0279D11200EA0535E519
:100A230035700205347550017551027552D1E47564
:100A330056B875550BF554F553755701120DD5EF8F
:100A430064014E60077F087E001212677F641214F0
:100A5300407E007F647D007B017A0279D11205F329
:100A63009002D1741AF07550017551027552D1E498
:100A73007556B875550B120DCEEF64014E60077FA6
:0E0A8300097E001212677F641214400209CC33
:060BD3008B198A1A891B30
:100BD90078537C037D017BFF7A0879E77E007F14D7
:100BE9001204BA7E007F147D007B017A03795312C7
:100BF90005F378537C037D017BFF7A07790512059C
:100C0900D685194E851A4F851B507B017A03795376
:100C190012120F754EFF754F0775500F7B017A033E
:100C2900795312120F7550FF7551067552D7E47535
:100C390056B875550BF554F55375570A7B017A0368
:100C49007953120DDBEF64014E60077F017E0012BC
:100C590012677F64121440851C50851D51851E52F0
:100C6900E47556B875550BF554F553755705AB1C16
:100C7900AA1DA91E120DDBEF64014E60077F027EDB
:100C8900001212677F641214407E007F147D007B7E
:100C9900017A0379531205F3900353741AF07550CE
:100CA90001755103755253E4755688755513F554FA
:100CB900F5537557057B017A037953120DDBEF6400
:100CC900014E60077F037E001212677F64021440A1
:0610A1008B698A6A896B6D
:1010A70078357C037D017BFF7A0879FB7E007F1E04
:1010B7001204BA7E007F147D007B017A0379351212
:1010C70005F378357C037D017BFF7A0779131205D9
:1010D700D685694E856A4F856B507B017A037935D2
:1010E70012120F754EFF754F077550177B017A0364
:1010F700793512120F7550FF75510775521BE4753C
:101107005610755527F554F55375570A7B017A0321
:101117007935120DDBEF64014E60077F057E001203
:0211270012674D
:0111290022A3
:100CD9007550FF755107755228E47556B875550B4F
:100CE900F554F55375570A7BFF7A077923120DDB03
:100CF900EF64014E60077F017E001212677550FF95
:100D0900755107755236E47556E8755503F554F56E
:100D19005375570A7BFF7A07792B120DDBEF6401B4
:100D29004E60077F027E001212677F0A1214407517
:100D390050FF755107755200E47556E8755503F56E
:100D490054F55375570A7BFF7A07793C120DDBEF8F
:100D590064014E60077F037E001212677F0A121436
:100D6900407550FF755107755200E47556E8755581
:100D790003F554F55375570A7BFF7A077949120D24
:100D8900DBEF64014E60077F047E001212677F0A61
:100D99001214407550FF755107755200E4755610CD
:100DA900755527F554F55375570A7BFF7A07796509
:100DB900120DDBEF64014E60077F057E001212679A
:050DC9007F0A02144046
:0D0DCE00F554F5537557057B017A0279D174
:060DDB008B4D8A4E894F8A
:100DE10012142DE4F558E558C395574003020E84BB
:100DF1007BFF7A0779741213A0AB4DAA4EA94F124B
:100E010013A0AB4DAA4EA94F1213EAE4F525F52420
:100E1100F523F522AF56AE55AD54AC53AB25AA24FC
:100E2100A923A822C31204F9504B7F64121440E590
:100E3100252464F525E43524F524E43523F523E45C
:100E41003522F52285505C85515D85525E7B017AA4
:100E510000790012112AE94A4B60B97BFF7A0779C0
:100E61009B1213A07B017A0079001213A012142D9A
:100E71007E007F0122E4F525F524F523F5220558AE
:100E8100020DE77BFF7A07799B1213A07B017A00A1
:0B0E910079001213A012142DE4FEFFE4
:010E9C002233
:0314660002000081
:101267008E4B8F4C7BFF7A0779C71213A0E54C246E
:1012770030FF1200397BFF7A0679BF1213A0755031
:10128700FF755107755228E4755664F555F554F501
:101297005375570A7BFF7A077923120DDBEF640139
:1012A7004E700C7BFF7A0779CD1213A01214667F5C
:0612B700C812144080C8BB
:100A9100E4F5169002A8E07003020BD2E4F07BFFAC
:100AA1007A0779DD1213A07B017A0279581213A01B
:100AB100E4F516E5167026755CFF755D07755EEE4B
:100AC1007B017A02795812112A8B108A118912E955
:100AD1004A4B6003020BC47F01FE020BC174012566
:100AE10012F512E43511F511755CFF755D07755E40
:100AF100EEAB10FAA91212112A8B138A148915E987
:070B01004A4B7003020BBD1B
:100B0800E51624FE6021146031146041146051140C
:100B1800606124057077C3E5159512FFE5149511FA
:100B2800FE78AA7C028022C3E5159512FFE514958C
:100B380011FE78177C007D00804AC3E5159512FFE9
:100B4800E5149511FE78B57C027D018037C3E51563
:100B58009512FFE5149511FE78C07C027D01802472
:100B6800C3E5159512FFE5149511FE78C27C027D48
:100B7800018011C3E5159512FFE5149511FE78CE95
:100B88007C027D01AB10AA11A9121204BA851310B8
:100B98008514118515129002A97401F0E517B44166
:100BA800089002D07401F08013E517B4560EE49053
:030BB80002D0F078
:100BBB0080077F027E001212670516D3E51664804C
:070BCB0094865003020AB4F6
:010BD2002200
:100F6A009002A9E07003021014E4F07BFF7A07797B
:100F7A00F01213A07B017A0279AA1213A07BFF7ADE
:100F8A000679BF1213A09002D0E06075E4F07BFFEF
:100F9A007A0879051213A07B017A0279B51213A097
:100FAA007BFF7A0679BF1213A07BFF7A08791B129E
:100FBA0013A07B017A0279C01213A07BFF7A06790B
:100FCA00BF1213A07BFF7A08792C1213A07B017A37
:100FDA000279C21213A07BFF7A0679BF1213A07B93
:100FEA00FF7A0879431213A07B017A0279CE121391
:100FFA00A07BFF7A0679BF1213A0A20B92CDB20B87
:0B100A00227BFF7A0879541213A02209
:1011AC00E49002A8F0A3F09002D0F0FE7F50FD7BFB
:1011BC00017A0279581205F37E007F0B7D007B01CA
:1011CC007A0279AA1205F37E007F0B7D007B017AEF
:1011DC000279B51205F37E007F027D007B017A0255
:1011EC0079C01205F37E007F0C7D007B017A0279B9
:1011FC00C21205F37E007F027D007B017A0279CE5C
:03120C000205F3E5
:0F1440007D527C03ED1D70011C144C70F7DFF121
:01144F00227A
:10007A00016600016700C109016500016800C10A43
:1012BD0053877F759850438E40538EFE53890F434D
:1012CD008920758BDC758DDCC2ABD28E759A50433F
:1012DD008E0475D7E075D6FE438E1075AC1043ACF9
:1012ED004043D10275D5E075D4FE43D10843AF011B
:0812FD0043AF08D2ACD2AF22CE
:080039008F993099FDC2992254
:1013A0008B598A5A895BAB59AA5AA95B1204E0602F
:1013B00013055BE55B7002055A14F91204E0FF1295
:0513C000003980E2226B
:100003008B6C8A6D896E8B5C8A5D895E7B007A005E
:0E001300797512112AE94A4B6002D322C322EA
:100026007E007F147D007B007A0079751205F3E46B
:03003600F566224A
:0300230002134C79
:10134C00C0E0C0D075D008C2AC309815C298747586
:10135C002566F8A6990566E566C394144003756680
:0D136C0000309902C299D2ACD0D0D0E0324E
:081450002009FD8F9BD2092247
:1013C5008B6F8A708971AB6FAA70A9711204E06086
:1013D500130571E5717002057014F91204E0FF122E
:0513E500145080E2221B
:03004300020E9D0D
:0D0E9D00C0E0C0F0C083C082C0D075D00896
:100EAA00E4FFF54A53AFFEE59A20E003020F52AF82
:100EBA009B539AFEBF2403756500E565D3940550DC
:100ECA000CAE65056574892EF8A60F807B788DE6D1
:100EDA00B44D047E0180027E007889E6B424047D44
:100EEA000180027D00ED5E605F788EE66443705893
:100EFA00AE65056574892EF8A60FEF640A7038FE90
:100F0A007F50FD7B017A0279581205F3AF657E00A6
:100F1A0078587C027D017B007A0079891204BA90A4
:100F2A0002A87401F07565007E007F4C7D007B008D
:100F3A007A0079891205F3E565C3944B400A756511
:100F4A004B74892565F87600E59A30E105539AFDD8
:050F5A00C20943AF01D4
:0B0F5F00D0D0D082D083D0F0D0E032A0
:08145800200AFD8FADD20A222B
:1013EA008B598A5A895BAB59AA5AA95B1204E060E5
:1013FA0013055BE55B7002055A14F91204E0FF124B
:05140A00145880E222ED
:10140F008B728A7389748B5C8A5D895E7B017A002B
:0E141F00790012112AE94A4B6002D322C3223F
:10142D007E027F587D007B017A0079001205F3E47E
:03143D00F568222D
:03008B0002130558
:10130500C0E0C083C082C0D053AFF7E5AC30E02168
:1013150053ACFE74002568F582E43400F583E5AD31
:10132500F00568C3E5689458748094824003756835
:1013350000E5AC30E10553ACFDC20A43AF08D0D09F
:07134500D082D083D0E0321A
:03000000021015D6
:0C101500787FE4F6D8FD7581D402105CF1
:1003EA00E709F608DFFA8046E709F208DFFA803EF5
:1003FA0088828C83E709F0A3DFFA8032E309F608E2
:10040A00DFFA8078E309F208DFFA807088828C8349
:10041A00E309F0A3DFFA806489828A83E0A3F608FD
:10042A00DFFA805889828A83E0A3F208DFFA804CD7
:10043A0080D280FA80C680D4806980F280338010AE
:10044A0080A680EA809A80A880DA80E280CA803317
:10045A0089828A83ECFAE493A3C8C582C8CCC5838F
:10046A00CCF0A3C8C582C8CCC583CCDFE9DEE7805F
:10047A000D89828A83E493A3F608DFF9ECFAA9F0DE
:10048A00EDFB2289828A83ECFAE0A3C8C582C8CC34
:10049A00C583CCF0A3C8C582C8CCC583CCDFEADE4D
:1004AA00E880DB89828A83E493A3F208DFF980CCAF
:1004BA0088F0EF60010E4E60C388F0ED2402B404A8
:1004CA000050B9F582EB2402B4040050AF2323454F
:0604DA00822390043A7336
:1004E000BB010689828A83E0225002E722BBFE021A
:0904F000E32289828A83E493224D
:1004F900EB9FF5F0EA9E42F0E99D42F0E89C45F059
:0105090022CF
:10008E00E55A244EF8E6055A22784B300702784E90
:10009E00E475F00112065E0204E02000EB7F2ED222
:1000AE00008018EF540F2490D43440D4FF30040B4A
:1000BE00EF24BFB41A0050032461FFE55B60021504
:1000CE005B055EE55E7002055D30070D784BE475ED
:1000DE00F00112065EEF02064C0213797403D2078A
:1000EE008003E4C207F55A8B4B8A4C894DE4F55BCD
:1000FE00F55DF55EE55B60077F201200C980F57542
:10010E005CFFC201C200C202C203C205C206C2081F
:10011E00120097FF700D3007057F001200DAAF5EF8
:10012E00AE5D22B4255FC2D5C204120097FF24D063
:10013E00B40A00501A75F00A785B30D50508B6FF80
:10014E000106C6A426F620D5047002D20380D92457
:10015E00CFB41A00EF5004C2E5D2040202DAD20183
:10016E0080C6D20080C0D20280BCD2D580BAD20561
:10017E0080B47F201200C92002077401B55B0040D5
:10018E00F112008EFF1200C9020102D208D20680BF
:10019E009512008EFB12008EFA12008EF94A4B70E9
:1001AE000679AB7A037BFF20022EE55B602A7E0088
:1001BE008E8275830012061F60060EEE655C70F06F
:1001CE00C2D5EBC0E0EAC0E0E9C0E0EE120321D0F8
:1001DE00E0F9D0E0FAD0E0FB1204E0FF60AAEBC039
:1001EE00E0EAC0E0E9C0E01200C9D0E02401F9D095
:1001FE00E03400FAD0E0FBE55C0460DCD55CD9802D
:10020E00877BFF7A03791DD202809C791080027958
:10021E0008C206C2088008D2D5790A8004790AC2BB
:10022E00D5E55C047002F55CE4FAFDFEFF12008E6B
:10023E00FC7B0820011312008EFD7B1030000A1289
:10024E00008EFE12008EFF7B20EC3382D592D550AD
:10025E0013C3E43000069FFFE49EFEE42001039DDD
:10026E00FDE49CFCE4CBF8C201EC700CCFCECDCCFF
:10027E00E824F8F870F38017C3EF33FFEE33FEED8A
:10028E0033FDEC33FCEB33FB994002FB0FD8E9EB6B
:10029E00300105F8D0E0C448B201C0E00AEC4D4E82
:1002AE004F78207B0070C2EAB55C0040BCC0E01203
:1002BE000323D0F0D0E0200104C4C0E0C4B201C0DA
:1002CE00F01200B2D0F0D5F0EB02010212066E0170
:1002DE009F5302195801704C016C42021D4F0225AA
:0F02EE0044022549018543022B55020F46020F9A
:1002FD0045020F4703CB5001742D01782E019B2B26
:10030D00017C2301992003B42A0134480000019394
:10031D003F3F3F00790AA2D5200314300509B910DB
:10032D00020404B9080104A2D520060250010420DC
:10033D0002689202B55B005034C0E07F2030031993
:10034D007F30A20272067205500F12037AC202C2EA
:10035D0006C205C2087F30800F300503E9C0E012E8
:10036D0000C9300503D0E0F9D0E0B55BCC300517FE
:10037D007F30B9100C1200C97F583004077F788088
:10038D0003B908031200C93002057F2D0200C97F91
:10039D00202008F87F2B2006F322920280CF286EB2
:1003AD00756C6C2900D20112008E3001F8C20178F3
:1003BD005B30D50108F60201342D50434958120027
:1003CD008E2403B405004001E49003C6931200BAD5
:0D03DD00743A1200BAD203755B04020219D3
:10120F008B4B8A4C894D8B518A528953AB4B054D71
:10121F00E54DAA4C7002054C14F91204E070ED7400
:10122F00FF254DF54D74FF354CF54CAB4E0550E594
:10123F0050AA4F7002054F14F91204E0FFAB4B0593
:10124F004DE54DAA4C7002054C14F9EF12064C7087
:08125F00DAAB51AA52A9532297
:10050A00E709F60870FA8046E709F20870FA803EB1
:10051A0088828C83E709F0A370FA807EE309F608E3
:10052A0070FA8076E309F20870FA806E88828C830A
:10053A00E309F0A370FA806289828A83E0A3F6084D
:10054A0070FA805689828A83E0A3F20870FA804A98
:10055A0080D280FA80C680D4806580F28031801093
:10056A0080A680EA809A80A880DA80E280CA8031F8
:10057A0089828A83ECFAE493A3C8C582C8CCC5836E
:10058A00CCF0A3C8C582C8CCC583CC70E9800D89DC
:10059A00828A83E493A3F60870F9ECFAA9F0EDFBDA
:1005AA002289828A83ECFAE0A3C8C582C8CCC583B3
:1005BA00CCF0A3C8C582C8CCC583CC70EA80DD89DB
:1005CA00828A83E493A3F20870F980CE88F0ED243E
:1005DA0002B4040050C4F582EB2402B4040050BAF9
:0905EA00232345822390055A7376
:10112A008B598A5A895BAB5CAA5DA95E1204E0609E
:10113A0063AB59AA5AA95B1204E0605F855C5F85BC
:10114A005D60855E618B628A638964AB5FAA60A910
:10115A00611204E0FF6023AB62AA63A9641204E08F
:10116A006F7017042561F561E43560F56074012537
:10117A0064F564E43563F56380D1AB5FAA60A96165
:10118A001204E07002800D7401255BF55BE4355AA8
:10119A00F55A809DAB59AA5AA95B227B007A00793D
:0211AA00002221
:1005F300EF4E6012EF60010EEDBB010B89828A831F
:10060300F0A3DFFCDEFA2289F05007F709DFFCA92B
:0C061300F022BBFEFCF309DFFCA9F02282
:10102100020919E493A3F8E493A34003F68001F2C3
:1010310008DFF48029E493A3F85407240CC8C333D0
:10104100C4540F4420C8834004F456800146F6DF9F
:10105100E4800B0102040810204080900046E47EE9
:10106100019360BCA3FF543F30E509541FFEE49394
:10107100A360010ECF54C025E060A840B8E493A35B
:10108100FAE493A3F8E493A3C8C582C8CAC583CA86
:10109100F0A3C8C582C8CAC583CADFE9DEE780BE3E
:01008A000075
:10061F00BB010CE58229F582E5833AF583E0225090
:10062F0006E92582F8E622BBFE06E92582F8E222DA
:0D063F00E58229F582E5833AF583E49322F4
:10064C00BB010689828A83F0225002F722BBFE018D
:02065C00F32287
:10065E00FAE6FB0808E6F925F0F618E6CA3AF6229D
:10066E00D083D082F8E4937012740193700DA3A31B
:10067E0093F8740193F5828883E47374029368602F
:06068E00EFA3A3A380DF2F
:10137900EFB40A07740D121384740A309811A899EE
:10138900B8130CC2983098FDA899C298B811F630D4
:0713990099FDC299F59922AC
:00000001FF
