:1002A30057656C636F6D6520746F207573652100EE
:1002B300494C6F76654D43552E74616F62616F2EA5
:1002C300636F6D004552524F52000D0A002A2A2ACD
:1002D3002A2A2A2A2A2A2A2A2A2A2A0D0A002C000A
:1002E300536176655F446174612E55544354696D5F
:1002F30065203D2000536176655F446174612E6C17
:1003030061746974756465203D2000536176655F8F
:10031300446174612E4E5F53203D20005361766526
:100323005F446174612E6C6F6E67697475646520D8
:100333003D2000536176655F446174612E455F57CC
:10034300203D2000475053204441544120697320ED
:0F0353006E6F742075736566756C6C210D0A00F2
:10062C00E4F52112069E7F0A7E0012067E7BFF7A7D
:10063C000279A31206567BFF7A0279B31206561280
:0A064C0005C912002612041880F8F8
:100003008E2B8F2C7BFF7A0279C7120656E52C24A0
:1000130030FF1206BC7BFF7A0279CD12065680E4CC
:10002600E4F528900050E07003020167E4F07BFFDE
:100036007A0279D01206567B017A007900120656AA
:10004600E4F528E5287026752EFF752F027530E138
:100056007B017A0079001205478B228A238924E9DD
:100066004A4B60030201597F01FE020156740125C5
:1000760024F524E43523F523752EFF752F027530FC
:10008600E1AB22FAA9241205478B258A268927E99E
:070096004A4B700302015206
:10009D00E52824FE60211460311460411460511470
:1000AD00606124057077C3E5279524FFE526952328
:1000BD00FE78527C008022C3E5279524FFE5269526
:1000CD0023FE78297C007D00804AC3E5279524FF17
:1000DD00E5269523FE785D7C007D018037C3E527FD
:1000ED009524FFE5269523FE78687C007D0180240C
:1000FD00C3E5279524FFE5269523FE786A7C007DD0
:10010D00018011C3E5279524FFE5269523FE78761A
:10011D007C007D01AB22AA23A92412023885252259
:10012D008526238527249000517401F0E529B441DB
:10013D00089000787401F08013E529B4560EE49010
:03014D000078F047
:1001500080077F027E001200030528D3E528648013
:0701600094865003020049E0
:010167002275
:10041800900051E070030204BAE4F07BFF7A02799D
:10042800E31206567B017A0079521206567BFF7A50
:100438000279CD120656900078E0606DE4F07BFFFB
:100448007A0279F81206567B017A00795D1206560F
:100458007BFF7A0279CD1206567BFF7A03790E125A
:1004680006567B017A0079681206567BFF7A027974
:10047800CD1206567BFF7A03791F1206567B017A46
:1004880000796A1206567BFF7A0279CD1206567BEE
:10049800FF7A0379361206567B017A0079761206BE
:1004A800567BFF7A0279CD80067BFF7A0379471263
:0304B800065622C3
:10067E00E4FDFCC3ED9FEC9E5015E4FBFA0BBB00B2
:0F068E00010AEB647B4A70F50DBD00010C80E49E
:01069D00223A
:0306C60001080028
:10069E0075985075CDFF75CCFD75CBFF75CAFDD223
:0E06AE00CCD2CDC2C9C2CBD2CAD2AFD2AC22FE
:100656008B2D8A2E892FAB2DAA2EA92F12025E6012
:1006660016052FE52F7002052E14F912025EF59974
:080676003099FDC29980DF22DA
:0A06BC00C2998F993099FDC299226E
:0300230002036273
:0D036200C0E0C0F0C083C082C0D075D018CC
:10036F00E4F520C2ACAF99C298BF2402F508E508A6
:10037F00D39405500CAE08050874372EF8A61F80CD
:10038F007B783BE6B44D047E0180027E007837E631
:10039F00B424047D0180027D00ED5E605F783CE651
:1003AF0064437058AE08050874372EF8A61FEF6423
:1003BF000A7038FE7F50FD7B017A007900120277B8
:1003CF00AF087E0078007C007D017B007A007937D2
:1003DF001202389000507401F07508007E007F4CB7
:1003EF007D007B007A007937120277E508C3944BC2
:0E03FF00400A75084B74372508F87600D2AC1A
:0B040D00D0D0D082D083D0F0D0E032FD
:1005C900E4900050F0A3F0900078F0FE7F50FD7B9E
:1005D900017A0079001202777E007F0B7D007B0192
:1005E9007A0079521202777E007F0B7D007B017AB7
:1005F90000795D1202777E007F027D007B017A001F
:1006090079681202777E007F0C7D007B017A007980
:100619006A1202777E007F027D007B017A0079767B
:0306290002027753
:030000000204BB3C
:0C04BB00787FE4F6D8FD7581820205020E
:10016800E709F608DFFA8046E709F208DFFA803E79
:1001780088828C83E709F0A3DFFA8032E309F60866
:10018800DFFA8078E309F208DFFA807088828C83CE
:10019800E309F0A3DFFA806489828A83E0A3F60882
:1001A800DFFA805889828A83E0A3F208DFFA804C5C
:1001B80080D280FA80C680D4806980F28033801033
:1001C80080A680EA809A80A880DA80E280CA80339C
:1001D80089828A83ECFAE493A3C8C582C8CCC58314
:1001E800CCF0A3C8C582C8CCC583CCDFE9DEE780E4
:1001F8000D89828A83E493A3F608DFF9ECFAA9F063
:10020800EDFB2289828A83ECFAE0A3C8C582C8CCB8
:10021800C583CCF0A3C8C582C8CCC583CCDFEADED1
:10022800E880DB89828A83E493A3F208DFF980CC33
:1002380088F0EF60010E4E60C388F0ED2402B4042C
:100248000050B9F582EB2402B4040050AF232345D3
:0602580082239001B8733F
:10025E00BB010689828A83E0225002E722BBFE029E
:09026E00E32289828A83E49322D1
:100547008B2B8A2C892DAB2EAA2FA93012025E6025
:1005570063AB2BAA2CA92D12025E605F852E318515
:100567002F328530338B348A358936AB31AA32A99D
:100577003312025EFF6023AB34AA35A93612025E3E
:100587006F7017042533F533E43532F532740125DE
:1005970036F536E43535F53580D1AB31AA32A93396
:1005A70012025E7002800D7401252DF52DE4352CA5
:1005B700F52C809DAB2BAA2CA92D227B007A0079E4
:0205C700002210
:10027700EF4E6012EF60010EEDBB010B89828A839E
:10028700F0A3DFFCDEFA2289F05007F709DFFCA9AB
:0C029700F022BBFEFCF309DFFCA9F02202
:1004C70002062CE493A3F8E493A34003F68001F219
:1004D70008DFF48029E493A3F85407240CC8C33336
:1004E700C4540F4420C8834004F456800146F6DF05
:1004F700E4800B01020408102040809006C6E47EC9
:10050700019360BCA3FF543F30E509541FFEE493F9
:10051700A360010ECF54C025E060A840B8E493A3C0
:10052700FAE493A3F8E493A3C8C582C8CAC583CAEB
:10053700F0A3C8C582C8CAC583CADFE9DEE780BEA3
:0106C9000030
:00000001FF
