:10008E00494C6F76654D43552E74616F62616F2ECC
:10009E00636F6D0041540D0A004F4B0041542B43CA
:1000AE0050494E3F0D0A0052454144590041542BD0
:1000BE00435245473F0D0A00435245473A2031000F
:1000CE0041542B4750533D310D0A004F4B0D0A0042
:1000DE000D0A2D2D2D2D2D2D2D2D2D73656E64209C
:1000EE00415420436F6D6D616E643A2D2D2D2D2D73
:1000FE002D2D2D2D0D0A000D0A3D3D3D3D3D3D3D65
:10010E003D3D3D7265636569766520415420436FC0
:10011E006D6D616E643A3D3D3D3D3D3D3D3D3D3D28
:10012E000D0A004552524F52000D0A000D0A52455B
:10013E005345542121212121210D0A002A2A2A2A40
:10014E002A2A2A2A2A2A2A2A2A2A0D0A002C005367
:10015E006176655F446174612E55544354696D65D3
:10016E00203D2000536176655F446174612E6C61A1
:10017E00746974756465203D2000536176655F4433
:10018E006174612E4E5F53203D2000536176655F92
:10019E00446174612E6C6F6E676974756465203D81
:1001AE002000536176655F446174612E455F572070
:1001BE003D20004750532044415441206973206E26
:0E01CE006F742075736566756C6C210D0A00E8
:0C002600041000000000C1820214000061
:060A9A00E4F5CAF5C922D3
:100A1F00120A9A1209217BFF7A00798E1209B07F90
:100A2F00C8120A721208751206061203281206BCA3
:020A3F0080F83D
:100606007530FF7531007532A7E47536B875350B50
:1006160012046AEF64014E60077F017E001208D85B
:100626007530FF7531007532B5E47536E8753503FA
:10063600F534F53375370A7BFF7A0079AA12047709
:10064600EF64014E60077F027E001208D87F0A120F
:100656000A727530FF7531007532C6E47536E87575
:100666003503F534F53375370A7BFF7A0079BB120B
:100676000477EF64014E60077F037E001208D87F7F
:100686000A120A727530FF7531007532D9E4753673
:10069600E8753503F534F53375370A7BFF7A00794B
:1006A600CE120477EF64014E60077F047E001208C5
:0606B600D87F0A020A725F
:0D046A00F534F53375370A7BFF7A0079A26F
:060477008B2D8A2E892F57
:10047D00120A5FE4F538E538C395374003020520CD
:10048D007BFF7A0079DE1209B0AB2DAA2EA92F12AF
:10049D0009B0AB2DAA2EA92F1209FAE4F513F51206
:1004AD00F511F510AF36AE35AD34AC33AB13AA1232
:1004BD00A911A810C31202EB504B7F64120A72E50A
:1004CD00132464F513E43512F512E43511F511E436
:1004DD003510F51085303C85313D85323E7B017AF6
:1004ED000079001207F3E94A4B60B97BFF7A017975
:1004FD00051209B07B017A0079001209B0120A5F6A
:10050D007E007F0122E4F513F512F511F510053883
:10051D000204837BFF7A0179051209B07B017A0011
:0B052D0079001209B0120A5FE4FEFF23
:0105380022A0
:0300860002000075
:1008D8008E2B8F2C7BFF7A0179311209B0E52C24FD
:1008E80030FF120A827BFF7A0179371209B075301E
:1008F800FF7531007532A7E4753664F53512046A60
:10090800EF64014E700C7BFF7A01793A1209B0123C
:0909180000867FC8120A7280D526
:10032800E4F5289002A8E07003020469E4F07BFF7A
:100338007A01794A1209B07B017A0279581209B018
:10034800E4F528E5287026753CFF753D01753E5B90
:100358007B017A0279581207F38B228A238924E9D0
:100368004A4B600302045B7F01FE020458740125B6
:1003780024F524E43523F523753CFF753D01753ECE
:100388005BAB22FAA9241207F38B258A268927E971
:070398004A4B7003020454FC
:10039F00E52824FE6021146031146041146051146B
:1003AF00606124057077C3E5279524FFE526952323
:1003BF00FE78AA7C028022C3E5279524FFE52695C7
:1003CF0023FE78297C007D00804AC3E5279524FF12
:1003DF00E5269523FE78B57C027D018037C3E5279E
:1003EF009524FFE5269523FE78C07C027D018024AD
:1003FF00C3E5279524FFE5269523FE78C27C027D71
:10040F00018011C3E5279524FFE5269523FE78CEBD
:10041F007C027D01AB22AA23A9241202AC852522DE
:10042F008526238527249002A97401F0E529B4417C
:10043F00089002D07401F08013E529B4560EE490B1
:03044F0002D0F0E8
:1004520080077F027E001208D80528D3E528648031
:070462009486500302034BD6
:010469002270
:1006BC009002A9E07003020766E4F07BFF7A0179EF
:1006CC005D1209B07B017A0279AA1209B07BFF7A1C
:1006DC000179371209B09002D0E06075E4F07BFF2D
:1006EC007A0179721209B07B017A0279B51209B0DC
:1006FC007BFF7A0179371209B07BFF7A0179881276
:10070C0009B07B017A0279C01209B07BFF7A0179BA
:10071C00371209B07BFF7A0179991209B07B017A03
:10072C000279C21209B07BFF7A0179371209B07BCA
:10073C00FF7A0179B01209B07B017A0279CE1209E5
:10074C00B07BFF7A0179371209B0A20292CDB202C6
:0B075C00227BFF7A0179C11209B02254
:10087500E49002A8F0A3F09002D0F0FE7F50FD7B3B
:10088500017A0279581202FC7E007F0B7D007B0104
:100895007A0279AA1202FC7E007F0B7D007B017A29
:1008A5000279B51202FC7E007F027D007B017A028F
:1008B50079C01202FC7E007F0C7D007B017A0279F3
:1008C500C21202FC7E007F027D007B017A0279CE96
:0308D5000202FC20
:0F0A72007D527C03ED1D70011C144C70F7DFF1F9
:010A81002252
:10003200011700011800C100011600011900C101D9
:1009210053877F759850438E40538EFE53890F43F2
:100931008920758BDC758DDCC2ABD28E759A5043E4
:100941008E0475D7E875D6FF438E1075AC1043AC95
:100951004043D10275D5E075D4FE43D10843AF01C0
:0809610043AF08D2ACD2AF2273
:080A82008F993099FDC2992201
:1009B0008B398A3A893BAB39AA3AA93B1202D260F9
:1009C00013053BE53B7002053A14F91202D2FF12FF
:0509D0000A8280E22212
:100003008B1A8A1B891C8B3C8A3D893E7B007A00B4
:0E00130079481207F3E94A4B6002D322C32258
:100073007E007F147D007B007A0079481202FCE445
:03008300F517224C
:0300230002004692
:10004600C0E0C0D075D008C2AC309815C2987448CC
:100056002517F8A6990517E517C3941440037517D5
:0D00660000309902C299D2ACD0D0D0E03267
:080A8A002000FD8F9BD2002229
:1009D5008B1D8A1E891FAB1DAA1EA91F1202D2607C
:1009E50013051FE51F7002051E14F91202D2FF122E
:0509F5000A8A80E222E5
:030043000205397A
:0D053900C0E0C0F0C083C082C0D075D00803
:10054600E4FFF52153AFFEE59A20E0030205EEAF86
:100556009B539AFEBF2403751600E516D3940550E7
:100566000CAE160516745C2EF8A60F807B7860E636
:10057600B44D047E0180027E00785CE6B424047DDE
:100586000180027D00ED5E605F7861E6644370582D
:10059600AE160516745C2EF8A60FEF640A7038FEC8
:1005A6007F50FD7B017A0279581202FCAF167E005D
:1005B60078587C027D017B007A00795C1202AC904F
:1005C60002A87401F07516007E007F4C7D007B004A
:1005D6007A00795C1202FCE516C3944B400A751644
:1005E6004B745C2516F87600E59A30E105539AFDC2
:0505F600C20043AF014B
:0B05FB00D0D0D082D083D0F0D0E0320E
:080A92002001FD8FADD201220D
:1009FA008B398A3A893BAB39AA3AA93B1202D260AF
:100A0A0013053BE53B7002053A14F91202D2FF12B4
:050A1A000A9280E222B7
:100A41008B458A4689478B3C8A3D893E7B017A00EA
:0E0A510079001207F3E94A4B6002D322C32258
:100A5F007E027F587D007B017A0079001202FCE450
:030A6F00F5192254
:03008B00020969FE
:10096900C0E0C083C082C0D053AFF7E5AC30E0210E
:1009790053ACFE74002519F582E43400F583E5AD26
:10098900F00519C3E51994587480948240037519C8
:1009990000E5AC30E10553ACFDC20143AF08D0D04E
:0709A900D082D083D0E032C0
:030000000207678D
:0C076700787FE4F6D8FD7581A70207AE8C
:1001DC00E709F608DFFA8046E709F208DFFA803E05
:1001EC0088828C83E709F0A3DFFA8032E309F608F2
:1001FC00DFFA8078E309F208DFFA807088828C835A
:10020C00E309F0A3DFFA806489828A83E0A3F6080D
:10021C00DFFA805889828A83E0A3F208DFFA804CE7
:10022C0080D280FA80C680D4806980F280338010BE
:10023C0080A680EA809A80A880DA80E280CA803327
:10024C0089828A83ECFAE493A3C8C582C8CCC5839F
:10025C00CCF0A3C8C582C8CCC583CCDFE9DEE7806F
:10026C000D89828A83E493A3F608DFF9ECFAA9F0EE
:10027C00EDFB2289828A83ECFAE0A3C8C582C8CC44
:10028C00C583CCF0A3C8C582C8CCC583CCDFEADE5D
:10029C00E880DB89828A83E493A3F208DFF980CCBF
:1002AC0088F0EF60010E4E60C388F0ED2402B404B8
:1002BC000050B9F582EB2402B4040050AF2323455F
:0602CC00822390022C7356
:1002D200BB010689828A83E0225002E722BBFE022A
:0902E200E32289828A83E493225D
:1002EB00EB9FF5F0EA9E42F0E99D42F0E89C45F069
:0102FB0022E0
:1007F3008B398A3A893BAB3CAA3DA93E1202D260AF
:1008030063AB39AA3AA93B1202D2605F853C3F85AC
:100813003D40853E418B428A438944AB3FAA40A970
:10082300411202D2FF6023AB42AA43A9441202D26F
:100833006F7017042541F541E43540F540740125F7
:1008430044F544E43543F54380D1AB3FAA40A94185
:100853001202D27002800D7401253BF53BE4353A58
:10086300F53A809DAB39AA3AA93B227B007A0079FD
:02087300002261
:1002FC00EF4E6012EF60010EEDBB010B89828A8319
:10030C00F0A3DFFCDEFA2289F05007F709DFFCA925
:0C031C00F022BBFEFCF309DFFCA9F0227C
:10077300020A1FE493A3F8E493A34003F68001F273
:1007830008DFF48029E493A3F85407240CC8C33387
:10079300C4540F4420C8834004F456800146F6DF56
:1007A300E4800B0102040810204080900026E47EC0
:1007B300019360BCA3FF543F30E509541FFEE4934B
:1007C300A360010ECF54C025E060A840B8E493A312
:1007D300FAE493A3F8E493A3C8C582C8CAC583CA3D
:1007E300F0A3C8C582C8CAC583CADFE9DEE780BEF5
:0100420000BD
:00000001FF
