:1002D500494C6F76654D43552E74616F62616F2E83
:1002E500636F6D00415444003B0D0A00534F554E5A
:1002F5004445520041540D0A004F4B0041542B43D5
:1003050050494E3F0D0A005245414459000D0A2DF2
:100315002D2D2D2D2D2D2D2D73656E6420415420F1
:10032500436F6D6D616E643A2D2D2D2D2D2D2D2D67
:100335002D0D0A000D0A3D3D3D3D3D3D3D3D3D3DFB
:100345007265636569766520415420436F6D6D6103
:100355006E643A3D3D3D3D3D3D3D3D3D3D0D0A0013
:100365004552524F52000D0A000D0A52455345544D
:100375002121212121210D0A002A2A2A2A2A2A2A75
:100385002A2A2A2A2A2A2A0D0A002C005361766570
:100395005F446174612E55544354696D65203D2059
:1003A50000536176655F446174612E6C6174697494
:1003B500756465203D2000536176655F4461746115
:1003C5002E4E5F53203D2000536176655F44617476
:1003D500612E6C6F6E676974756465203D200053EE
:1003E5006176655F446174612E455F57203D20004D
:1003F5004750532044415441206973206E6F742047
:1004050075736566756C6C210D0A000000000000AF
:1004150000000000000000000000000000000000D7
:09042500000000000000000000CE
:100B3200045D00000000C182026D00000C613137CB
:0A0B420037313932327878787800C4
:060C2F00E4F5CAF5C9223C
:100B5D00120C2F120AA37BFF7A0279D5120B827F1A
:100B6D00C8120C0F12094D120A087B007A00796128
:050B7D0012084380FE98
:060843008B228A238924A8
:1008490078257C007D007BFF7A0479107E007F1E6D
:1008590012015E7E007F147D007B007A00792512EB
:10086900029778257C007D007BFF7A0279E91202E4
:100879007A8522468523478524487B007A00792595
:100889001209B07546FF7547027548ED7B007A007D
:1008990079251209B07548FF754902754AF1E47561
:1008A9004E10754D27F54CF54B754F0AFB7A0079BB
:1008B9002512057DEF64014E60077F047E00120A50
:0108C9005AD4
:0108CA00220B
:100A08007548FF754902754AFEE4754EB8754D0B79
:100A1800120570EF64014E60077F017E00120A5ACA
:100A28007548FF754903754A0CE4754EE8754D0322
:100A3800F54CF54B754F0A7BFF7A03790112057D5A
:100A4800EF64014E60077F027E00120A5A7F0A0295
:020A58000C0F81
:0D057000F54CF54B754F0A7BFF7A0279F9C7
:06057D008B458A46894708
:10058300120073E4F550E550C3954F40030206266D
:100593007BFF7A037912120B82AB45AA46A9471255
:1005A3000B82AB45AA46A947120BCCE4F560F55F75
:1005B300F55EF55DAF4EAE4DAD4CAC4BAB60AA5F97
:1005C300A95EA85DC312019D504B7F64120C0FE519
:1005D300602464F560E4355FF55FE4355EF55EE461
:1005E300355DF55D854854854955854A567B017AC5
:1005F3000079001208CBE94A4B60B97BFF7A037993
:1006030039120B827B017A007900120B821200737C
:100613007E007F0122E4F560F55FF55EF55D055030
:100623000205897BFF7A037939120B827B017A00F9
:0B0633007900120B82120073E4FEFF3E
:01063E002299
:0300860002000075
:100A5A008E438F447BFF7A037965120B82E5442427
:100A6A0030FF1200397BFF7A03796B120B827548CB
:100A7A00FF754902754AFEE4754E64F54D1205701C
:100A8A00EF64014E700C7BFF7A03796E120B8212AF
:090A9A0000867FC8120C0F80D504
:10042E00E4F5169002A8E0700302056FE4F07BFF7E
:10043E007A03797E120B827B017A027958120B8233
:10044E00E4F516E51670267554FF75550375568F2F
:10045E007B017A0279581208CB8B108A118912E926
:10046E004A4B60030205617F01FE02055E740125A1
:10047E0012F512E43511F5117554FF7555037556C5
:10048E008FAB10FAA9121208CB8B138A148915E9B7
:07049E004A4B700302055AEE
:1004A500E51624FE60211460311460411460511476
:1004B500606124057077C3E5159512FFE514951164
:1004C500FE78AA7C028022C3E5159512FFE51495F6
:1004D50011FE78177C007D00804AC3E5159512FF53
:1004E500E5149511FE78B57C027D018037C3E515CD
:1004F5009512FFE5149511FE78C07C027D018024DC
:10050500C3E5159512FFE5149511FE78C27C027DB1
:10051500018011C3E5159512FFE5149511FE78CEFE
:100525007C027D01AB10AA11A91212015E85131080
:100535008514118515129002A97401F0E517B441CF
:10054500089002D07401F08013E517B4560EE490BC
:0305550002D0F0E1
:1005580080077F027E00120A5A0516D3E5166480CA
:0705680094865003020451C8
:01056F002269
:10070C009002A9E070030207B6E4F07BFF7A03794C
:10071C0091120B827B017A0279AA120B827BFF7AEF
:10072C0003796B120B829002D0E06075E4F07BFFD2
:10073C007A0379A6120B827B017A0279B5120B82AD
:10074C007BFF7A03796B120B827BFF7A0379BC12E5
:10075C000B827B017A0279C0120B827BFF7A0379C0
:10076C006B120B827BFF7A0379CD120B827B017AA1
:10077C000279C2120B827BFF7A03796B120B827B9C
:10078C00FF7A0379E4120B827B017A0279CE120B89
:10079C00827BFF7A03796B120B82A20292CDB2029A
:0B07AC00227BFF7A0379F5120B8222FA
:10094D00E49002A8F0A3F09002D0F0FE7F50FD7B62
:10095D00017A0279581202977E007F0B7D007B0190
:10096D007A0279AA1202977E007F0B7D007B017AB5
:10097D000279B51202977E007F027D007B017A021B
:10098D0079C01202977E007F0C7D007B017A02797F
:10099D00C21202977E007F027D007B017A0279CE22
:0309AD00020297AC
:0F0C0F007D527C03ED1D70011C144C70F7DFF15A
:010C1E0022B3
:100B4C00011A00011B00C100011900011C00C101A8
:100AA30053877F759850438E40538EFE53890F436F
:100AB3008920758BDC758DDCC2ABD28E759A504361
:100AC3008E0475D7E075D6FE438E1075AC1043AC1B
:100AD3004043D10275D5E075D4FE43D10843AF013D
:080AE30043AF08D2ACD2AF22F0
:080039008F993099FDC2992254
:100B82008B518A528953AB51AA52A95312018460E4
:100B9200130553E5537002055214F9120184FF1232
:050BA200003980E22291
:100003008B1D8A1E891F8B548A5589567B007A0063
:0E00130079751208CBE94A4B6002D322C32252
:100026007E007F147D007B007A007975120297E4CA
:03003600F51A2296
:0300230002004692
:10004600C0E0C0D075D008C2AC309815C29874759F
:10005600251AF8A699051AE51AC394144003751AC9
:0D00660000309902C299D2ACD0D0D0E03267
:080C1F002000FD8F9BD2002292
:100BA7008B6F8A708971AB6FAA70A971120184600B
:100BB700130571E5717002057014F9120184FF12B3
:050BC7000C1F80E2227A
:0300430002063F73
:0D063F00C0E0C0F0C083C082C0D075D008FC
:10064C00E4FFF52153AFFEE59A20E0030206F4AF78
:10065C009B539AFEBF2403751900E519D3940550DA
:10066C000CAE19051974892EF8A60F807B788DE6CF
:10067C00B44D047E0180027E007889E6B424047DAA
:10068C000180027D00ED5E605F788EE664437058F9
:10069C00AE19051974892EF8A60FEF640A7038FE8E
:1006AC007F50FD7B017A027958120297AF197E00B8
:1006BC0078587C027D017B007A00798912015E906A
:1006CC0002A87401F07519007E007F4C7D007B0040
:1006DC007A007989120297E519C3944B400A75196F
:1006EC004B74892519F87600E59A30E105539AFD8B
:0506FC00C20043AF0144
:0B070100D0D0D082D083D0F0D0E03206
:080C27002001FD8FADD2012276
:100BCC008B518A528953AB51AA52A953120184609A
:100BDC00130553E5537002055214F9120184FF12E8
:050BEC000C2780E2224D
:100BF1008B728A7389748B548A5589567B017A006A
:0E0C010079001208CBE94A4B6002D322C322CD
:100073007E027F587D007B017A007900120297E4AB
:03008300F51C2247
:03008B00020AEB7B
:100AEB00C0E0C083C082C0D053AFF7E5AC30E0218B
:100AFB0053ACFE7400251CF582E43400F583E5ADA0
:100B0B00F0051CC3E51C9458748094824003751C3B
:100B1B0000E5AC30E10553ACFDC20143AF08D0D0CA
:070B2B00D082D083D0E0323C
:030000000207B73D
:0C07B700787FE4F6D8FD7581D40207FEBF
:10008E00E709F608DFFA8046E709F208DFFA803E54
:10009E0088828C83E709F0A3DFFA8032E309F60841
:1000AE00DFFA8078E309F208DFFA807088828C83A9
:1000BE00E309F0A3DFFA806489828A83E0A3F6085D
:1000CE00DFFA805889828A83E0A3F208DFFA804C37
:1000DE0080D280FA80C680D4806980F2803380100E
:1000EE0080A680EA809A80A880DA80E280CA803377
:1000FE0089828A83ECFAE493A3C8C582C8CCC583EF
:10010E00CCF0A3C8C582C8CCC583CCDFE9DEE780BE
:10011E000D89828A83E493A3F608DFF9ECFAA9F03D
:10012E00EDFB2289828A83ECFAE0A3C8C582C8CC93
:10013E00C583CCF0A3C8C582C8CCC583CCDFEADEAC
:10014E00E880DB89828A83E493A3F208DFF980CC0E
:10015E0088F0EF60010E4E60C388F0ED2402B40407
:10016E000050B9F582EB2402B4040050AF232345AE
:06017E0082239000DE73F5
:10018400BB010689828A83E0225002E722BBFE0279
:09019400E32289828A83E49322AC
:10019D00EB9FF5F0EA9E42F0E99D42F0E89C45F0B8
:0101AD00222F
:1009B0008B438A4489458B498A4A894BAB43054519
:1009C000E545AA447002054414F912018470ED74DF
:1009D000FF2545F54574FF3544F544AB460548E52C
:1009E00048AA477002054714F9120184FFAB43057A
:1009F00045E545AA447002054414F9EF1202C3709C
:080A0000DAAB49AA4AA94B2216
:1001AE00E709F60870FA8046E709F20870FA803E11
:1001BE0088828C83E709F0A370FA807EE309F60843
:1001CE0070FA8076E309F20870FA806E88828C836A
:1001DE00E309F0A370FA806289828A83E0A3F608AD
:1001EE0070FA805689828A83E0A3F20870FA804AF8
:1001FE0080D280FA80C680D4806580F280318010F3
:10020E0080A680EA809A80A880DA80E280CA803157
:10021E0089828A83ECFAE493A3C8C582C8CCC583CD
:10022E00CCF0A3C8C582C8CCC583CC70E9800D893B
:10023E00828A83E493A3F60870F9ECFAA9F0EDFB39
:10024E002289828A83ECFAE0A3C8C582C8CCC58312
:10025E00CCF0A3C8C582C8CCC583CC70EA80DD893A
:10026E00828A83E493A3F20870F980CE88F0ED249D
:10027E0002B4040050C4F582EB2402B4040050BA58
:09028E0023234582239001FE7335
:1008CB008B518A528953AB54AA55A9561201846095
:1008DB0063AB51AA52A953120184605F85545785AB
:1008EB0055588556598B5A8A5B895CAB57AA58A9C0
:1008FB0059120184FF6023AB5AAA5BA95C120184D5
:10090B006F7017042559F559E43558F558740125BE
:10091B005CF55CE4355BF55B80D1AB57AA58A95904
:10092B001201847002800D74012553F553E4355286
:10093B00F552809DAB51AA52A953227B007A0079C4
:02094B00002288
:10029700EF4E6012EF60010EEDBB010B89828A837E
:1002A700F0A3DFFCDEFA2289F05007F709DFFCA98B
:0C02B700F022BBFEFCF309DFFCA9F022E2
:1007C300020B5DE493A3F8E493A34003F68001F2E4
:1007D30008DFF48029E493A3F85407240CC8C33337
:1007E300C4540F4420C8834004F456800146F6DF06
:1007F300E4800B0102040810204080900B32E47E59
:10080300019360BCA3FF543F30E509541FFEE493FA
:10081300A360010ECF54C025E060A840B8E493A3C1
:10082300FAE493A3F8E493A3C8C582C8CAC583CAEC
:10083300F0A3C8C582C8CAC583CADFE9DEE780BEA4
:010B5C000098
:1002C300BB010689828A83F0225002F722BBFE011A
:0202D300F32214
:00000001FF
